{
  "_format": "hh-sol-artifact-1",
  "contractName": "KaliDAOflat",
  "sourceName": "contracts/flat/KaliDAOflat.sol",
  "abi": [
    {
      "inputs": [],
      "name": "AlreadyVoted",
      "type": "error"
    },
    {
      "inputs": [],
      "name": "Initialized",
      "type": "error"
    },
    {
      "inputs": [],
      "name": "InvalidNonce",
      "type": "error"
    },
    {
      "inputs": [],
      "name": "InvalidSignature",
      "type": "error"
    },
    {
      "inputs": [],
      "name": "NoArrayParity",
      "type": "error"
    },
    {
      "inputs": [],
      "name": "NotCurrentProposal",
      "type": "error"
    },
    {
      "inputs": [],
      "name": "NotDetermined",
      "type": "error"
    },
    {
      "inputs": [],
      "name": "NotExtension",
      "type": "error"
    },
    {
      "inputs": [],
      "name": "NotMember",
      "type": "error"
    },
    {
      "inputs": [],
      "name": "NotProposer",
      "type": "error"
    },
    {
      "inputs": [],
      "name": "NotVoteable",
      "type": "error"
    },
    {
      "inputs": [],
      "name": "NullAddress",
      "type": "error"
    },
    {
      "inputs": [],
      "name": "Paused",
      "type": "error"
    },
    {
      "inputs": [],
      "name": "PrevNotProcessed",
      "type": "error"
    },
    {
      "inputs": [],
      "name": "QuorumMax",
      "type": "error"
    },
    {
      "inputs": [],
      "name": "Reentrancy",
      "type": "error"
    },
    {
      "inputs": [],
      "name": "SignatureExpired",
      "type": "error"
    },
    {
      "inputs": [],
      "name": "Sponsored",
      "type": "error"
    },
    {
      "inputs": [],
      "name": "SupermajorityBounds",
      "type": "error"
    },
    {
      "inputs": [],
      "name": "TypeBounds",
      "type": "error"
    },
    {
      "inputs": [],
      "name": "Uint32max",
      "type": "error"
    },
    {
      "inputs": [],
      "name": "Uint96max",
      "type": "error"
    },
    {
      "inputs": [],
      "name": "VotingNotEnded",
      "type": "error"
    },
    {
      "inputs": [],
      "name": "VotingPeriodBounds",
      "type": "error"
    },
    {
      "anonymous": false,
      "inputs": [
        {
          "indexed": true,
          "internalType": "address",
          "name": "owner",
          "type": "address"
        },
        {
          "indexed": true,
          "internalType": "address",
          "name": "spender",
          "type": "address"
        },
        {
          "indexed": false,
          "internalType": "uint256",
          "name": "amount",
          "type": "uint256"
        }
      ],
      "name": "Approval",
      "type": "event"
    },
    {
      "anonymous": false,
      "inputs": [
        {
          "indexed": true,
          "internalType": "address",
          "name": "delegator",
          "type": "address"
        },
        {
          "indexed": true,
          "internalType": "address",
          "name": "fromDelegate",
          "type": "address"
        },
        {
          "indexed": true,
          "internalType": "address",
          "name": "toDelegate",
          "type": "address"
        }
      ],
      "name": "DelegateChanged",
      "type": "event"
    },
    {
      "anonymous": false,
      "inputs": [
        {
          "indexed": true,
          "internalType": "address",
          "name": "delegate",
          "type": "address"
        },
        {
          "indexed": false,
          "internalType": "uint256",
          "name": "previousBalance",
          "type": "uint256"
        },
        {
          "indexed": false,
          "internalType": "uint256",
          "name": "newBalance",
          "type": "uint256"
        }
      ],
      "name": "DelegateVotesChanged",
      "type": "event"
    },
    {
      "anonymous": false,
      "inputs": [
        {
          "indexed": true,
          "internalType": "address",
          "name": "proposer",
          "type": "address"
        },
        {
          "indexed": true,
          "internalType": "uint256",
          "name": "proposal",
          "type": "uint256"
        }
      ],
      "name": "NewProposal",
      "type": "event"
    },
    {
      "anonymous": false,
      "inputs": [
        {
          "indexed": false,
          "internalType": "bool",
          "name": "paused",
          "type": "bool"
        }
      ],
      "name": "PauseFlipped",
      "type": "event"
    },
    {
      "anonymous": false,
      "inputs": [
        {
          "indexed": true,
          "internalType": "address",
          "name": "proposer",
          "type": "address"
        },
        {
          "indexed": true,
          "internalType": "uint256",
          "name": "proposal",
          "type": "uint256"
        }
      ],
      "name": "ProposalCancelled",
      "type": "event"
    },
    {
      "anonymous": false,
      "inputs": [
        {
          "indexed": true,
          "internalType": "uint256",
          "name": "proposal",
          "type": "uint256"
        },
        {
          "indexed": true,
          "internalType": "bool",
          "name": "didProposalPass",
          "type": "bool"
        }
      ],
      "name": "ProposalProcessed",
      "type": "event"
    },
    {
      "anonymous": false,
      "inputs": [
        {
          "indexed": true,
          "internalType": "address",
          "name": "sponsor",
          "type": "address"
        },
        {
          "indexed": true,
          "internalType": "uint256",
          "name": "proposal",
          "type": "uint256"
        }
      ],
      "name": "ProposalSponsored",
      "type": "event"
    },
    {
      "anonymous": false,
      "inputs": [
        {
          "indexed": true,
          "internalType": "address",
          "name": "from",
          "type": "address"
        },
        {
          "indexed": true,
          "internalType": "address",
          "name": "to",
          "type": "address"
        },
        {
          "indexed": false,
          "internalType": "uint256",
          "name": "amount",
          "type": "uint256"
        }
      ],
      "name": "Transfer",
      "type": "event"
    },
    {
      "anonymous": false,
      "inputs": [
        {
          "indexed": true,
          "internalType": "address",
          "name": "voter",
          "type": "address"
        },
        {
          "indexed": true,
          "internalType": "uint256",
          "name": "proposal",
          "type": "uint256"
        },
        {
          "indexed": true,
          "internalType": "bool",
          "name": "approve",
          "type": "bool"
        }
      ],
      "name": "VoteCast",
      "type": "event"
    },
    {
      "inputs": [],
      "name": "DELEGATION_TYPEHASH",
      "outputs": [
        {
          "internalType": "bytes32",
          "name": "",
          "type": "bytes32"
        }
      ],
      "stateMutability": "view",
      "type": "function"
    },
    {
      "inputs": [],
      "name": "DOMAIN_SEPARATOR",
      "outputs": [
        {
          "internalType": "bytes32",
          "name": "",
          "type": "bytes32"
        }
      ],
      "stateMutability": "view",
      "type": "function"
    },
    {
      "inputs": [],
      "name": "PERMIT_TYPEHASH",
      "outputs": [
        {
          "internalType": "bytes32",
          "name": "",
          "type": "bytes32"
        }
      ],
      "stateMutability": "view",
      "type": "function"
    },
    {
      "inputs": [],
      "name": "VOTE_HASH",
      "outputs": [
        {
          "internalType": "bytes32",
          "name": "",
          "type": "bytes32"
        }
      ],
      "stateMutability": "view",
      "type": "function"
    },
    {
      "inputs": [
        {
          "internalType": "address",
          "name": "",
          "type": "address"
        },
        {
          "internalType": "address",
          "name": "",
          "type": "address"
        }
      ],
      "name": "allowance",
      "outputs": [
        {
          "internalType": "uint256",
          "name": "",
          "type": "uint256"
        }
      ],
      "stateMutability": "view",
      "type": "function"
    },
    {
      "inputs": [
        {
          "internalType": "address",
          "name": "spender",
          "type": "address"
        },
        {
          "internalType": "uint256",
          "name": "amount",
          "type": "uint256"
        }
      ],
      "name": "approve",
      "outputs": [
        {
          "internalType": "bool",
          "name": "",
          "type": "bool"
        }
      ],
      "stateMutability": "nonpayable",
      "type": "function"
    },
    {
      "inputs": [
        {
          "internalType": "address",
          "name": "",
          "type": "address"
        }
      ],
      "name": "balanceOf",
      "outputs": [
        {
          "internalType": "uint256",
          "name": "",
          "type": "uint256"
        }
      ],
      "stateMutability": "view",
      "type": "function"
    },
    {
      "inputs": [
        {
          "internalType": "address",
          "name": "extension",
          "type": "address"
        },
        {
          "internalType": "uint256",
          "name": "amount",
          "type": "uint256"
        },
        {
          "internalType": "bytes",
          "name": "extensionData",
          "type": "bytes"
        }
      ],
      "name": "callExtension",
      "outputs": [
        {
          "internalType": "bool",
          "name": "mint",
          "type": "bool"
        },
        {
          "internalType": "uint256",
          "name": "amountOut",
          "type": "uint256"
        }
      ],
      "stateMutability": "payable",
      "type": "function"
    },
    {
      "inputs": [
        {
          "internalType": "uint256",
          "name": "proposal",
          "type": "uint256"
        }
      ],
      "name": "cancelProposal",
      "outputs": [],
      "stateMutability": "nonpayable",
      "type": "function"
    },
    {
      "inputs": [
        {
          "internalType": "address",
          "name": "",
          "type": "address"
        },
        {
          "internalType": "uint256",
          "name": "",
          "type": "uint256"
        }
      ],
      "name": "checkpoints",
      "outputs": [
        {
          "internalType": "uint32",
          "name": "fromTimestamp",
          "type": "uint32"
        },
        {
          "internalType": "uint96",
          "name": "votes",
          "type": "uint96"
        }
      ],
      "stateMutability": "view",
      "type": "function"
    },
    {
      "inputs": [],
      "name": "decimals",
      "outputs": [
        {
          "internalType": "uint8",
          "name": "",
          "type": "uint8"
        }
      ],
      "stateMutability": "view",
      "type": "function"
    },
    {
      "inputs": [
        {
          "internalType": "address",
          "name": "delegatee",
          "type": "address"
        }
      ],
      "name": "delegate",
      "outputs": [],
      "stateMutability": "nonpayable",
      "type": "function"
    },
    {
      "inputs": [
        {
          "internalType": "address",
          "name": "delegatee",
          "type": "address"
        },
        {
          "internalType": "uint256",
          "name": "nonce",
          "type": "uint256"
        },
        {
          "internalType": "uint256",
          "name": "deadline",
          "type": "uint256"
        },
        {
          "internalType": "uint8",
          "name": "v",
          "type": "uint8"
        },
        {
          "internalType": "bytes32",
          "name": "r",
          "type": "bytes32"
        },
        {
          "internalType": "bytes32",
          "name": "s",
          "type": "bytes32"
        }
      ],
      "name": "delegateBySig",
      "outputs": [],
      "stateMutability": "nonpayable",
      "type": "function"
    },
    {
      "inputs": [
        {
          "internalType": "address",
          "name": "delegator",
          "type": "address"
        }
      ],
      "name": "delegates",
      "outputs": [
        {
          "internalType": "address",
          "name": "",
          "type": "address"
        }
      ],
      "stateMutability": "view",
      "type": "function"
    },
    {
      "inputs": [],
      "name": "docs",
      "outputs": [
        {
          "internalType": "string",
          "name": "",
          "type": "string"
        }
      ],
      "stateMutability": "view",
      "type": "function"
    },
    {
      "inputs": [
        {
          "internalType": "address",
          "name": "",
          "type": "address"
        }
      ],
      "name": "extensions",
      "outputs": [
        {
          "internalType": "bool",
          "name": "",
          "type": "bool"
        }
      ],
      "stateMutability": "view",
      "type": "function"
    },
    {
      "inputs": [
        {
          "internalType": "address",
          "name": "account",
          "type": "address"
        }
      ],
      "name": "getCurrentVotes",
      "outputs": [
        {
          "internalType": "uint256",
          "name": "",
          "type": "uint256"
        }
      ],
      "stateMutability": "view",
      "type": "function"
    },
    {
      "inputs": [
        {
          "internalType": "address",
          "name": "account",
          "type": "address"
        },
        {
          "internalType": "uint256",
          "name": "timestamp",
          "type": "uint256"
        }
      ],
      "name": "getPriorVotes",
      "outputs": [
        {
          "internalType": "uint96",
          "name": "",
          "type": "uint96"
        }
      ],
      "stateMutability": "view",
      "type": "function"
    },
    {
      "inputs": [
        {
          "internalType": "uint256",
          "name": "proposal",
          "type": "uint256"
        }
      ],
      "name": "getProposalArrays",
      "outputs": [
        {
          "internalType": "address[]",
          "name": "accounts",
          "type": "address[]"
        },
        {
          "internalType": "uint256[]",
          "name": "amounts",
          "type": "uint256[]"
        },
        {
          "internalType": "bytes[]",
          "name": "payloads",
          "type": "bytes[]"
        }
      ],
      "stateMutability": "view",
      "type": "function"
    },
    {
      "inputs": [
        {
          "internalType": "string",
          "name": "name_",
          "type": "string"
        },
        {
          "internalType": "string",
          "name": "symbol_",
          "type": "string"
        },
        {
          "internalType": "string",
          "name": "docs_",
          "type": "string"
        },
        {
          "internalType": "bool",
          "name": "paused_",
          "type": "bool"
        },
        {
          "internalType": "address[]",
          "name": "extensions_",
          "type": "address[]"
        },
        {
          "internalType": "bytes[]",
          "name": "extensionsData_",
          "type": "bytes[]"
        },
        {
          "internalType": "address[]",
          "name": "voters_",
          "type": "address[]"
        },
        {
          "internalType": "uint256[]",
          "name": "shares_",
          "type": "uint256[]"
        },
        {
          "internalType": "uint32",
          "name": "votingPeriod_",
          "type": "uint32"
        },
        {
          "internalType": "uint8[13]",
          "name": "govSettings_",
          "type": "uint8[13]"
        }
      ],
      "name": "init",
      "outputs": [],
      "stateMutability": "payable",
      "type": "function"
    },
    {
      "inputs": [
        {
          "internalType": "address",
          "name": "",
          "type": "address"
        }
      ],
      "name": "lastYesVote",
      "outputs": [
        {
          "internalType": "uint256",
          "name": "",
          "type": "uint256"
        }
      ],
      "stateMutability": "view",
      "type": "function"
    },
    {
      "inputs": [
        {
          "internalType": "bytes[]",
          "name": "data",
          "type": "bytes[]"
        }
      ],
      "name": "multicall",
      "outputs": [
        {
          "internalType": "bytes[]",
          "name": "results",
          "type": "bytes[]"
        }
      ],
      "stateMutability": "nonpayable",
      "type": "function"
    },
    {
      "inputs": [],
      "name": "name",
      "outputs": [
        {
          "internalType": "string",
          "name": "",
          "type": "string"
        }
      ],
      "stateMutability": "view",
      "type": "function"
    },
    {
      "inputs": [
        {
          "internalType": "address",
          "name": "",
          "type": "address"
        }
      ],
      "name": "nonces",
      "outputs": [
        {
          "internalType": "uint256",
          "name": "",
          "type": "uint256"
        }
      ],
      "stateMutability": "view",
      "type": "function"
    },
    {
      "inputs": [
        {
          "internalType": "address",
          "name": "",
          "type": "address"
        }
      ],
      "name": "numCheckpoints",
      "outputs": [
        {
          "internalType": "uint256",
          "name": "",
          "type": "uint256"
        }
      ],
      "stateMutability": "view",
      "type": "function"
    },
    {
      "inputs": [
        {
          "internalType": "address",
          "name": "",
          "type": "address"
        },
        {
          "internalType": "address",
          "name": "",
          "type": "address"
        },
        {
          "internalType": "uint256[]",
          "name": "",
          "type": "uint256[]"
        },
        {
          "internalType": "uint256[]",
          "name": "",
          "type": "uint256[]"
        },
        {
          "internalType": "bytes",
          "name": "",
          "type": "bytes"
        }
      ],
      "name": "onERC1155BatchReceived",
      "outputs": [
        {
          "internalType": "bytes4",
          "name": "sig",
          "type": "bytes4"
        }
      ],
      "stateMutability": "pure",
      "type": "function"
    },
    {
      "inputs": [
        {
          "internalType": "address",
          "name": "",
          "type": "address"
        },
        {
          "internalType": "address",
          "name": "",
          "type": "address"
        },
        {
          "internalType": "uint256",
          "name": "",
          "type": "uint256"
        },
        {
          "internalType": "uint256",
          "name": "",
          "type": "uint256"
        },
        {
          "internalType": "bytes",
          "name": "",
          "type": "bytes"
        }
      ],
      "name": "onERC1155Received",
      "outputs": [
        {
          "internalType": "bytes4",
          "name": "sig",
          "type": "bytes4"
        }
      ],
      "stateMutability": "pure",
      "type": "function"
    },
    {
      "inputs": [
        {
          "internalType": "address",
          "name": "",
          "type": "address"
        },
        {
          "internalType": "address",
          "name": "",
          "type": "address"
        },
        {
          "internalType": "uint256",
          "name": "",
          "type": "uint256"
        },
        {
          "internalType": "bytes",
          "name": "",
          "type": "bytes"
        }
      ],
      "name": "onERC721Received",
      "outputs": [
        {
          "internalType": "bytes4",
          "name": "sig",
          "type": "bytes4"
        }
      ],
      "stateMutability": "pure",
      "type": "function"
    },
    {
      "inputs": [],
      "name": "paused",
      "outputs": [
        {
          "internalType": "bool",
          "name": "",
          "type": "bool"
        }
      ],
      "stateMutability": "view",
      "type": "function"
    },
    {
      "inputs": [
        {
          "internalType": "address",
          "name": "owner",
          "type": "address"
        },
        {
          "internalType": "address",
          "name": "spender",
          "type": "address"
        },
        {
          "internalType": "uint256",
          "name": "value",
          "type": "uint256"
        },
        {
          "internalType": "uint256",
          "name": "deadline",
          "type": "uint256"
        },
        {
          "internalType": "uint8",
          "name": "v",
          "type": "uint8"
        },
        {
          "internalType": "bytes32",
          "name": "r",
          "type": "bytes32"
        },
        {
          "internalType": "bytes32",
          "name": "s",
          "type": "bytes32"
        }
      ],
      "name": "permit",
      "outputs": [],
      "stateMutability": "nonpayable",
      "type": "function"
    },
    {
      "inputs": [
        {
          "internalType": "uint256",
          "name": "proposal",
          "type": "uint256"
        }
      ],
      "name": "processProposal",
      "outputs": [
        {
          "internalType": "bool",
          "name": "didProposalPass",
          "type": "bool"
        },
        {
          "internalType": "bytes[]",
          "name": "results",
          "type": "bytes[]"
        }
      ],
      "stateMutability": "nonpayable",
      "type": "function"
    },
    {
      "inputs": [],
      "name": "proposalCount",
      "outputs": [
        {
          "internalType": "uint256",
          "name": "",
          "type": "uint256"
        }
      ],
      "stateMutability": "view",
      "type": "function"
    },
    {
      "inputs": [
        {
          "internalType": "uint256",
          "name": "",
          "type": "uint256"
        }
      ],
      "name": "proposalStates",
      "outputs": [
        {
          "internalType": "bool",
          "name": "passed",
          "type": "bool"
        },
        {
          "internalType": "bool",
          "name": "processed",
          "type": "bool"
        }
      ],
      "stateMutability": "view",
      "type": "function"
    },
    {
      "inputs": [
        {
          "internalType": "enum KaliDAOflat.ProposalType",
          "name": "",
          "type": "uint8"
        }
      ],
      "name": "proposalVoteTypes",
      "outputs": [
        {
          "internalType": "enum KaliDAOflat.VoteType",
          "name": "",
          "type": "uint8"
        }
      ],
      "stateMutability": "view",
      "type": "function"
    },
    {
      "inputs": [
        {
          "internalType": "uint256",
          "name": "",
          "type": "uint256"
        }
      ],
      "name": "proposals",
      "outputs": [
        {
          "internalType": "enum KaliDAOflat.ProposalType",
          "name": "proposalType",
          "type": "uint8"
        },
        {
          "internalType": "string",
          "name": "description",
          "type": "string"
        },
        {
          "internalType": "uint256",
          "name": "prevProposal",
          "type": "uint256"
        },
        {
          "internalType": "uint96",
          "name": "yesVotes",
          "type": "uint96"
        },
        {
          "internalType": "uint96",
          "name": "noVotes",
          "type": "uint96"
        },
        {
          "internalType": "uint32",
          "name": "creationTime",
          "type": "uint32"
        },
        {
          "internalType": "address",
          "name": "proposer",
          "type": "address"
        }
      ],
      "stateMutability": "view",
      "type": "function"
    },
    {
      "inputs": [
        {
          "internalType": "enum KaliDAOflat.ProposalType",
          "name": "proposalType",
          "type": "uint8"
        },
        {
          "internalType": "string",
          "name": "description",
          "type": "string"
        },
        {
          "internalType": "address[]",
          "name": "accounts",
          "type": "address[]"
        },
        {
          "internalType": "uint256[]",
          "name": "amounts",
          "type": "uint256[]"
        },
        {
          "internalType": "bytes[]",
          "name": "payloads",
          "type": "bytes[]"
        }
      ],
      "name": "propose",
      "outputs": [
        {
          "internalType": "uint256",
          "name": "proposal",
          "type": "uint256"
        }
      ],
      "stateMutability": "nonpayable",
      "type": "function"
    },
    {
      "inputs": [],
      "name": "quorum",
      "outputs": [
        {
          "internalType": "uint8",
          "name": "",
          "type": "uint8"
        }
      ],
      "stateMutability": "view",
      "type": "function"
    },
    {
      "inputs": [
        {
          "internalType": "uint256",
          "name": "proposal",
          "type": "uint256"
        }
      ],
      "name": "sponsorProposal",
      "outputs": [],
      "stateMutability": "nonpayable",
      "type": "function"
    },
    {
      "inputs": [],
      "name": "supermajority",
      "outputs": [
        {
          "internalType": "uint8",
          "name": "",
          "type": "uint8"
        }
      ],
      "stateMutability": "view",
      "type": "function"
    },
    {
      "inputs": [],
      "name": "symbol",
      "outputs": [
        {
          "internalType": "string",
          "name": "",
          "type": "string"
        }
      ],
      "stateMutability": "view",
      "type": "function"
    },
    {
      "inputs": [],
      "name": "totalSupply",
      "outputs": [
        {
          "internalType": "uint256",
          "name": "",
          "type": "uint256"
        }
      ],
      "stateMutability": "view",
      "type": "function"
    },
    {
      "inputs": [
        {
          "internalType": "address",
          "name": "to",
          "type": "address"
        },
        {
          "internalType": "uint256",
          "name": "amount",
          "type": "uint256"
        }
      ],
      "name": "transfer",
      "outputs": [
        {
          "internalType": "bool",
          "name": "",
          "type": "bool"
        }
      ],
      "stateMutability": "nonpayable",
      "type": "function"
    },
    {
      "inputs": [
        {
          "internalType": "address",
          "name": "from",
          "type": "address"
        },
        {
          "internalType": "address",
          "name": "to",
          "type": "address"
        },
        {
          "internalType": "uint256",
          "name": "amount",
          "type": "uint256"
        }
      ],
      "name": "transferFrom",
      "outputs": [
        {
          "internalType": "bool",
          "name": "",
          "type": "bool"
        }
      ],
      "stateMutability": "nonpayable",
      "type": "function"
    },
    {
      "inputs": [
        {
          "internalType": "uint256",
          "name": "proposal",
          "type": "uint256"
        },
        {
          "internalType": "bool",
          "name": "approve",
          "type": "bool"
        }
      ],
      "name": "vote",
      "outputs": [],
      "stateMutability": "nonpayable",
      "type": "function"
    },
    {
      "inputs": [
        {
          "internalType": "address",
          "name": "signer",
          "type": "address"
        },
        {
          "internalType": "uint256",
          "name": "proposal",
          "type": "uint256"
        },
        {
          "internalType": "bool",
          "name": "approve",
          "type": "bool"
        },
        {
          "internalType": "uint8",
          "name": "v",
          "type": "uint8"
        },
        {
          "internalType": "bytes32",
          "name": "r",
          "type": "bytes32"
        },
        {
          "internalType": "bytes32",
          "name": "s",
          "type": "bytes32"
        }
      ],
      "name": "voteBySig",
      "outputs": [],
      "stateMutability": "nonpayable",
      "type": "function"
    },
    {
      "inputs": [
        {
          "internalType": "uint256",
          "name": "",
          "type": "uint256"
        },
        {
          "internalType": "address",
          "name": "",
          "type": "address"
        }
      ],
      "name": "voted",
      "outputs": [
        {
          "internalType": "bool",
          "name": "",
          "type": "bool"
        }
      ],
      "stateMutability": "view",
      "type": "function"
    },
    {
      "inputs": [],
      "name": "votingPeriod",
      "outputs": [
        {
          "internalType": "uint32",
          "name": "",
          "type": "uint32"
        }
      ],
      "stateMutability": "view",
      "type": "function"
    },
    {
      "stateMutability": "payable",
      "type": "receive"
    }
  ],
  "bytecode": "0x60806040526001600c5534801561001557600080fd5b5061574580620000266000396000f3fe60806040526004361061030c5760003560e01c80636fcfff451161019a578063b4b5ea57116100e1578063da35c6641161008a578063e63bc62d11610064578063e63bc62d14610ad0578063e7a324dc14610afe578063f23a6e6114610b3257600080fd5b8063da35c66414610a62578063dd62ed3e14610a78578063e0a8f6f514610ab057600080fd5b8063c3cda520116100bb578063c3cda52014610a02578063c9d27afe14610a22578063d505accf14610a4257600080fd5b8063b4b5ea571461096a578063b9a08bd71461098a578063bc197c81146109ba57600080fd5b80637ecebe00116101435780639b4a89ce1161011d5780639b4a89ce146108fd578063a9059cbb1461091d578063ac9650d81461093d57600080fd5b80637ecebe001461089b57806395d89b41146108c85780639746d940146108dd57600080fd5b806372737773116101745780637273777314610817578063782d6fe11461082a5780637867f7271461086757600080fd5b80636fcfff451461078057806370a08231146107ad57806371cda63b146107da57600080fd5b806330adf81f1161025e5780635b1d1c1f116102075780635c975abb116101e15780635c975abb146106e757806366ee13b3146107015780636a74effc1461075157600080fd5b80635b1d1c1f1461068f5780635c19a95c146106a45780635c31f220146106c457600080fd5b806336ceb11a1161023857806336ceb11a146105f25780635277b4ae1461061c578063587cde1e1461065757600080fd5b806330adf81f14610594578063313ce567146105c85780633644e515146105dd57600080fd5b8063150b7a02116102c05780631a9f05971161029a5780631a9f05971461052557806323b872dd14610547578063255c87bf1461056757600080fd5b8063150b7a02146104575780631703a018146104cd57806318160ddd1461050157600080fd5b806306fdde03116102f157806306fdde0314610386578063095ea7b3146103a85780630cdfebfa146103d857600080fd5b8063013cf08b1461031857806302a251a31461035457600080fd5b3661031357005b600080fd5b34801561032457600080fd5b50610338610333366004614726565b610b78565b60405161034b97969594939291906147b1565b60405180910390f35b34801561036057600080fd5b506010546103719063ffffffff1681565b60405163ffffffff909116815260200161034b565b34801561039257600080fd5b5061039b610c6d565b60405161034b9190614823565b3480156103b457600080fd5b506103c86103c3366004614852565b610cfb565b604051901515815260200161034b565b3480156103e457600080fd5b5061042e6103f3366004614852565b600a60209081526000928352604080842090915290825290205463ffffffff81169064010000000090046bffffffffffffffffffffffff1682565b6040805163ffffffff90931683526bffffffffffffffffffffffff90911660208301520161034b565b34801561046357600080fd5b5061049c6104723660046148c5565b507f150b7a0200000000000000000000000000000000000000000000000000000000949350505050565b6040517fffffffff00000000000000000000000000000000000000000000000000000000909116815260200161034b565b3480156104d957600080fd5b506010546104ef90640100000000900460ff1681565b60405160ff909116815260200161034b565b34801561050d57600080fd5b5061051760025481565b60405190815260200161034b565b34801561053157600080fd5b5061054561054036600461495e565b610d68565b005b34801561055357600080fd5b506103c86105623660046149bf565b610f1c565b34801561057357600080fd5b506105176105823660046149fb565b60166020526000908152604090205481565b3480156105a057600080fd5b506105177f6e71edae12b1b97f4d1f60370fef10105fa2faae0126114a169c64845d6126c981565b3480156105d457600080fd5b506104ef601281565b3480156105e957600080fd5b5061051761107f565b610605610600366004614a16565b61109e565b60408051921515835260208301919091520161034b565b34801561062857600080fd5b506103c8610637366004614a70565b601560209081526000928352604080842090915290825290205460ff1681565b34801561066357600080fd5b506106776106723660046149fb565b61123e565b6040516001600160a01b03909116815260200161034b565b34801561069b57600080fd5b5061039b61126e565b3480156106b057600080fd5b506105456106bf3660046149fb565b61127b565b3480156106d057600080fd5b506010546104ef9065010000000000900460ff1681565b3480156106f357600080fd5b506008546103c89060ff1681565b34801561070d57600080fd5b5061073a61071c366004614726565b60136020526000908152604090205460ff8082169161010090041682565b60408051921515835290151560208301520161034b565b34801561075d57600080fd5b5061077161076c366004614726565b611288565b60405161034b93929190614aee565b34801561078c57600080fd5b5061051761079b3660046149fb565b600b6020526000908152604090205481565b3480156107b957600080fd5b506105176107c83660046149fb565b60036020526000908152604090205481565b3480156107e657600080fd5b5061080a6107f5366004614b94565b60146020526000908152604090205460ff1681565b60405161034b9190614baf565b610545610825366004614e9d565b61143f565b34801561083657600080fd5b5061084a610845366004614852565b611c5a565b6040516bffffffffffffffffffffffff909116815260200161034b565b34801561087357600080fd5b506105177f39bf2cb78b4fee6e3427925ed40cf1f955458a02ac29c312c7be5fde74d0dd7a81565b3480156108a757600080fd5b506105176108b63660046149fb565b60076020526000908152604090205481565b3480156108d457600080fd5b5061039b611e61565b3480156108e957600080fd5b506105456108f8366004614726565b611e6e565b34801561090957600080fd5b5061051761091836600461502a565b612001565b34801561092957600080fd5b506103c8610938366004614852565b6125d7565b34801561094957600080fd5b5061095d610958366004615101565b6126a2565b60405161034b9190615143565b34801561097657600080fd5b506105176109853660046149fb565b612812565b34801561099657600080fd5b506103c86109a53660046149fb565b60116020526000908152604090205460ff1681565b3480156109c657600080fd5b5061049c6109d5366004615156565b507fbc197c8100000000000000000000000000000000000000000000000000000000979650505050505050565b348015610a0e57600080fd5b50610545610a1d366004615211565b61288b565b348015610a2e57600080fd5b50610545610a3d36600461524f565b612a97565b348015610a4e57600080fd5b50610545610a5d36600461527f565b612ad4565b348015610a6e57600080fd5b50610517600f5481565b348015610a8457600080fd5b50610517610a933660046152e9565b600460209081526000928352604080842090915290825290205481565b348015610abc57600080fd5b50610545610acb366004614726565b612d23565b348015610adc57600080fd5b50610af0610aeb366004614726565b612ebf565b60405161034b929190615313565b348015610b0a57600080fd5b506105177fe48329057bfd03d55e49b547132e39cffd9c1820ad7b9d4c5307691425d15adf81565b348015610b3e57600080fd5b5061049c610b4d366004615336565b507ff23a6e610000000000000000000000000000000000000000000000000000000095945050505050565b6012602052600090815260409020805460018201805460ff9092169291610b9e906153ae565b80601f0160208091040260200160405190810160405280929190818152602001828054610bca906153ae565b8015610c175780601f10610bec57610100808354040283529160200191610c17565b820191906000526020600020905b815481529060010190602001808311610bfa57829003601f168201915b5050505060058301546006840154600790940154929390926bffffffffffffffffffffffff80831693506c0100000000000000000000000083041691600160c01b900463ffffffff16906001600160a01b031687565b60008054610c7a906153ae565b80601f0160208091040260200160405190810160405280929190818152602001828054610ca6906153ae565b8015610cf35780601f10610cc857610100808354040283529160200191610cf3565b820191906000526020600020905b815481529060010190602001808311610cd657829003601f168201915b505050505081565b3360008181526004602090815260408083206001600160a01b038716808552925280832085905551919290917f8c5be1e5ebec7d5bd14f71427d1e84f3dd0314c0f7b2291e5b200ac8c7c3b92590610d569086815260200190565b60405180910390a35060015b92915050565b6002600c541415610d8c5760405163558a1e0360e11b815260040160405180910390fd5b6002600c556000610d9b61107f565b604080517f39bf2cb78b4fee6e3427925ed40cf1f955458a02ac29c312c7be5fde74d0dd7a60208201526001600160a01b038a169181019190915260608101889052861515608082015260a00160405160208183030381529060405280519060200120604051602001610e409291907f190100000000000000000000000000000000000000000000000000000000000081526002810192909252602282015260420190565b60408051601f198184030181528282528051602091820120600080855291840180845281905260ff88169284019290925260608301869052608083018590529092509060019060a0016020604051602081039080840390855afa158015610eab573d6000803e3d6000fd5b505050602060405103519050876001600160a01b0316816001600160a01b031614610f02576040517f8baa579f00000000000000000000000000000000000000000000000000000000815260040160405180910390fd5b610f0d8888886139c8565b50506001600c55505050505050565b60085460009060ff1615610f5c576040517f9e87fac800000000000000000000000000000000000000000000000000000000815260040160405180910390fd5b6001600160a01b038416600090815260046020908152604080832033845290915290205460001914610fc1576001600160a01b038416600090815260046020908152604080832033845290915281208054849290610fbb9084906153ff565b90915550505b6001600160a01b03841660009081526003602052604081208054849290610fe99084906153ff565b90915550506001600160a01b03831660009081526003602052604090208054830190556110276110188561123e565b6110218561123e565b84613c13565b826001600160a01b0316846001600160a01b03167fddf252ad1be2c89b69c2b068fc378daa952ba7f163c4a11628f55a4df523b3ef8460405161106c91815260200190565b60405180910390a35060015b9392505050565b6000600554461461109757611092613d9c565b905090565b5060065490565b6000806002600c5414156110c55760405163558a1e0360e11b815260040160405180910390fd5b6002600c556001600160a01b03861660009081526011602052604090205460ff1615801561110357503360009081526011602052604090205460ff16155b1561113a576040517fcb92848a00000000000000000000000000000000000000000000000000000000815260040160405180910390fd5b3360009081526011602052604081205460ff161561116a57508490508561116384860186615416565b9250611202565b506040517f36ceb11a00000000000000000000000000000000000000000000000000000000815233906001600160a01b038816906336ceb11a9034906111ba9085908b908b908b90600401615433565b604080518083038185885af11580156111d7573d6000803e3d6000fd5b50505050506040513d601f19601f820116820180604052508101906111fc9190615479565b90935091505b821561121d578115611218576112188183613e36565b61122d565b811561122d5761122d8187613ec4565b506001600c55909590945092505050565b6001600160a01b0380821660009081526009602052604081205490911680156112675780611078565b5090919050565b600d8054610c7a906153ae565b6112853382613f4c565b50565b606080606060006012600086815260200190815260200160002090508060020181600301826004018280548060200260200160405190810160405280929190818152602001828054801561130557602002820191906000526020600020905b81546001600160a01b031681526001909101906020018083116112e7575b505050505092508180548060200260200160405190810160405280929190818152602001828054801561135757602002820191906000526020600020905b815481526020019060010190808311611343575b5050505050915080805480602002602001604051908101604052809291908181526020016000905b8282101561142b57838290600052602060002001805461139e906153ae565b80601f01602080910402602001604051908101604052809291908181526020018280546113ca906153ae565b80156114175780601f106113ec57610100808354040283529160200191611417565b820191906000526020600020905b8154815290600101906020018083116113fa57829003601f168201915b50505050508152602001906001019061137f565b50959b949a50919850929650505050505050565b6002600c5414156114635760405163558a1e0360e11b815260040160405180910390fd5b6002600c5586518851146114a3576040517f266c51bb00000000000000000000000000000000000000000000000000000000815260040160405180910390fd5b60105463ffffffff16156114e3576040517f5daa87a000000000000000000000000000000000000000000000000000000000815260040160405180910390fd5b63ffffffff821615806114ff57506301e133808263ffffffff16115b15611536576040517f3777a36d00000000000000000000000000000000000000000000000000000000815260040160405180910390fd5b8051606460ff9091161115611577576040517ffff2d93300000000000000000000000000000000000000000000000000000000815260040160405180910390fd5b6033816001602002015160ff1611158061159b57506064816001602002015160ff16115b156115d2576040517f6ef10f9000000000000000000000000000000000000000000000000000000000815260040160405180910390fd5b6116428c8c8b89898080602002602001604051908101604052809392919081815260200183836020028082843760009201919091525050604080516020808d0282810182019093528c82529093508c92508b918291850190849080828437600092019190915250613ffb92505050565b8751156117695760005b8851811015611767576001601160008b848151811061166d5761166d6154a7565b60200260200101516001600160a01b03166001600160a01b0316815260200190815260200160002060006101000a81548160ff0219169083151502179055508781815181106116be576116be6154a7565b60200260200101515160001461175f578881815181106116e0576116e06154a7565b60200260200101516001600160a01b031663fb0c4441898381518110611708576117086154a7565b60200260200101516040518263ffffffff1660e01b815260040161172c9190614823565b600060405180830381600087803b15801561174657600080fd5b505af115801561175a573d6000803e3d6000fd5b505050505b60010161164c565b505b895161177c90600d9060208d019061448e565b50601080548251602084015160ff90811665010000000000029181166401000000000263ffffffff87167fffffffffffffffffffffffffffffffffffffffffffffffffffffff000000000090941693909317929092177fffffffffffffffffffffffffffffffffffffffffffffffffffff00ffffffffff1617909155604082015116600381111561180f5761180f61473f565b6000805260146020527f4f26c3876aa9f4b92579780beea1161a61f87ebf1ec6ee865b299e447ecba99c805460ff191660018360038111156118535761185361473f565b0217905550606081015160ff1660038111156118715761187161473f565b6001600081905260146020527fb6c61a840592cc84133e4b25bd509abf4659307c57b160799b38490a5aa48f2c8054909160ff19909116908360038111156118bb576118bb61473f565b0217905550608081015160ff1660038111156118d9576118d961473f565b600260005260146020527fa1930aa930426c54c34daad2b9ada7c5d0ef0c96078a3c5bb79f6fa6602c4a7a805460ff1916600183600381111561191e5761191e61473f565b021790555060a081015160ff16600381111561193c5761193c61473f565b6003600081905260146020527f63d87a887046e0430be80fdeb014107d7198c879cbf2cddf39a6df195c86cb388054909160ff199091169060019084908111156119885761198861473f565b021790555060c081015160ff1660038111156119a6576119a661473f565b600460005260146020527f52102136546d97ed3f65ec1070a32935d3048ea12f310d29c378dc9d6555c0d6805460ff191660018360038111156119eb576119eb61473f565b021790555060e081015160ff166003811115611a0957611a0961473f565b600560005260146020527f116126bec5aaa49b347e966c49378cf0c441de9121e306ea3d824584a9615aa2805460ff19166001836003811115611a4e57611a4e61473f565b021790555061010081015160ff166003811115611a6d57611a6d61473f565b600660005260146020527fe1f6b6a5fb7e47dad87547d4b0671e7e995a1dae22fbe5b3b5d10e2a77ed7aff805460ff19166001836003811115611ab257611ab261473f565b021790555061012081015160ff166003811115611ad157611ad161473f565b600760005260146020527f904977a779b22381a36c6463d4166ef55ee8cb3392c83093cb1750f1a00c9d94805460ff19166001836003811115611b1657611b1661473f565b021790555061014081015160ff166003811115611b3557611b3561473f565b600860005260146020527f125fdacc24f94fb724c0c32a4eab75d67204551eb2448dadf875d535a7449726805460ff19166001836003811115611b7a57611b7a61473f565b021790555061016081015160ff166003811115611b9957611b9961473f565b600960005260146020527ff517404d914a19d455440d961937db67771e4bfb0b4293ff6fd7c75855208c19805460ff19166001836003811115611bde57611bde61473f565b021790555061018081015160ff166003811115611bfd57611bfd61473f565b600a60005260146020527f65f9512343925c57130fd77667cb42fc83560c400ede0c87f3de7c6c27cf09a6805460ff19166001836003811115611c4257611c4261473f565b0217905550506001600c555050505050505050505050565b6000814211611c95576040517fb1998e3000000000000000000000000000000000000000000000000000000000815260040160405180910390fd5b6001600160a01b0383166000908152600b602052604090205480611cbd576000915050610d62565b6001600160a01b0384166000908152600a602090815260408083206000198501845290915290205463ffffffff168310611d37576001600160a01b0384166000908152600a60209081526040808320600019909401835292905220546bffffffffffffffffffffffff640100000000909104169050610d62565b6001600160a01b0384166000908152600a6020908152604080832083805290915290205463ffffffff16831015611d72576000915050610d62565b600060001982015b81811115611e1d576001600160a01b0386166000908152600a6020908152604080832060028686030485038085529083529281902081518083019092525463ffffffff81168083526401000000009091046bffffffffffffffffffffffff169282019290925290871415611df857602001519450610d629350505050565b805163ffffffff16871115611e0f57819350611e16565b6001820392505b5050611d7a565b506001600160a01b0385166000908152600a6020908152604080832093835292905220546bffffffffffffffffffffffff6401000000009091041691505092915050565b60018054610c7a906153ae565b6002600c541415611e925760405163558a1e0360e11b815260040160405180910390fd5b6002600c556000818152601260209081526040808320338452600390925290912054611eea576040517f291fc44200000000000000000000000000000000000000000000000000000000815260040160405180910390fd5b60078101546001600160a01b0316611f2e576040517fc3b4ca4300000000000000000000000000000000000000000000000000000000815260040160405180910390fd5b6006810154600160c01b900463ffffffff1615611f77576040517f68e83fd900000000000000000000000000000000000000000000000000000000815260040160405180910390fd5b600e80546005830155829055611f8c426140cb565b60068201805463ffffffff92909216600160c01b027fffffffff00000000ffffffffffffffffffffffffffffffffffffffffffffffff909216919091179055604051829033907fb708f3e57d02b42c1c66c9219454b2e519739ad18a0566a9a71a1e537f1f6e5d90600090a350506001600c55565b60006002600c5414156120275760405163558a1e0360e11b815260040160405180910390fd5b6002600c55858414158061203b5750838214155b15612072576040517f266c51bb00000000000000000000000000000000000000000000000000000000815260040160405180910390fd5b60038a600a8111156120865761208661473f565b1415612107578484600081811061209f5761209f6154a7565b90506020020135600014806120d057506301e13380858560008181106120c7576120c76154a7565b90506020020135115b15612107576040517f3777a36d00000000000000000000000000000000000000000000000000000000815260040160405180910390fd5b60048a600a81111561211b5761211b61473f565b141561217557606485856000818110612136576121366154a7565b905060200201351115612175576040517ffff2d93300000000000000000000000000000000000000000000000000000000815260040160405180910390fd5b60058a600a8111156121895761218961473f565b1415612208576033858560008181106121a4576121a46154a7565b905060200201351115806121d157506064858560008181106121c8576121c86154a7565b90506020020135115b15612208576040517f6ef10f9000000000000000000000000000000000000000000000000000000000815260040160405180910390fd5b60068a600a81111561221c5761221c61473f565b14156122a657600a85856000818110612237576122376154a7565b905060200201351180612263575060038585600181811061225a5761225a6154a7565b90506020020135115b8061226f575060028414155b156122a6576040517f93d8c8b000000000000000000000000000000000000000000000000000000000815260040160405180910390fd5b336000908152600360205260408120541515806122d257503360009081526011602052604090205460ff165b156122db575060015b600f805460010190819055604080516101408101909152909250808c600a8111156123085761230861473f565b81526020018b8b8080601f0160208091040260200160405190810160405280939291908181526020018383808284376000920191909152505050908252506040805160208b810282810182019093528b82529283019290918c918c91829185019084908082843760009201919091525050509082525060408051602089810282810182019093528982529283019290918a918a9182918501908490808284376000920191909152505050908252506020016123c385876154bd565b8152602001826123d45760006123d8565b600e545b81526000602082018190526040820152606001826123f7576000612400565b612400426140cb565b63ffffffff16815233602091820152600084815260129091526040902081518154829060ff1916600183600a81111561243b5761243b61473f565b02179055506020828101518051612458926001850192019061448e565b506040820151805161247491600284019160209091019061450e565b5060608201518051612490916003840191602090910190614570565b50608082015180516124ac9160048401916020909101906145aa565b5060a0820151600582015560c082015160068201805460e085015161010086015163ffffffff16600160c01b027fffffffff00000000ffffffffffffffffffffffffffffffffffffffffffffffff6bffffffffffffffffffffffff9283166c01000000000000000000000000027fffffffffffffffff0000000000000000000000000000000000000000000000009094169290951691909117919091179290921691909117905561012090910151600790910180546001600160a01b0390921673ffffffffffffffffffffffffffffffffffffffff19909216919091179055801561259757600e8290555b604051829033907f8dfa4a39b973cacc42c5d14d9461d66fd1fda5ea696f7d2a3c44fd9d7f11d04f90600090a3506001600c559998505050505050505050565b60085460009060ff1615612617576040517f9e87fac800000000000000000000000000000000000000000000000000000000815260040160405180910390fd5b33600090815260036020526040812080548492906126369084906153ff565b90915550506001600160a01b03831660009081526003602052604090208054830190556126656110183361123e565b6040518281526001600160a01b0384169033907fddf252ad1be2c89b69c2b068fc378daa952ba7f163c4a11628f55a4df523b3ef90602001610d56565b60608167ffffffffffffffff8111156126bd576126bd614bc9565b6040519080825280602002602001820160405280156126f057816020015b60608152602001906001900390816126db5790505b50905060005b8281101561280b5760008030868685818110612714576127146154a7565b905060200281019061272691906154ca565b60405161273492919061552f565b600060405180830381855af49150503d806000811461276f576040519150601f19603f3d011682016040523d82523d6000602084013e612774565b606091505b5091509150816127e35760448151101561278d57600080fd5b600481019050808060200190518101906127a7919061553f565b6040517f08c379a00000000000000000000000000000000000000000000000000000000081526004016127da9190614823565b60405180910390fd5b808484815181106127f6576127f66154a7565b602090810291909101015250506001016126f6565b5092915050565b6001600160a01b0381166000908152600b602052604081205480612837576000612876565b6001600160a01b0383166000908152600a602090815260408083206000198501845290915290205464010000000090046bffffffffffffffffffffffff165b6bffffffffffffffffffffffff169392505050565b834211156128c5576040517f0819bdcd00000000000000000000000000000000000000000000000000000000815260040160405180910390fd5b604080517fe48329057bfd03d55e49b547132e39cffd9c1820ad7b9d4c5307691425d15adf60208201526001600160a01b03881691810191909152606081018690526080810185905260009060a001604051602081830303815290604052805190602001209050600061293661107f565b6040517f1901000000000000000000000000000000000000000000000000000000000000602082015260228101919091526042810183905260620160408051601f198184030181528282528051602091820120600080855291840180845281905260ff89169284019290925260608301879052608083018690529092509060019060a0016020604051602081039080840390855afa1580156129dc573d6000803e3d6000fd5b5050604051601f1901519150506001600160a01b038116612a29576040517fe99d5ac500000000000000000000000000000000000000000000000000000000815260040160405180910390fd5b6001600160a01b03811660009081526007602052604090208054600181019091558814612a82576040517f756688fe00000000000000000000000000000000000000000000000000000000815260040160405180910390fd5b612a8c818a613f4c565b505050505050505050565b6002600c541415612abb5760405163558a1e0360e11b815260040160405180910390fd5b6002600c55612acb3383836139c8565b50506001600c55565b83421115612b0e576040517f0819bdcd00000000000000000000000000000000000000000000000000000000815260040160405180910390fd5b6000612b1861107f565b6001600160a01b0389811660008181526007602090815260409182902080546001810190915582517f6e71edae12b1b97f4d1f60370fef10105fa2faae0126114a169c64845d6126c98184015280840194909452938c166060840152608083018b905260a083019390935260c08083018a90528151808403909101815260e0830190915280519201919091207f19010000000000000000000000000000000000000000000000000000000000006101008301526101028201929092526101228101919091526101420160408051601f198184030181528282528051602091820120600080855291840180845281905260ff88169284019290925260608301869052608083018590529092509060019060a0016020604051602081039080840390855afa158015612c4c573d6000803e3d6000fd5b5050604051601f1901519150506001600160a01b0381161580612c815750886001600160a01b0316816001600160a01b031614155b15612cb8576040517f8baa579f00000000000000000000000000000000000000000000000000000000815260040160405180910390fd5b6001600160a01b0390811660009081526004602090815260408083208b8516808552908352928190208a905551898152919350918a16917f8c5be1e5ebec7d5bd14f71427d1e84f3dd0314c0f7b2291e5b200ac8c7c3b925910160405180910390a350505050505050565b6002600c541415612d475760405163558a1e0360e11b815260040160405180910390fd5b6002600c55600081815260126020526040902060078101546001600160a01b03163314612da0576040517f7d1b73b900000000000000000000000000000000000000000000000000000000815260040160405180910390fd5b6006810154600160c01b900463ffffffff1615612de9576040517f68e83fd900000000000000000000000000000000000000000000000000000000815260040160405180910390fd5b6000828152601260205260408120805460ff1916815590612e0d6001830182614603565b612e1b60028301600061463d565b612e2960038301600061463d565b612e3760048301600061465b565b506000600582018190556006820180547fffffffff000000000000000000000000000000000000000000000000000000001690556007909101805473ffffffffffffffffffffffffffffffffffffffff19169055604051839133917f5d423f6a55211a90b8438786aa7edfa40d3eef381b6aae048b52daf814c164629190a350506001600c55565b600060606002600c541415612ee75760405163558a1e0360e11b815260040160405180910390fd5b6002600c5560008381526012602052604081208054909190601490829060ff16600a811115612f1857612f1861473f565b600a811115612f2957612f2961473f565b8152602081019190915260400160002054600683015460ff9091169150600160c01b900463ffffffff16612f89576040517fc3b4ca4300000000000000000000000000000000000000000000000000000000815260040160405180910390fd5b601054600683015463ffffffff918216600160c01b909104821601164211612fdd576040517f7f8617a200000000000000000000000000000000000000000000000000000000815260040160405180910390fd5b6009825460ff16600a811115612ff557612ff561473f565b14613055576005820154600090815260126020526040902060060154600160c01b900463ffffffff1615613055576040517f8795d9c100000000000000000000000000000000000000000000000000000000815260040160405180910390fd5b60068201546130879082906bffffffffffffffffffffffff808216916c0100000000000000000000000090041661410f565b935083156138b6576000825460ff16600a8111156130a7576130a761473f565b141561311c5760005b600283015481101561311a576131128360020182815481106130d4576130d46154a7565b6000918252602090912001546003850180546001600160a01b039092169184908110613102576131026154a7565b9060005260206000200154613e36565b6001016130b0565b505b6001825460ff16600a8111156131345761313461473f565b14156131a95760005b60028301548110156131a75761319f836002018281548110613161576131616154a7565b6000918252602090912001546003850180546001600160a01b03909216918490811061318f5761318f6154a7565b9060005260206000200154613ec4565b60010161313d565b505b6002825460ff16600a8111156131c1576131c161473f565b14156133145760005b600283015481101561331257600283015467ffffffffffffffff8111156131f3576131f3614bc9565b60405190808252806020026020018201604052801561322657816020015b60608152602001906001900390816132115790505b5093506000836002018281548110613240576132406154a7565b6000918252602090912001546003850180546001600160a01b03909216918490811061326e5761326e6154a7565b906000526020600020015485600401848154811061328e5761328e6154a7565b906000526020600020016040516132a59190615625565b60006040518083038185875af1925050503d80600081146132e2576040519150601f19603f3d011682016040523d82523d6000602084013e6132e7565b606091505b50915050808583815181106132fe576132fe6154a7565b6020908102919091010152506001016131ca565b505b6003825460ff16600a81111561332c5761332c61473f565b14156133b15781600301600081548110613348576133486154a7565b90600052602060002001546000146133b15781600301600081548110613370576133706154a7565b600091825260209091200154601080547fffffffffffffffffffffffffffffffffffffffffffffffffffffffff000000001663ffffffff9092169190911790555b6004825460ff16600a8111156133c9576133c961473f565b141561343357816003016000815481106133e5576133e56154a7565b9060005260206000200154600014613433578160030160008154811061340d5761340d6154a7565b9060005260206000200154601060046101000a81548160ff021916908360ff1602179055505b6005825460ff16600a81111561344b5761344b61473f565b14156134b55781600301600081548110613467576134676154a7565b90600052602060002001546000146134b5578160030160008154811061348f5761348f6154a7565b9060005260206000200154601060056101000a81548160ff021916908360ff1602179055505b6006825460ff16600a8111156134cd576134cd61473f565b141561358d57816003016001815481106134e9576134e96154a7565b906000526020600020015460038111156135055761350561473f565b601460008460030160008154811061351f5761351f6154a7565b9060005260206000200154600a81111561353b5761353b61473f565b600a81111561354c5761354c61473f565b600a81111561355d5761355d61473f565b81526020810191909152604001600020805460ff191660018360038111156135875761358761473f565b02179055505b6007825460ff16600a8111156135a5576135a561473f565b14156135b3576135b361423f565b6008825460ff16600a8111156135cb576135cb61473f565b141561377b5760005b6002830154811015613779578260030181815481106135f5576135f56154a7565b906000526020600020015460001461369d5760116000846002018381548110613620576136206154a7565b60009182526020808320909101546001600160a01b0316835282019290925260400181205460028501805460ff909216159260119290919085908110613668576136686154a7565b6000918252602080832091909101546001600160a01b031683528201929092526040019020805460ff19169115159190911790555b8260040181815481106136b2576136b26154a7565b9060005260206000200180546136c7906153ae565b159050613771578260020181815481106136e3576136e36154a7565b6000918252602090912001546004840180546001600160a01b039092169163fb0c4441919084908110613718576137186154a7565b906000526020600020016040518263ffffffff1660e01b815260040161373e9190615631565b600060405180830381600087803b15801561375857600080fd5b505af115801561376c573d6000803e3d6000fd5b505050505b6001016135d4565b505b6009825460ff16600a8111156137935761379361473f565b141561385f5760126000836003016000815481106137b3576137b36154a7565b600091825260208083209091015483528201929092526040018120805460ff19168155906137e46001830182614603565b6137f260028301600061463d565b61380060038301600061463d565b61380e60048301600061465b565b50600060058201556006810180547fffffffff00000000000000000000000000000000000000000000000000000000169055600701805473ffffffffffffffffffffffffffffffffffffffff191690555b600a825460ff16600a8111156138775761387761473f565b141561389c5781600101600d90805461388f906153ae565b61389a929190614679565b505b6000858152601360205260409020805460ff191660011790555b6000858152601260205260408120805460ff19168155906138da6001830182614603565b6138e860028301600061463d565b6138f660038301600061463d565b61390460048301600061465b565b506000600582018190556006820180547fffffffff000000000000000000000000000000000000000000000000000000001690556007909101805473ffffffffffffffffffffffffffffffffffffffff191690558581526013602052604080822080547fffffffffffffffffffffffffffffffffffffffffffffffffffffffffffff00ff16610100179055518515159187917fcc8b74c10cae169918eab7cf3272b0a540854b8a4d12281590885d07fed34f6e9190a350506001600c559092909150565b60008281526012602090815260408083206001600160a01b0387168452600390925290912054613a24576040517f291fc44200000000000000000000000000000000000000000000000000000000815260040160405180910390fd5b60008381526015602090815260408083206001600160a01b038816845290915290205460ff1615613a81576040517f7c9a1cf900000000000000000000000000000000000000000000000000000000815260040160405180910390fd5b601054600682015463ffffffff918216600160c01b90910482160116421115613ad6576040517f47c8137d00000000000000000000000000000000000000000000000000000000815260040160405180910390fd5b6006810154600090613af6908690600160c01b900463ffffffff16611c5a565b90508215613b5e576006820180546bffffffffffffffffffffffff8082168401167fffffffffffffffffffffffffffffffffffffffff0000000000000000000000009091161790556001600160a01b0385166000908152601660205260409020849055613bb2565b6006820180546bffffffffffffffffffffffff6c0100000000000000000000000080830482168501909116027fffffffffffffffff000000000000000000000000ffffffffffffffffffffffff9091161790555b60008481526015602090815260408083206001600160a01b0389168085529252808320805460ff1916600117905551851515928792917fd356173ae8eeea8691aee4c1be712c314a975a3d43ebc48b08ca54d0dac912289190a45050505050565b816001600160a01b0316836001600160a01b031614158015613c3457508015155b15613ce8576001600160a01b03831615613ce8576001600160a01b0383166000908152600b60205260408120549081613c6e576000613cba565b6001600160a01b0385166000908152600a6020526040812090613c926001856153ff565b815260208101919091526040016000205464010000000090046bffffffffffffffffffffffff165b6bffffffffffffffffffffffff1690506000613cd684836153ff565b9050613ce48684848461428c565b5050505b6001600160a01b03821615613d97576001600160a01b0382166000908152600b60205260408120549081613d1d576000613d69565b6001600160a01b0384166000908152600a6020526040812090613d416001856153ff565b815260208101919091526040016000205464010000000090046bffffffffffffffffffffffff165b6bffffffffffffffffffffffff1690506000613d8584836156b6565b9050613d938584848461428c565b5050505b505050565b60007f8b73c3c69bb8fe3d512ecc4cf759cc79239f7b179b0ffacaa9a75d522b39400f6000604051613dce9190615625565b6040805191829003822060208301939093528101919091527fc89efdaa54c0f20c7adf612882df0950f5a951637e0307cdcb4c672f298b8bc660608201524660808201523060a082015260c00160405160208183030381529060405280519060200120905090565b8060026000828254613e4891906156b6565b90915550506001600160a01b0382166000908152600360205260408120805483019055613e7e90613e788461123e565b83613c13565b6040518181526001600160a01b038316906000907fddf252ad1be2c89b69c2b068fc378daa952ba7f163c4a11628f55a4df523b3ef906020015b60405180910390a35050565b6001600160a01b03821660009081526003602052604081208054839290613eec9084906153ff565b9091555050600280548290039055613f0e613f068361123e565b600083613c13565b6040518181526000906001600160a01b038416907fddf252ad1be2c89b69c2b068fc378daa952ba7f163c4a11628f55a4df523b3ef90602001613eb8565b6000613f578361123e565b6001600160a01b038481166000908152600960209081526040808320805473ffffffffffffffffffffffffffffffffffffffff191694881694909417909355600390522054909150613fac9082908490613c13565b816001600160a01b0316816001600160a01b0316846001600160a01b03167f3134e8a2e6d97e929a7e54011ea5485d7d196dd5f0ba4d4ef95803e8e3fc257f60405160405180910390a4505050565b8051825114614036576040517f266c51bb00000000000000000000000000000000000000000000000000000000815260040160405180910390fd5b845161404990600090602088019061448e565b50835161405d90600190602087019061448e565b506008805460ff191684151517905546600555614078613d9c565b60065560005b8251811015613d93576140c383828151811061409c5761409c6154a7565b60200260200101518383815181106140b6576140b66154a7565b6020026020010151613e36565b60010161407e565b600063ffffffff82111561410b576040517fec314e4200000000000000000000000000000000000000000000000000000000815260040160405180910390fd5b5090565b60008215801561411d575081155b1561412a57506000611078565b600184600381111561413e5761413e61473f565b148061415b575060038460038111156141595761415961473f565b145b156141a65760105460025460009160649161418191640100000000900460ff16906156ce565b61418b91906156ed565b9050838301818110156141a357600092505050611078565b50505b60008460038111156141ba576141ba61473f565b14806141d7575060018460038111156141d5576141d561473f565b145b156141f157818311156141ec57506001611078565b611078565b60105460009060649065010000000000900460ff1661421085876156b6565b61421a91906156ce565b61422491906156ed565b9050808410614237576001915050611078565b509392505050565b6008805460ff8082161560ff1990921682179092556040519116151581527f28ef61d7a1c224006e6530d510be74c9c673f4a9896202105e3d4f60511779d19060200160405180910390a1565b82158015906142c757506001600160a01b0384166000908152600a602090815260408083206000198701845290915290205463ffffffff1642145b15614345576142d581614446565b6001600160a01b0385166000908152600a6020908152604080832060001988018452909152902080546bffffffffffffffffffffffff92909216640100000000027fffffffffffffffffffffffffffffffff000000000000000000000000ffffffff9092169190911790556143fc565b6040518060400160405280614359426140cb565b63ffffffff16815260200161436d83614446565b6bffffffffffffffffffffffff9081169091526001600160a01b0386166000818152600a6020908152604080832089845282528083208651815497840151909616640100000000027fffffffffffffffffffffffffffffffff0000000000000000000000000000000090971663ffffffff9096169590951795909517909355908152600b909152206001840190555b60408051838152602081018390526001600160a01b038616917fdec2bacdd2f05b59de34da9b523dff8be42e5e38e818c82fdb0bae774387a724910160405180910390a250505050565b60006bffffffffffffffffffffffff82111561410b576040517f39a21c5600000000000000000000000000000000000000000000000000000000815260040160405180910390fd5b82805461449a906153ae565b90600052602060002090601f0160209004810192826144bc5760008555614502565b82601f106144d557805160ff1916838001178555614502565b82800160010185558215614502579182015b828111156145025782518255916020019190600101906144e7565b5061410b9291506146f4565b828054828255906000526020600020908101928215614502579160200282015b82811115614502578251825473ffffffffffffffffffffffffffffffffffffffff19166001600160a01b0390911617825560209092019160019091019061452e565b82805482825590600052602060002090810192821561450257916020028201828111156145025782518255916020019190600101906144e7565b8280548282559060005260206000209081019282156145f7579160200282015b828111156145f757825180516145e791849160209091019061448e565b50916020019190600101906145ca565b5061410b929150614709565b50805461460f906153ae565b6000825580601f1061461f575050565b601f01602090049060005260206000209081019061128591906146f4565b508054600082559060005260206000209081019061128591906146f4565b50805460008255906000526020600020908101906112859190614709565b828054614685906153ae565b90600052602060002090601f0160209004810192826146a75760008555614502565b82601f106146b85780548555614502565b8280016001018555821561450257600052602060002091601f016020900482015b828111156145025782548255916001019190600101906146d9565b5b8082111561410b57600081556001016146f5565b8082111561410b57600061471d8282614603565b50600101614709565b60006020828403121561473857600080fd5b5035919050565b634e487b7160e01b600052602160045260246000fd5b60005b83811015614770578181015183820152602001614758565b8381111561477f576000848401525b50505050565b6000815180845261479d816020860160208601614755565b601f01601f19169290920160200192915050565b6000600b89106147c3576147c361473f565b88825260e060208301526147da60e0830189614785565b6040830197909752506bffffffffffffffffffffffff948516606082015292909316608083015263ffffffff1660a08201526001600160a01b0390911660c09091015292915050565b6020815260006110786020830184614785565b80356001600160a01b038116811461484d57600080fd5b919050565b6000806040838503121561486557600080fd5b61486e83614836565b946020939093013593505050565b60008083601f84011261488e57600080fd5b50813567ffffffffffffffff8111156148a657600080fd5b6020830191508360208285010111156148be57600080fd5b9250929050565b6000806000806000608086880312156148dd57600080fd5b6148e686614836565b94506148f460208701614836565b935060408601359250606086013567ffffffffffffffff81111561491757600080fd5b6149238882890161487c565b969995985093965092949392505050565b801515811461128557600080fd5b803561484d81614934565b803560ff8116811461484d57600080fd5b60008060008060008060c0878903121561497757600080fd5b61498087614836565b955060208701359450604087013561499781614934565b93506149a56060880161494d565b92506080870135915060a087013590509295509295509295565b6000806000606084860312156149d457600080fd5b6149dd84614836565b92506149eb60208501614836565b9150604084013590509250925092565b600060208284031215614a0d57600080fd5b61107882614836565b60008060008060608587031215614a2c57600080fd5b614a3585614836565b935060208501359250604085013567ffffffffffffffff811115614a5857600080fd5b614a648782880161487c565b95989497509550505050565b60008060408385031215614a8357600080fd5b82359150614a9360208401614836565b90509250929050565b6000815180845260208085019450848260051b860182860160005b85811015614ae1578383038952614acf838351614785565b98850198925090840190600101614ab7565b5090979650505050505050565b606080825284519082018190526000906020906080840190828801845b82811015614b305781516001600160a01b031684529284019290840190600101614b0b565b5050508381038285015285518082528683019183019060005b81811015614b6557835183529284019291840191600101614b49565b50508481036040860152614b798187614a9c565b98975050505050505050565b8035600b811061484d57600080fd5b600060208284031215614ba657600080fd5b61107882614b85565b6020810160048310614bc357614bc361473f565b91905290565b634e487b7160e01b600052604160045260246000fd5b604051601f8201601f1916810167ffffffffffffffff81118282101715614c0857614c08614bc9565b604052919050565b600067ffffffffffffffff821115614c2a57614c2a614bc9565b50601f01601f191660200190565b6000614c4b614c4684614c10565b614bdf565b9050828152838383011115614c5f57600080fd5b828260208301376000602084830101529392505050565b600082601f830112614c8757600080fd5b61107883833560208501614c38565b600067ffffffffffffffff821115614cb057614cb0614bc9565b5060051b60200190565b600082601f830112614ccb57600080fd5b81356020614cdb614c4683614c96565b82815260059290921b84018101918181019086841115614cfa57600080fd5b8286015b84811015614d1c57614d0f81614836565b8352918301918301614cfe565b509695505050505050565b6000614d35614c4684614c96565b8381529050602080820190600585901b840186811115614d5457600080fd5b845b81811015614da457803567ffffffffffffffff811115614d765760008081fd5b8601601f81018913614d885760008081fd5b614d96898235868401614c38565b855250928201928201614d56565b505050509392505050565b600082601f830112614dc057600080fd5b61107883833560208501614d27565b60008083601f840112614de157600080fd5b50813567ffffffffffffffff811115614df957600080fd5b6020830191508360208260051b85010111156148be57600080fd5b803563ffffffff8116811461484d57600080fd5b600082601f830112614e3957600080fd5b6040516101a080820182811067ffffffffffffffff82111715614e5e57614e5e614bc9565b60405283018185821115614e7157600080fd5b845b82811015614e9257614e848161494d565b825260209182019101614e73565b509195945050505050565b6000806000806000806000806000806000806102c08d8f031215614ec057600080fd5b67ffffffffffffffff8d351115614ed657600080fd5b614ee38e8e358f01614c76565b9b5067ffffffffffffffff60208e01351115614efe57600080fd5b614f0e8e60208f01358f01614c76565b9a5067ffffffffffffffff60408e01351115614f2957600080fd5b614f398e60408f01358f01614c76565b9950614f4760608e01614942565b985067ffffffffffffffff60808e01351115614f6257600080fd5b614f728e60808f01358f01614cba565b975067ffffffffffffffff60a08e01351115614f8d57600080fd5b614f9d8e60a08f01358f01614daf565b965067ffffffffffffffff60c08e01351115614fb857600080fd5b614fc88e60c08f01358f01614dcf565b909650945067ffffffffffffffff60e08e01351115614fe657600080fd5b614ff68e60e08f01358f01614dcf565b90945092506150086101008e01614e14565b91506150188e6101208f01614e28565b90509295989b509295989b509295989b565b600080600080600080600080600060a08a8c03121561504857600080fd5b6150518a614b85565b985060208a013567ffffffffffffffff8082111561506e57600080fd5b61507a8d838e0161487c565b909a50985060408c013591508082111561509357600080fd5b61509f8d838e01614dcf565b909850965060608c01359150808211156150b857600080fd5b6150c48d838e01614dcf565b909650945060808c01359150808211156150dd57600080fd5b506150ea8c828d01614dcf565b915080935050809150509295985092959850929598565b6000806020838503121561511457600080fd5b823567ffffffffffffffff81111561512b57600080fd5b61513785828601614dcf565b90969095509350505050565b6020815260006110786020830184614a9c565b60008060008060008060008060a0898b03121561517257600080fd5b61517b89614836565b975061518960208a01614836565b9650604089013567ffffffffffffffff808211156151a657600080fd5b6151b28c838d01614dcf565b909850965060608b01359150808211156151cb57600080fd5b6151d78c838d01614dcf565b909650945060808b01359150808211156151f057600080fd5b506151fd8b828c0161487c565b999c989b5096995094979396929594505050565b60008060008060008060c0878903121561522a57600080fd5b61523387614836565b955060208701359450604087013593506149a56060880161494d565b6000806040838503121561526257600080fd5b82359150602083013561527481614934565b809150509250929050565b600080600080600080600060e0888a03121561529a57600080fd5b6152a388614836565b96506152b160208901614836565b955060408801359450606088013593506152cd6080890161494d565b925060a0880135915060c0880135905092959891949750929550565b600080604083850312156152fc57600080fd5b61530583614836565b9150614a9360208401614836565b821515815260406020820152600061532e6040830184614a9c565b949350505050565b60008060008060008060a0878903121561534f57600080fd5b61535887614836565b955061536660208801614836565b94506040870135935060608701359250608087013567ffffffffffffffff81111561539057600080fd5b61539c89828a0161487c565b979a9699509497509295939492505050565b600181811c908216806153c257607f821691505b602082108114156153e357634e487b7160e01b600052602260045260246000fd5b50919050565b634e487b7160e01b600052601160045260246000fd5b600082821015615411576154116153e9565b500390565b60006020828403121561542857600080fd5b813561107881614934565b6001600160a01b038516815283602082015260606040820152816060820152818360808301376000818301608090810191909152601f909201601f191601019392505050565b6000806040838503121561548c57600080fd5b825161549781614934565b6020939093015192949293505050565b634e487b7160e01b600052603260045260246000fd5b6000611078368484614d27565b60008083357fffffffffffffffffffffffffffffffffffffffffffffffffffffffffffffffe18436030181126154ff57600080fd5b83018035915067ffffffffffffffff82111561551a57600080fd5b6020019150368190038213156148be57600080fd5b8183823760009101908152919050565b60006020828403121561555157600080fd5b815167ffffffffffffffff81111561556857600080fd5b8201601f8101841361557957600080fd5b8051615587614c4682614c10565b81815285602083850101111561559c57600080fd5b6155ad826020830160208601614755565b95945050505050565b600081546155c3816153ae565b600182811680156155db57600181146155ec5761561b565b60ff1984168752828701945061561b565b8560005260208060002060005b858110156156125781548a8201529084019082016155f9565b50505082870194505b5050505092915050565b600061107882846155b6565b6000602080835260008454615645816153ae565b80848701526040600180841660008114615666576001811461567a576156a8565b60ff198516838a01526060890195506156a8565b896000528660002060005b858110156156a05781548b8201860152908301908801615685565b8a0184019650505b509398975050505050505050565b600082198211156156c9576156c96153e9565b500190565b60008160001904831182151516156156e8576156e86153e9565b500290565b60008261570a57634e487b7160e01b600052601260045260246000fd5b50049056fea264697066735822122061d0c3436177acd685ce9fea490fcfaacd377b633a71063282f6a6f8d95cc88164736f6c634300080b0033",
  "linkReferences": {},
  "deployedLinkReferences": {}
}