{
  "_format": "hh-sol-artifact-1",
  "contractName": "KaliDAOtribute",
  "sourceName": "contracts/extensions/tribute/KaliDAOtribute.sol",
  "abi": [
    {
      "inputs": [],
      "name": "ETHtransferFailed",
      "type": "error"
    },
    {
      "inputs": [],
      "name": "NotProcessed",
      "type": "error"
    },
    {
      "inputs": [],
      "name": "NotProposal",
      "type": "error"
    },
    {
      "inputs": [],
      "name": "NotProposer",
      "type": "error"
    },
    {
      "inputs": [],
      "name": "Reentrancy",
      "type": "error"
    },
    {
      "inputs": [],
      "name": "Sponsored",
      "type": "error"
    },
    {
      "inputs": [],
      "name": "TransferFailed",
      "type": "error"
    },
    {
      "inputs": [],
      "name": "TransferFromFailed",
      "type": "error"
    },
    {
      "anonymous": false,
      "inputs": [
        {
          "indexed": true,
          "internalType": "contract IKaliDAOtribute",
          "name": "dao",
          "type": "address"
        },
        {
          "indexed": true,
          "internalType": "address",
          "name": "proposer",
          "type": "address"
        },
        {
          "indexed": true,
          "internalType": "uint256",
          "name": "proposal",
          "type": "uint256"
        },
        {
          "indexed": false,
          "internalType": "address",
          "name": "asset",
          "type": "address"
        },
        {
          "indexed": false,
          "internalType": "bool",
          "name": "nft",
          "type": "bool"
        },
        {
          "indexed": false,
          "internalType": "uint256",
          "name": "value",
          "type": "uint256"
        }
      ],
      "name": "NewTributeProposal",
      "type": "event"
    },
    {
      "anonymous": false,
      "inputs": [
        {
          "indexed": true,
          "internalType": "contract IKaliDAOtribute",
          "name": "dao",
          "type": "address"
        },
        {
          "indexed": true,
          "internalType": "uint256",
          "name": "proposal",
          "type": "uint256"
        }
      ],
      "name": "TributeProposalCancelled",
      "type": "event"
    },
    {
      "anonymous": false,
      "inputs": [
        {
          "indexed": true,
          "internalType": "contract IKaliDAOtribute",
          "name": "dao",
          "type": "address"
        },
        {
          "indexed": true,
          "internalType": "uint256",
          "name": "proposal",
          "type": "uint256"
        }
      ],
      "name": "TributeProposalReleased",
      "type": "event"
    },
    {
      "inputs": [
        {
          "internalType": "contract IKaliDAOtribute",
          "name": "dao",
          "type": "address"
        },
        {
          "internalType": "uint256",
          "name": "proposal",
          "type": "uint256"
        }
      ],
      "name": "cancelTributeProposal",
      "outputs": [],
      "stateMutability": "nonpayable",
      "type": "function"
    },
    {
      "inputs": [
        {
          "internalType": "bytes[]",
          "name": "data",
          "type": "bytes[]"
        }
      ],
      "name": "multicall",
      "outputs": [
        {
          "internalType": "bytes[]",
          "name": "results",
          "type": "bytes[]"
        }
      ],
      "stateMutability": "payable",
      "type": "function"
    },
    {
      "inputs": [
        {
          "internalType": "contract IKaliDAOtribute",
          "name": "dao",
          "type": "address"
        },
        {
          "internalType": "uint256",
          "name": "proposal",
          "type": "uint256"
        }
      ],
      "name": "releaseTributeProposal",
      "outputs": [],
      "stateMutability": "nonpayable",
      "type": "function"
    },
    {
      "inputs": [
        {
          "internalType": "contract IKaliDAOtribute",
          "name": "dao",
          "type": "address"
        },
        {
          "internalType": "uint256",
          "name": "proposal",
          "type": "uint256"
        }
      ],
      "name": "releaseTributeProposalAndProcess",
      "outputs": [],
      "stateMutability": "nonpayable",
      "type": "function"
    },
    {
      "inputs": [
        {
          "internalType": "contract IKaliDAOtribute",
          "name": "dao",
          "type": "address"
        },
        {
          "internalType": "enum IKaliDAOtribute.ProposalType",
          "name": "proposalType",
          "type": "uint8"
        },
        {
          "internalType": "string",
          "name": "description",
          "type": "string"
        },
        {
          "internalType": "address[]",
          "name": "accounts",
          "type": "address[]"
        },
        {
          "internalType": "uint256[]",
          "name": "amounts",
          "type": "uint256[]"
        },
        {
          "internalType": "bytes[]",
          "name": "payloads",
          "type": "bytes[]"
        },
        {
          "internalType": "bool",
          "name": "nft",
          "type": "bool"
        },
        {
          "internalType": "address",
          "name": "asset",
          "type": "address"
        },
        {
          "internalType": "uint256",
          "name": "value",
          "type": "uint256"
        }
      ],
      "name": "submitTributeProposal",
      "outputs": [],
      "stateMutability": "payable",
      "type": "function"
    },
    {
      "inputs": [
        {
          "internalType": "contract IKaliDAOtribute",
          "name": "",
          "type": "address"
        },
        {
          "internalType": "uint256",
          "name": "",
          "type": "uint256"
        }
      ],
      "name": "tributes",
      "outputs": [
        {
          "internalType": "address",
          "name": "proposer",
          "type": "address"
        },
        {
          "internalType": "address",
          "name": "asset",
          "type": "address"
        },
        {
          "internalType": "bool",
          "name": "nft",
          "type": "bool"
        },
        {
          "internalType": "uint256",
          "name": "value",
          "type": "uint256"
        }
      ],
      "stateMutability": "view",
      "type": "function"
    }
  ],
  "bytecode": "0x6080604052600160005534801561001557600080fd5b50611619806100256000396000f3fe6080604052600436106100655760003560e01c8063ac9650d811610043578063ac9650d8146100cc578063c6a27c91146100f5578063eb13a64e1461019457600080fd5b806363f949631461006a5780638d1cccc21461008c578063940cae8c146100ac575b600080fd5b34801561007657600080fd5b5061008a610085366004610dc7565b6101a7565b005b34801561009857600080fd5b5061008a6100a7366004610dc7565b61040b565b3480156100b857600080fd5b5061008a6100c7366004610dc7565b6104a3565b6100df6100da366004610e3f565b6107ee565b6040516100ec9190610ed9565b60405180910390f35b34801561010157600080fd5b50610163610110366004610dc7565b600160208181526000938452604080852090915291835291208054918101546002909101546001600160a01b039283169282169174010000000000000000000000000000000000000000900460ff169084565b604080516001600160a01b0395861681529490931660208501529015159183019190915260608201526080016100ec565b61008a6101a236600461105f565b61095e565b600260005414156101e4576040517fab143c0600000000000000000000000000000000000000000000000000000000815260040160405180910390fd5b600260009081556001600160a01b0383811682526001602090815260408084208585529091529091208054909116331461024a576040517f7d1b73b900000000000000000000000000000000000000000000000000000000815260040160405180910390fd5b6040517fe0a8f6f5000000000000000000000000000000000000000000000000000000008152600481018390526001600160a01b0384169063e0a8f6f590602401600060405180830381600087803b1580156102a557600080fd5b505af11580156102b9573d6000803e3d6000fd5b5050505060018101546001600160a01b03166102f057600281015481546102eb916001600160a01b0390911690610bde565b61035f565b600181015474010000000000000000000000000000000000000000900460ff16610338578054600282015460018301546102eb926001600160a01b0391821692911690610c28565b80546002820154600183015461035f926001600160a01b0391821692309290911690610cb8565b6001600160a01b038316600081815260016020818152604080842087855290915280832080547fffffffffffffffffffffffff000000000000000000000000000000000000000016815591820180547fffffffffffffffffffffff0000000000000000000000000000000000000000001690556002909101829055518492917f67f7406a36fd87f323632943b400743bf1c2981323eaffd7a0c955f622016e7591a35050600160005550565b6040517fe63bc62d000000000000000000000000000000000000000000000000000000008152600481018290526001600160a01b0383169063e63bc62d906024016000604051808303816000875af115801561046b573d6000803e3d6000fd5b505050506040513d6000823e601f3d908101601f1916820160405261049391908101906111bb565b505061049f82826104a3565b5050565b600260005414156104e0576040517fab143c0600000000000000000000000000000000000000000000000000000000815260040160405180910390fd5b600260009081556001600160a01b0380841682526001602090815260408084208585529091529091208054909116610544576040517f8751a03100000000000000000000000000000000000000000000000000000000815260040160405180910390fd5b6040517f66ee13b3000000000000000000000000000000000000000000000000000000008152600481018390526000906001600160a01b038516906366ee13b3906024016040805180830381865afa1580156105a4573d6000803e3d6000fd5b505050506040513d601f19601f820116820180604052508101906105c891906112ab565b90508060200151610605576040517f33c5331900000000000000000000000000000000000000000000000000000000815260040160405180910390fd5b8051156106a45760018201546001600160a01b031661063c576002820154610637906001600160a01b03861690610bde565b610741565b600182015474010000000000000000000000000000000000000000900460ff166106815760028201546001830154610637916001600160a01b03909116908690610c28565b60028201546001830154610637916001600160a01b039091169030908790610cb8565b60018201546001600160a01b03166106d25760028201548254610637916001600160a01b0390911690610bde565b600182015474010000000000000000000000000000000000000000900460ff1661071a57815460028301546001840154610637926001600160a01b0391821692911690610c28565b815460028301546001840154610741926001600160a01b0391821692309290911690610cb8565b6001600160a01b038416600081815260016020818152604080842088855290915280832080547fffffffffffffffffffffffff000000000000000000000000000000000000000016815591820180547fffffffffffffffffffffff0000000000000000000000000000000000000000001690556002909101829055518592917f97dcdb4a9455984082aea798740d0df2df08b613e7ee365f51253e060f67a09b91a3505060016000555050565b60608167ffffffffffffffff81111561080957610809610f68565b60405190808252806020026020018201604052801561083c57816020015b60608152602001906001900390816108275790505b50905060005b8281101561095757600080308686858181106108605761086061130a565b90506020028101906108729190611339565b604051610880929190611380565b600060405180830381855af49150503d80600081146108bb576040519150601f19603f3d011682016040523d82523d6000602084013e6108c0565b606091505b50915091508161092f576044815110156108d957600080fd5b600481019050808060200190518101906108f39190611390565b6040517f08c379a000000000000000000000000000000000000000000000000000000000815260040161092691906113e1565b60405180910390fd5b808484815181106109425761094261130a565b60209081029190910101525050600101610842565b5092915050565b6002600054141561099b576040517fab143c0600000000000000000000000000000000000000000000000000000000815260040160405180910390fd5b600260005534156109bc5750600090503482156109b757600092505b6109d1565b6109d16001600160a01b038316333084610cb8565b6040517f9b4a89ce0000000000000000000000000000000000000000000000000000000081526000906001600160a01b038e1690639b4a89ce90610a27908f908f908f908f908f908f908f908f906004016114ff565b6020604051808303816000875af1158015610a46573d6000803e3d6000fd5b505050506040513d601f19601f82011682018060405250810190610a6a91906115ca565b90506040518060800160405280336001600160a01b03168152602001846001600160a01b03168152602001851515815260200183815250600160008f6001600160a01b03166001600160a01b03168152602001908152602001600020600083815260200190815260200160002060008201518160000160006101000a8154816001600160a01b0302191690836001600160a01b0316021790555060208201518160010160006101000a8154816001600160a01b0302191690836001600160a01b0316021790555060408201518160010160146101000a81548160ff0219169083151502179055506060820151816002015590505080336001600160a01b03168e6001600160a01b03167f53d4dec8adf3ee1c540fbcc938053eda551bb8a66f71d078b745a65bc9df5b34868887604051610bc2939291906001600160a01b039390931683529015156020830152604082015260600190565b60405180910390a4505060016000555050505050505050505050565b600080600080600085875af1905080610c23576040517f23c133f200000000000000000000000000000000000000000000000000000000815260040160405180910390fd5b505050565b60006040517fa9059cbb0000000000000000000000000000000000000000000000000000000081526001600160a01b03841660048201528260248201526000806044836000895af1915050610c7c81610d58565b610cb2576040517f90b8ec1800000000000000000000000000000000000000000000000000000000815260040160405180910390fd5b50505050565b60006040517f23b872dd0000000000000000000000000000000000000000000000000000000081526001600160a01b03851660048201526001600160a01b038416602482015282604482015260008060648360008a5af1915050610d1b81610d58565b610d51576040517f7939f42400000000000000000000000000000000000000000000000000000000815260040160405180910390fd5b5050505050565b60003d82610d6a57806000803e806000fd5b8060208114610d82578015610d935760009250610d98565b816000803e60005115159250610d98565b600192505b5050919050565b6001600160a01b0381168114610db457600080fd5b50565b8035610dc281610d9f565b919050565b60008060408385031215610dda57600080fd5b8235610de581610d9f565b946020939093013593505050565b60008083601f840112610e0557600080fd5b50813567ffffffffffffffff811115610e1d57600080fd5b6020830191508360208260051b8501011115610e3857600080fd5b9250929050565b60008060208385031215610e5257600080fd5b823567ffffffffffffffff811115610e6957600080fd5b610e7585828601610df3565b90969095509350505050565b60005b83811015610e9c578181015183820152602001610e84565b83811115610cb25750506000910152565b60008151808452610ec5816020860160208601610e81565b601f01601f19169290920160200192915050565b6000602080830181845280855180835260408601915060408160051b870101925083870160005b82811015610f4c577fffffffffffffffffffffffffffffffffffffffffffffffffffffffffffffffc0888603018452610f3a858351610ead565b94509285019290850190600101610f00565b5092979650505050505050565b8035600c8110610dc257600080fd5b7f4e487b7100000000000000000000000000000000000000000000000000000000600052604160045260246000fd5b604051601f8201601f1916810167ffffffffffffffff81118282101715610fc057610fc0610f68565b604052919050565b600067ffffffffffffffff821115610fe257610fe2610f68565b50601f01601f191660200190565b600082601f83011261100157600080fd5b813561101461100f82610fc8565b610f97565b81815284602083860101111561102957600080fd5b816020850160208301376000918101602001919091529392505050565b8015158114610db457600080fd5b8035610dc281611046565b6000806000806000806000806000806000806101208d8f03121561108257600080fd5b61108b8d610db7565b9b5061109960208e01610f59565b9a5067ffffffffffffffff60408e013511156110b457600080fd5b6110c48e60408f01358f01610ff0565b995067ffffffffffffffff60608e013511156110df57600080fd5b6110ef8e60608f01358f01610df3565b909950975067ffffffffffffffff60808e0135111561110d57600080fd5b61111d8e60808f01358f01610df3565b909750955067ffffffffffffffff60a08e0135111561113b57600080fd5b61114b8e60a08f01358f01610df3565b909550935061115c60c08e01611054565b925061116a60e08e01610db7565b91506101008d013590509295989b509295989b509295989b565b600061119261100f84610fc8565b90508281528383830111156111a657600080fd5b6111b4836020830184610e81565b9392505050565b60008060408084860312156111cf57600080fd5b83516111da81611046565b8093505060208085015167ffffffffffffffff808211156111fa57600080fd5b818701915087601f83011261120e57600080fd5b81518181111561122057611220610f68565b8060051b61122f858201610f97565b918252838101850191858101908b84111561124957600080fd5b86860192505b83831015611299578251858111156112675760008081fd5b8601603f81018d136112795760008081fd5b6112898d898301518b8401611184565b835250918601919086019061124f565b80985050505050505050509250929050565b6000604082840312156112bd57600080fd5b6040516040810181811067ffffffffffffffff821117156112e0576112e0610f68565b60405282516112ee81611046565b815260208301516112fe81611046565b60208201529392505050565b7f4e487b7100000000000000000000000000000000000000000000000000000000600052603260045260246000fd5b6000808335601e1984360301811261135057600080fd5b83018035915067ffffffffffffffff82111561136b57600080fd5b602001915036819003821315610e3857600080fd5b8183823760009101908152919050565b6000602082840312156113a257600080fd5b815167ffffffffffffffff8111156113b957600080fd5b8201601f810184136113ca57600080fd5b6113d984825160208401611184565b949350505050565b6020815260006111b46020830184610ead565b81835260007f07ffffffffffffffffffffffffffffffffffffffffffffffffffffffffffffff83111561142657600080fd5b8260051b8083602087013760009401602001938452509192915050565b818352818160208501375060006020828401015260006020601f19601f840116840101905092915050565b81835260006020808501808196508560051b810191508460005b878110156114f25782840389528135601e198836030181126114a957600080fd5b8701803567ffffffffffffffff8111156114c257600080fd5b8036038913156114d157600080fd5b6114de8682898501611443565b9a87019a9550505090840190600101611488565b5091979650505050505050565b6000600c8a10611538577f4e487b7100000000000000000000000000000000000000000000000000000000600052602160045260246000fd5b898252602060a08184015261155060a084018b610ead565b83810360408501528881528990820160005b8a81101561159057823561157581610d9f565b6001600160a01b031682529183019190830190600101611562565b5084810360608601526115a481898b6113f4565b9250505082810360808401526115bb81858761146e565b9b9a5050505050505050505050565b6000602082840312156115dc57600080fd5b505191905056fea2646970667358221220e4adb3650f47ee5a5c5a8369597f476d661227a595d92aadf9814d5e192cf5eb64736f6c634300080b0033",
  "linkReferences": {},
  "deployedLinkReferences": {}
}