{
  "_format": "hh-sol-artifact-1",
  "contractName": "KaliNFT",
  "sourceName": "contracts/tokens/erc721/public/KaliNFT.sol",
  "abi": [
    {
      "inputs": [
        {
          "internalType": "string",
          "name": "name_",
          "type": "string"
        },
        {
          "internalType": "string",
          "name": "symbol_",
          "type": "string"
        }
      ],
      "stateMutability": "nonpayable",
      "type": "constructor"
    },
    {
      "inputs": [],
      "name": "AlreadyMinted",
      "type": "error"
    },
    {
      "inputs": [],
      "name": "InvalidRecipient",
      "type": "error"
    },
    {
      "inputs": [],
      "name": "InvalidSignature",
      "type": "error"
    },
    {
      "inputs": [],
      "name": "NotApproved",
      "type": "error"
    },
    {
      "inputs": [],
      "name": "NotMinted",
      "type": "error"
    },
    {
      "inputs": [],
      "name": "NotOwner",
      "type": "error"
    },
    {
      "inputs": [],
      "name": "SignatureExpired",
      "type": "error"
    },
    {
      "anonymous": false,
      "inputs": [
        {
          "indexed": true,
          "internalType": "address",
          "name": "owner",
          "type": "address"
        },
        {
          "indexed": true,
          "internalType": "address",
          "name": "spender",
          "type": "address"
        },
        {
          "indexed": true,
          "internalType": "uint256",
          "name": "tokenId",
          "type": "uint256"
        }
      ],
      "name": "Approval",
      "type": "event"
    },
    {
      "anonymous": false,
      "inputs": [
        {
          "indexed": true,
          "internalType": "address",
          "name": "owner",
          "type": "address"
        },
        {
          "indexed": true,
          "internalType": "address",
          "name": "operator",
          "type": "address"
        },
        {
          "indexed": false,
          "internalType": "bool",
          "name": "approved",
          "type": "bool"
        }
      ],
      "name": "ApprovalForAll",
      "type": "event"
    },
    {
      "anonymous": false,
      "inputs": [
        {
          "indexed": true,
          "internalType": "address",
          "name": "from",
          "type": "address"
        },
        {
          "indexed": true,
          "internalType": "address",
          "name": "to",
          "type": "address"
        },
        {
          "indexed": true,
          "internalType": "uint256",
          "name": "tokenId",
          "type": "uint256"
        }
      ],
      "name": "Transfer",
      "type": "event"
    },
    {
      "inputs": [],
      "name": "DOMAIN_SEPARATOR",
      "outputs": [
        {
          "internalType": "bytes32",
          "name": "",
          "type": "bytes32"
        }
      ],
      "stateMutability": "view",
      "type": "function"
    },
    {
      "inputs": [],
      "name": "PERMIT_ALL_TYPEHASH",
      "outputs": [
        {
          "internalType": "bytes32",
          "name": "",
          "type": "bytes32"
        }
      ],
      "stateMutability": "view",
      "type": "function"
    },
    {
      "inputs": [],
      "name": "PERMIT_TYPEHASH",
      "outputs": [
        {
          "internalType": "bytes32",
          "name": "",
          "type": "bytes32"
        }
      ],
      "stateMutability": "view",
      "type": "function"
    },
    {
      "inputs": [
        {
          "internalType": "address",
          "name": "spender",
          "type": "address"
        },
        {
          "internalType": "uint256",
          "name": "tokenId",
          "type": "uint256"
        }
      ],
      "name": "approve",
      "outputs": [],
      "stateMutability": "nonpayable",
      "type": "function"
    },
    {
      "inputs": [
        {
          "internalType": "address",
          "name": "",
          "type": "address"
        }
      ],
      "name": "balanceOf",
      "outputs": [
        {
          "internalType": "uint256",
          "name": "",
          "type": "uint256"
        }
      ],
      "stateMutability": "view",
      "type": "function"
    },
    {
      "inputs": [
        {
          "internalType": "uint256",
          "name": "tokenId",
          "type": "uint256"
        }
      ],
      "name": "burn",
      "outputs": [],
      "stateMutability": "nonpayable",
      "type": "function"
    },
    {
      "inputs": [
        {
          "internalType": "uint256",
          "name": "",
          "type": "uint256"
        }
      ],
      "name": "getApproved",
      "outputs": [
        {
          "internalType": "address",
          "name": "",
          "type": "address"
        }
      ],
      "stateMutability": "view",
      "type": "function"
    },
    {
      "inputs": [
        {
          "internalType": "address",
          "name": "",
          "type": "address"
        },
        {
          "internalType": "address",
          "name": "",
          "type": "address"
        }
      ],
      "name": "isApprovedForAll",
      "outputs": [
        {
          "internalType": "bool",
          "name": "",
          "type": "bool"
        }
      ],
      "stateMutability": "view",
      "type": "function"
    },
    {
      "inputs": [
        {
          "internalType": "address",
          "name": "to",
          "type": "address"
        },
        {
          "internalType": "uint256",
          "name": "tokenId",
          "type": "uint256"
        },
        {
          "internalType": "string",
          "name": "uri",
          "type": "string"
        }
      ],
      "name": "mint",
      "outputs": [],
      "stateMutability": "nonpayable",
      "type": "function"
    },
    {
      "inputs": [
        {
          "internalType": "bytes[]",
          "name": "data",
          "type": "bytes[]"
        }
      ],
      "name": "multicall",
      "outputs": [
        {
          "internalType": "bytes[]",
          "name": "results",
          "type": "bytes[]"
        }
      ],
      "stateMutability": "payable",
      "type": "function"
    },
    {
      "inputs": [],
      "name": "name",
      "outputs": [
        {
          "internalType": "string",
          "name": "",
          "type": "string"
        }
      ],
      "stateMutability": "view",
      "type": "function"
    },
    {
      "inputs": [
        {
          "internalType": "uint256",
          "name": "",
          "type": "uint256"
        }
      ],
      "name": "nonces",
      "outputs": [
        {
          "internalType": "uint256",
          "name": "",
          "type": "uint256"
        }
      ],
      "stateMutability": "view",
      "type": "function"
    },
    {
      "inputs": [
        {
          "internalType": "address",
          "name": "",
          "type": "address"
        }
      ],
      "name": "noncesForAll",
      "outputs": [
        {
          "internalType": "uint256",
          "name": "",
          "type": "uint256"
        }
      ],
      "stateMutability": "view",
      "type": "function"
    },
    {
      "inputs": [
        {
          "internalType": "uint256",
          "name": "",
          "type": "uint256"
        }
      ],
      "name": "ownerOf",
      "outputs": [
        {
          "internalType": "address",
          "name": "",
          "type": "address"
        }
      ],
      "stateMutability": "view",
      "type": "function"
    },
    {
      "inputs": [
        {
          "internalType": "address",
          "name": "spender",
          "type": "address"
        },
        {
          "internalType": "uint256",
          "name": "tokenId",
          "type": "uint256"
        },
        {
          "internalType": "uint256",
          "name": "deadline",
          "type": "uint256"
        },
        {
          "internalType": "uint8",
          "name": "v",
          "type": "uint8"
        },
        {
          "internalType": "bytes32",
          "name": "r",
          "type": "bytes32"
        },
        {
          "internalType": "bytes32",
          "name": "s",
          "type": "bytes32"
        }
      ],
      "name": "permit",
      "outputs": [],
      "stateMutability": "nonpayable",
      "type": "function"
    },
    {
      "inputs": [
        {
          "internalType": "address",
          "name": "owner",
          "type": "address"
        },
        {
          "internalType": "address",
          "name": "operator",
          "type": "address"
        },
        {
          "internalType": "uint256",
          "name": "deadline",
          "type": "uint256"
        },
        {
          "internalType": "uint8",
          "name": "v",
          "type": "uint8"
        },
        {
          "internalType": "bytes32",
          "name": "r",
          "type": "bytes32"
        },
        {
          "internalType": "bytes32",
          "name": "s",
          "type": "bytes32"
        }
      ],
      "name": "permitAll",
      "outputs": [],
      "stateMutability": "nonpayable",
      "type": "function"
    },
    {
      "inputs": [
        {
          "internalType": "address",
          "name": "from",
          "type": "address"
        },
        {
          "internalType": "address",
          "name": "to",
          "type": "address"
        },
        {
          "internalType": "uint256",
          "name": "tokenId",
          "type": "uint256"
        }
      ],
      "name": "safeTransferFrom",
      "outputs": [],
      "stateMutability": "nonpayable",
      "type": "function"
    },
    {
      "inputs": [
        {
          "internalType": "address",
          "name": "from",
          "type": "address"
        },
        {
          "internalType": "address",
          "name": "to",
          "type": "address"
        },
        {
          "internalType": "uint256",
          "name": "tokenId",
          "type": "uint256"
        },
        {
          "internalType": "bytes",
          "name": "data",
          "type": "bytes"
        }
      ],
      "name": "safeTransferFrom",
      "outputs": [],
      "stateMutability": "nonpayable",
      "type": "function"
    },
    {
      "inputs": [
        {
          "internalType": "address",
          "name": "operator",
          "type": "address"
        },
        {
          "internalType": "bool",
          "name": "approved",
          "type": "bool"
        }
      ],
      "name": "setApprovalForAll",
      "outputs": [],
      "stateMutability": "nonpayable",
      "type": "function"
    },
    {
      "inputs": [
        {
          "internalType": "bytes4",
          "name": "interfaceId",
          "type": "bytes4"
        }
      ],
      "name": "supportsInterface",
      "outputs": [
        {
          "internalType": "bool",
          "name": "",
          "type": "bool"
        }
      ],
      "stateMutability": "pure",
      "type": "function"
    },
    {
      "inputs": [],
      "name": "symbol",
      "outputs": [
        {
          "internalType": "string",
          "name": "",
          "type": "string"
        }
      ],
      "stateMutability": "view",
      "type": "function"
    },
    {
      "inputs": [
        {
          "internalType": "uint256",
          "name": "tokenId",
          "type": "uint256"
        }
      ],
      "name": "tokenURI",
      "outputs": [
        {
          "internalType": "string",
          "name": "",
          "type": "string"
        }
      ],
      "stateMutability": "view",
      "type": "function"
    },
    {
      "inputs": [],
      "name": "totalSupply",
      "outputs": [
        {
          "internalType": "uint256",
          "name": "",
          "type": "uint256"
        }
      ],
      "stateMutability": "view",
      "type": "function"
    },
    {
      "inputs": [
        {
          "internalType": "address",
          "name": "to",
          "type": "address"
        },
        {
          "internalType": "uint256",
          "name": "tokenId",
          "type": "uint256"
        }
      ],
      "name": "transfer",
      "outputs": [
        {
          "internalType": "bool",
          "name": "",
          "type": "bool"
        }
      ],
      "stateMutability": "nonpayable",
      "type": "function"
    },
    {
      "inputs": [
        {
          "internalType": "address",
          "name": "from",
          "type": "address"
        },
        {
          "internalType": "address",
          "name": "to",
          "type": "address"
        },
        {
          "internalType": "uint256",
          "name": "tokenId",
          "type": "uint256"
        }
      ],
      "name": "transferFrom",
      "outputs": [],
      "stateMutability": "nonpayable",
      "type": "function"
    }
  ],
  "bytecode": "0x60c06040523480156200001157600080fd5b50604051620023f1380380620023f18339810160408190526200003491620002a4565b8151829082906200004d90600090602085019062000131565b5080516200006390600190602084019062000131565b50466080526200007262000080565b60a05250620003ef92505050565b60007f8b73c3c69bb8fe3d512ecc4cf759cc79239f7b179b0ffacaa9a75d522b39400f6000604051620000b491906200034b565b60408051918290038220828201825260018352603160f81b6020938401528151928301939093528101919091527fc89efdaa54c0f20c7adf612882df0950f5a951637e0307cdcb4c672f298b8bc660608201524660808201523060a082015260c00160405160208183030381529060405280519060200120905090565b8280546200013f906200030e565b90600052602060002090601f016020900481019282620001635760008555620001ae565b82601f106200017e57805160ff1916838001178555620001ae565b82800160010185558215620001ae579182015b82811115620001ae57825182559160200191906001019062000191565b50620001bc929150620001c0565b5090565b5b80821115620001bc5760008155600101620001c1565b634e487b7160e01b600052604160045260246000fd5b600082601f830112620001ff57600080fd5b81516001600160401b03808211156200021c576200021c620001d7565b604051601f8301601f19908116603f01168101908282118183101715620002475762000247620001d7565b816040528381526020925086838588010111156200026457600080fd5b600091505b8382101562000288578582018301518183018401529082019062000269565b838211156200029a5760008385830101525b9695505050505050565b60008060408385031215620002b857600080fd5b82516001600160401b0380821115620002d057600080fd5b620002de86838701620001ed565b93506020850151915080821115620002f557600080fd5b506200030485828601620001ed565b9150509250929050565b600181811c908216806200032357607f821691505b602082108114156200034557634e487b7160e01b600052602260045260246000fd5b50919050565b600080835481600182811c9150808316806200036857607f831692505b60208084108214156200038957634e487b7160e01b86526022600452602486fd5b818015620003a05760018114620003b257620003e1565b60ff19861689528489019650620003e1565b60008a81526020902060005b86811015620003d95781548b820152908501908301620003be565b505084890196505b509498975050505050505050565b60805160a051611fdc6200041560003960006109b5015260006109800152611fdc6000f3fe6080604052600436106101965760003560e01c806370a08231116100e1578063aba078471161008a578063b88d4fde11610064578063b88d4fde146104d5578063c87b56dd146104f5578063d3fc986414610515578063e985e9c51461053557600080fd5b8063aba0784714610461578063ac9650d814610481578063b4e13c8d146104a157600080fd5b806395d89b41116100bb57806395d89b411461040c578063a22cb46514610421578063a9059cbb1461044157600080fd5b806370a08231146103925780637ac2ff7b146103bf578063904dfb8e146103df57600080fd5b806323b872dd1161014357806342842e0e1161011d57806342842e0e1461031c57806342966c681461033c5780636352211e1461035c57600080fd5b806323b872dd146102b357806330adf81f146102d35780633644e5151461030757600080fd5b8063095ea7b311610174578063095ea7b314610240578063141a468c1461026257806318160ddd1461029d57600080fd5b806301ffc9a71461019b57806306fdde03146101d0578063081812fc146101f2575b600080fd5b3480156101a757600080fd5b506101bb6101b6366004611875565b610570565b60405190151581526020015b60405180910390f35b3480156101dc57600080fd5b506101e5610655565b6040516101c791906118f1565b3480156101fe57600080fd5b5061022861020d366004611904565b6005602052600090815260409020546001600160a01b031681565b6040516001600160a01b0390911681526020016101c7565b34801561024c57600080fd5b5061026061025b366004611939565b6106e3565b005b34801561026e57600080fd5b5061028f61027d366004611904565b60076020526000908152604090205481565b6040519081526020016101c7565b3480156102a957600080fd5b5061028f60025481565b3480156102bf57600080fd5b506102606102ce366004611963565b6107cf565b3480156102df57600080fd5b5061028f7f49ecf333e5b8c95c40fdafc95c1ad136e8914a8fb55e9dc8bb01eaa83a2df9ad81565b34801561031357600080fd5b5061028f61097c565b34801561032857600080fd5b50610260610337366004611963565b6109d7565b34801561034857600080fd5b50610260610357366004611904565b610ae2565b34801561036857600080fd5b50610228610377366004611904565b6004602052600090815260409020546001600160a01b031681565b34801561039e57600080fd5b5061028f6103ad36600461199f565b60036020526000908152604090205481565b3480156103cb57600080fd5b506102606103da3660046119cb565b610b3e565b3480156103eb57600080fd5b5061028f6103fa36600461199f565b60086020526000908152604090205481565b34801561041857600080fd5b506101e5610dca565b34801561042d57600080fd5b5061026061043c366004611a23565b610dd7565b34801561044d57600080fd5b506101bb61045c366004611939565b610e43565b34801561046d57600080fd5b5061026061047c366004611a5f565b610f56565b61049461048f366004611aa4565b6111d0565b6040516101c79190611b19565b3480156104ad57600080fd5b5061028f7fdaab21af31ece73a508939fedd476a5ee5129a5ed4bb091f3236ffb45394df6281565b3480156104e157600080fd5b506102606104f0366004611c08565b611340565b34801561050157600080fd5b506101e5610510366004611904565b611438565b34801561052157600080fd5b50610260610530366004611cb3565b6114da565b34801561054157600080fd5b506101bb610550366004611d3a565b600660209081526000928352604080842090915290825290205460ff1681565b60007f80ac58cd000000000000000000000000000000000000000000000000000000007fffffffff000000000000000000000000000000000000000000000000000000008316148061060357507f5b5e139f000000000000000000000000000000000000000000000000000000007fffffffff000000000000000000000000000000000000000000000000000000008316145b8061064f57507f01ffc9a7000000000000000000000000000000000000000000000000000000007fffffffff000000000000000000000000000000000000000000000000000000008316145b92915050565b6000805461066290611d6d565b80601f016020809104026020016040519081016040528092919081815260200182805461068e90611d6d565b80156106db5780601f106106b0576101008083540402835291602001916106db565b820191906000526020600020905b8154815290600101906020018083116106be57829003601f168201915b505050505081565b6000818152600460205260409020546001600160a01b031633811480159061072f57506001600160a01b038116600090815260066020908152604080832033845290915290205460ff16155b15610766576040517fc19f17a900000000000000000000000000000000000000000000000000000000815260040160405180910390fd5b600082815260056020526040808220805473ffffffffffffffffffffffffffffffffffffffff19166001600160a01b0387811691821790925591518593918516917f8c5be1e5ebec7d5bd14f71427d1e84f3dd0314c0f7b2291e5b200ac8c7c3b92591a4505050565b6000818152600460205260409020546001600160a01b03848116911614610822576040517f30cd747100000000000000000000000000000000000000000000000000000000815260040160405180910390fd5b6001600160a01b03821661084957604051634e46966960e11b815260040160405180910390fd5b336001600160a01b0384161480159061087957506000818152600560205260409020546001600160a01b03163314155b80156108a957506001600160a01b038316600090815260066020908152604080832033845290915290205460ff16155b156108e0576040517fc19f17a900000000000000000000000000000000000000000000000000000000815260040160405180910390fd5b6001600160a01b03808416600081815260036020908152604080832080546000190190559386168083528483208054600101905585835260058252848320805473ffffffffffffffffffffffffffffffffffffffff199081169091556004909252848320805490921681179091559251849392917fddf252ad1be2c89b69c2b068fc378daa952ba7f163c4a11628f55a4df523b3ef91a4505050565b60007f000000000000000000000000000000000000000000000000000000000000000046146109b2576109ad611504565b905090565b507f000000000000000000000000000000000000000000000000000000000000000090565b6109e28383836107cf565b6001600160a01b0382163b15801590610abf57506040517f150b7a02000000000000000000000000000000000000000000000000000000008082523360048301526001600160a01b03858116602484015260448301849052608060648401526000608484015290919084169063150b7a029060a4016020604051808303816000875af1158015610a76573d6000803e3d6000fd5b505050506040513d601f19601f82011682018060405250810190610a9a9190611da8565b7fffffffff000000000000000000000000000000000000000000000000000000001614155b15610add57604051634e46966960e11b815260040160405180910390fd5b505050565b6000818152600460205260409020546001600160a01b03163314610b32576040517f30cd747100000000000000000000000000000000000000000000000000000000815260040160405180910390fd5b610b3b816115cf565b50565b83421115610b78576040517f0819bdcd00000000000000000000000000000000000000000000000000000000815260040160405180910390fd5b6000858152600460205260408120546001600160a01b031690610b9961097c565b60008881526007602090815260409182902080546001810190915582517f49ecf333e5b8c95c40fdafc95c1ad136e8914a8fb55e9dc8bb01eaa83a2df9ad818401526001600160a01b038d1681850152606081018c9052608081019190915260a08082018b90528351808303909101815260c08201909352825192909101919091207f190100000000000000000000000000000000000000000000000000000000000060e083015260e28201929092526101028101919091526101220160408051601f198184030181528282528051602091820120600080855291840180845281905260ff89169284019290925260608301879052608083018690529092509060019060a0016020604051602081039080840390855afa158015610cc1573d6000803e3d6000fd5b5050604051601f1901519150506001600160a01b038116610cf557604051638baa579f60e01b815260040160405180910390fd5b826001600160a01b0316816001600160a01b031614158015610d3d57506001600160a01b0380841660009081526006602090815260408083209385168352929052205460ff16155b15610d5b57604051638baa579f60e01b815260040160405180910390fd5b5050600086815260056020526040808220805473ffffffffffffffffffffffffffffffffffffffff19166001600160a01b038b811691821790925591518993918516917f8c5be1e5ebec7d5bd14f71427d1e84f3dd0314c0f7b2291e5b200ac8c7c3b92591a450505050505050565b6001805461066290611d6d565b3360008181526006602090815260408083206001600160a01b03871680855290835292819020805460ff191686151590811790915590519081529192917f17307eab39ab6107e8899845ad3d59bd9653f200f220920489ca2b5937696c31910160405180910390a35050565b6000818152600460205260408120546001600160a01b03163314610e93576040517f30cd747100000000000000000000000000000000000000000000000000000000815260040160405180910390fd5b6001600160a01b038316610eba57604051634e46966960e11b815260040160405180910390fd5b33600081815260036020908152604080832080546000190190556001600160a01b0387168084528184208054600101905586845260058352818420805473ffffffffffffffffffffffffffffffffffffffff1990811690915560049093528184208054909316811790925551859391927fddf252ad1be2c89b69c2b068fc378daa952ba7f163c4a11628f55a4df523b3ef91a450600192915050565b83421115610f90576040517f0819bdcd00000000000000000000000000000000000000000000000000000000815260040160405180910390fd5b6000610f9a61097c565b6001600160a01b0388811660008181526008602090815260409182902080546001810190915582517fdaab21af31ece73a508939fedd476a5ee5129a5ed4bb091f3236ffb45394df628184015280840194909452938b166060840152608083019390935260a08083018a90528151808403909101815260c0830190915280519201919091207f190100000000000000000000000000000000000000000000000000000000000060e083015260e28201929092526101028101919091526101220160408051601f198184030181528282528051602091820120600080855291840180845281905260ff88169284019290925260608301869052608083018590529092509060019060a0016020604051602081039080840390855afa1580156110c5573d6000803e3d6000fd5b5050604051601f1901519150506001600160a01b0381166110f957604051638baa579f60e01b815260040160405180910390fd5b876001600160a01b0316816001600160a01b03161415801561114157506001600160a01b0380891660009081526006602090815260408083209385168352929052205460ff16155b1561115f57604051638baa579f60e01b815260040160405180910390fd5b50506001600160a01b038681166000818152600660209081526040808320948a1680845294825291829020805460ff1916600190811790915591519182527f17307eab39ab6107e8899845ad3d59bd9653f200f220920489ca2b5937696c31910160405180910390a3505050505050565b60608167ffffffffffffffff8111156111eb576111eb611b99565b60405190808252806020026020018201604052801561121e57816020015b60608152602001906001900390816112095790505b50905060005b82811015611339576000803086868581811061124257611242611dc5565b90506020028101906112549190611ddb565b604051611262929190611e47565b600060405180830381855af49150503d806000811461129d576040519150601f19603f3d011682016040523d82523d6000602084013e6112a2565b606091505b509150915081611311576044815110156112bb57600080fd5b600481019050808060200190518101906112d59190611e57565b6040517f08c379a000000000000000000000000000000000000000000000000000000000815260040161130891906118f1565b60405180910390fd5b8084848151811061132457611324611dc5565b60209081029190910101525050600101611224565b5092915050565b61134b8484846107cf565b6001600160a01b0383163b1580159061141457506040517f150b7a0200000000000000000000000000000000000000000000000000000000808252906001600160a01b0385169063150b7a02906113ac903390899088908890600401611ece565b6020604051808303816000875af11580156113cb573d6000803e3d6000fd5b505050506040513d601f19601f820116820180604052508101906113ef9190611da8565b7fffffffff000000000000000000000000000000000000000000000000000000001614155b1561143257604051634e46966960e11b815260040160405180910390fd5b50505050565b600081815260096020526040902080546060919061145590611d6d565b80601f016020809104026020016040519081016040528092919081815260200182805461148190611d6d565b80156114ce5780601f106114a3576101008083540402835291602001916114ce565b820191906000526020600020905b8154815290600101906020018083116114b157829003601f168201915b50505050509050919050565b6114e484846116b4565b60008381526009602052604090206114fd9083836117ae565b5050505050565b60007f8b73c3c69bb8fe3d512ecc4cf759cc79239f7b179b0ffacaa9a75d522b39400f60006040516115369190611f0a565b604080519182900382208282018252600183527f31000000000000000000000000000000000000000000000000000000000000006020938401528151928301939093528101919091527fc89efdaa54c0f20c7adf612882df0950f5a951637e0307cdcb4c672f298b8bc660608201524660808201523060a082015260c00160405160208183030381529060405280519060200120905090565b6000818152600460205260409020546001600160a01b03168061161e576040517f4d5e5fb300000000000000000000000000000000000000000000000000000000815260040160405180910390fd5b600280546000199081019091556001600160a01b0382166000818152600360209081526040808320805490950190945585825260048152838220805473ffffffffffffffffffffffffffffffffffffffff199081169091556005909152838220805490911690559151849291907fddf252ad1be2c89b69c2b068fc378daa952ba7f163c4a11628f55a4df523b3ef908390a45050565b6001600160a01b0382166116db57604051634e46966960e11b815260040160405180910390fd5b6000818152600460205260409020546001600160a01b03161561172a576040517fddefae2800000000000000000000000000000000000000000000000000000000815260040160405180910390fd5b6002805460019081019091556001600160a01b0383166000818152600360209081526040808320805490950190945584825260049052828120805473ffffffffffffffffffffffffffffffffffffffff19168317905591518392907fddf252ad1be2c89b69c2b068fc378daa952ba7f163c4a11628f55a4df523b3ef908290a45050565b8280546117ba90611d6d565b90600052602060002090601f0160209004810192826117dc5760008555611822565b82601f106117f55782800160ff19823516178555611822565b82800160010185558215611822579182015b82811115611822578235825591602001919060010190611807565b5061182e929150611832565b5090565b5b8082111561182e5760008155600101611833565b7fffffffff0000000000000000000000000000000000000000000000000000000081168114610b3b57600080fd5b60006020828403121561188757600080fd5b813561189281611847565b9392505050565b60005b838110156118b457818101518382015260200161189c565b838111156114325750506000910152565b600081518084526118dd816020860160208601611899565b601f01601f19169290920160200192915050565b60208152600061189260208301846118c5565b60006020828403121561191657600080fd5b5035919050565b80356001600160a01b038116811461193457600080fd5b919050565b6000806040838503121561194c57600080fd5b6119558361191d565b946020939093013593505050565b60008060006060848603121561197857600080fd5b6119818461191d565b925061198f6020850161191d565b9150604084013590509250925092565b6000602082840312156119b157600080fd5b6118928261191d565b803560ff8116811461193457600080fd5b60008060008060008060c087890312156119e457600080fd5b6119ed8761191d565b95506020870135945060408701359350611a09606088016119ba565b92506080870135915060a087013590509295509295509295565b60008060408385031215611a3657600080fd5b611a3f8361191d565b915060208301358015158114611a5457600080fd5b809150509250929050565b60008060008060008060c08789031215611a7857600080fd5b611a818761191d565b9550611a8f6020880161191d565b945060408701359350611a09606088016119ba565b60008060208385031215611ab757600080fd5b823567ffffffffffffffff80821115611acf57600080fd5b818501915085601f830112611ae357600080fd5b813581811115611af257600080fd5b8660208260051b8501011115611b0757600080fd5b60209290920196919550909350505050565b6000602080830181845280855180835260408601915060408160051b870101925083870160005b82811015611b8c577fffffffffffffffffffffffffffffffffffffffffffffffffffffffffffffffc0888603018452611b7a8583516118c5565b94509285019290850190600101611b40565b5092979650505050505050565b634e487b7160e01b600052604160045260246000fd5b604051601f8201601f1916810167ffffffffffffffff81118282101715611bd857611bd8611b99565b604052919050565b600067ffffffffffffffff821115611bfa57611bfa611b99565b50601f01601f191660200190565b60008060008060808587031215611c1e57600080fd5b611c278561191d565b9350611c356020860161191d565b925060408501359150606085013567ffffffffffffffff811115611c5857600080fd5b8501601f81018713611c6957600080fd5b8035611c7c611c7782611be0565b611baf565b818152886020838501011115611c9157600080fd5b8160208401602083013760006020838301015280935050505092959194509250565b60008060008060608587031215611cc957600080fd5b611cd28561191d565b935060208501359250604085013567ffffffffffffffff80821115611cf657600080fd5b818701915087601f830112611d0a57600080fd5b813581811115611d1957600080fd5b886020828501011115611d2b57600080fd5b95989497505060200194505050565b60008060408385031215611d4d57600080fd5b611d568361191d565b9150611d646020840161191d565b90509250929050565b600181811c90821680611d8157607f821691505b60208210811415611da257634e487b7160e01b600052602260045260246000fd5b50919050565b600060208284031215611dba57600080fd5b815161189281611847565b634e487b7160e01b600052603260045260246000fd5b60008083357fffffffffffffffffffffffffffffffffffffffffffffffffffffffffffffffe1843603018112611e1057600080fd5b83018035915067ffffffffffffffff821115611e2b57600080fd5b602001915036819003821315611e4057600080fd5b9250929050565b8183823760009101908152919050565b600060208284031215611e6957600080fd5b815167ffffffffffffffff811115611e8057600080fd5b8201601f81018413611e9157600080fd5b8051611e9f611c7782611be0565b818152856020838501011115611eb457600080fd5b611ec5826020830160208601611899565b95945050505050565b60006001600160a01b03808716835280861660208401525083604083015260806060830152611f0060808301846118c5565b9695505050505050565b600080835481600182811c915080831680611f2657607f831692505b6020808410821415611f4657634e487b7160e01b86526022600452602486fd5b818015611f5a5760018114611f6b57611f98565b60ff19861689528489019650611f98565b60008a81526020902060005b86811015611f905781548b820152908501908301611f77565b505084890196505b50949897505050505050505056fea2646970667358221220d6ca6bb3dd9c530e7ce2093361663c4c1be51bfe1644222a945e32a2b6db3b0c64736f6c634300080b0033",
  "linkReferences": {},
  "deployedLinkReferences": {}
}