{
  "_format": "hh-sol-artifact-1",
  "contractName": "KaliDAO",
  "sourceName": "contracts/KaliDAO.sol",
  "abi": [
    {
      "inputs": [],
      "name": "AlreadyVoted",
      "type": "error"
    },
    {
      "inputs": [],
      "name": "InitCallFail",
      "type": "error"
    },
    {
      "inputs": [],
      "name": "Initialized",
      "type": "error"
    },
    {
      "inputs": [],
      "name": "InvalidNonce",
      "type": "error"
    },
    {
      "inputs": [],
      "name": "InvalidSignature",
      "type": "error"
    },
    {
      "inputs": [],
      "name": "NoArrayParity",
      "type": "error"
    },
    {
      "inputs": [],
      "name": "NotCurrentProposal",
      "type": "error"
    },
    {
      "inputs": [],
      "name": "NotDetermined",
      "type": "error"
    },
    {
      "inputs": [],
      "name": "NotExtension",
      "type": "error"
    },
    {
      "inputs": [],
      "name": "NotMember",
      "type": "error"
    },
    {
      "inputs": [],
      "name": "NotProposer",
      "type": "error"
    },
    {
      "inputs": [],
      "name": "NotVoteable",
      "type": "error"
    },
    {
      "inputs": [],
      "name": "NullAddress",
      "type": "error"
    },
    {
      "inputs": [],
      "name": "Paused",
      "type": "error"
    },
    {
      "inputs": [],
      "name": "PeriodBounds",
      "type": "error"
    },
    {
      "inputs": [],
      "name": "PrevNotProcessed",
      "type": "error"
    },
    {
      "inputs": [],
      "name": "QuorumMax",
      "type": "error"
    },
    {
      "inputs": [],
      "name": "Reentrancy",
      "type": "error"
    },
    {
      "inputs": [],
      "name": "SignatureExpired",
      "type": "error"
    },
    {
      "inputs": [],
      "name": "Sponsored",
      "type": "error"
    },
    {
      "inputs": [],
      "name": "SupermajorityBounds",
      "type": "error"
    },
    {
      "inputs": [],
      "name": "TypeBounds",
      "type": "error"
    },
    {
      "inputs": [],
      "name": "Uint32max",
      "type": "error"
    },
    {
      "inputs": [],
      "name": "Uint96max",
      "type": "error"
    },
    {
      "inputs": [],
      "name": "VotingNotEnded",
      "type": "error"
    },
    {
      "anonymous": false,
      "inputs": [
        {
          "indexed": true,
          "internalType": "address",
          "name": "owner",
          "type": "address"
        },
        {
          "indexed": true,
          "internalType": "address",
          "name": "spender",
          "type": "address"
        },
        {
          "indexed": false,
          "internalType": "uint256",
          "name": "amount",
          "type": "uint256"
        }
      ],
      "name": "Approval",
      "type": "event"
    },
    {
      "anonymous": false,
      "inputs": [
        {
          "indexed": true,
          "internalType": "address",
          "name": "delegator",
          "type": "address"
        },
        {
          "indexed": true,
          "internalType": "address",
          "name": "fromDelegate",
          "type": "address"
        },
        {
          "indexed": true,
          "internalType": "address",
          "name": "toDelegate",
          "type": "address"
        }
      ],
      "name": "DelegateChanged",
      "type": "event"
    },
    {
      "anonymous": false,
      "inputs": [
        {
          "indexed": true,
          "internalType": "address",
          "name": "delegate",
          "type": "address"
        },
        {
          "indexed": false,
          "internalType": "uint256",
          "name": "previousBalance",
          "type": "uint256"
        },
        {
          "indexed": false,
          "internalType": "uint256",
          "name": "newBalance",
          "type": "uint256"
        }
      ],
      "name": "DelegateVotesChanged",
      "type": "event"
    },
    {
      "anonymous": false,
      "inputs": [
        {
          "indexed": true,
          "internalType": "address",
          "name": "proposer",
          "type": "address"
        },
        {
          "indexed": true,
          "internalType": "uint256",
          "name": "proposal",
          "type": "uint256"
        },
        {
          "indexed": true,
          "internalType": "enum KaliDAO.ProposalType",
          "name": "proposalType",
          "type": "uint8"
        },
        {
          "indexed": false,
          "internalType": "string",
          "name": "description",
          "type": "string"
        },
        {
          "indexed": false,
          "internalType": "address[]",
          "name": "accounts",
          "type": "address[]"
        },
        {
          "indexed": false,
          "internalType": "uint256[]",
          "name": "amounts",
          "type": "uint256[]"
        },
        {
          "indexed": false,
          "internalType": "bytes[]",
          "name": "payloads",
          "type": "bytes[]"
        }
      ],
      "name": "NewProposal",
      "type": "event"
    },
    {
      "anonymous": false,
      "inputs": [
        {
          "indexed": false,
          "internalType": "bool",
          "name": "paused",
          "type": "bool"
        }
      ],
      "name": "PauseFlipped",
      "type": "event"
    },
    {
      "anonymous": false,
      "inputs": [
        {
          "indexed": true,
          "internalType": "address",
          "name": "proposer",
          "type": "address"
        },
        {
          "indexed": true,
          "internalType": "uint256",
          "name": "proposal",
          "type": "uint256"
        }
      ],
      "name": "ProposalCancelled",
      "type": "event"
    },
    {
      "anonymous": false,
      "inputs": [
        {
          "indexed": true,
          "internalType": "uint256",
          "name": "proposal",
          "type": "uint256"
        },
        {
          "indexed": true,
          "internalType": "bool",
          "name": "didProposalPass",
          "type": "bool"
        }
      ],
      "name": "ProposalProcessed",
      "type": "event"
    },
    {
      "anonymous": false,
      "inputs": [
        {
          "indexed": true,
          "internalType": "address",
          "name": "sponsor",
          "type": "address"
        },
        {
          "indexed": true,
          "internalType": "uint256",
          "name": "proposal",
          "type": "uint256"
        }
      ],
      "name": "ProposalSponsored",
      "type": "event"
    },
    {
      "anonymous": false,
      "inputs": [
        {
          "indexed": true,
          "internalType": "address",
          "name": "from",
          "type": "address"
        },
        {
          "indexed": true,
          "internalType": "address",
          "name": "to",
          "type": "address"
        },
        {
          "indexed": false,
          "internalType": "uint256",
          "name": "amount",
          "type": "uint256"
        }
      ],
      "name": "Transfer",
      "type": "event"
    },
    {
      "anonymous": false,
      "inputs": [
        {
          "indexed": true,
          "internalType": "address",
          "name": "voter",
          "type": "address"
        },
        {
          "indexed": true,
          "internalType": "uint256",
          "name": "proposal",
          "type": "uint256"
        },
        {
          "indexed": true,
          "internalType": "bool",
          "name": "approve",
          "type": "bool"
        }
      ],
      "name": "VoteCast",
      "type": "event"
    },
    {
      "inputs": [],
      "name": "DELEGATION_TYPEHASH",
      "outputs": [
        {
          "internalType": "bytes32",
          "name": "",
          "type": "bytes32"
        }
      ],
      "stateMutability": "view",
      "type": "function"
    },
    {
      "inputs": [],
      "name": "DOMAIN_SEPARATOR",
      "outputs": [
        {
          "internalType": "bytes32",
          "name": "",
          "type": "bytes32"
        }
      ],
      "stateMutability": "view",
      "type": "function"
    },
    {
      "inputs": [],
      "name": "PERMIT_TYPEHASH",
      "outputs": [
        {
          "internalType": "bytes32",
          "name": "",
          "type": "bytes32"
        }
      ],
      "stateMutability": "view",
      "type": "function"
    },
    {
      "inputs": [],
      "name": "VOTE_HASH",
      "outputs": [
        {
          "internalType": "bytes32",
          "name": "",
          "type": "bytes32"
        }
      ],
      "stateMutability": "view",
      "type": "function"
    },
    {
      "inputs": [
        {
          "internalType": "address",
          "name": "",
          "type": "address"
        },
        {
          "internalType": "address",
          "name": "",
          "type": "address"
        }
      ],
      "name": "allowance",
      "outputs": [
        {
          "internalType": "uint256",
          "name": "",
          "type": "uint256"
        }
      ],
      "stateMutability": "view",
      "type": "function"
    },
    {
      "inputs": [
        {
          "internalType": "address",
          "name": "spender",
          "type": "address"
        },
        {
          "internalType": "uint256",
          "name": "amount",
          "type": "uint256"
        }
      ],
      "name": "approve",
      "outputs": [
        {
          "internalType": "bool",
          "name": "",
          "type": "bool"
        }
      ],
      "stateMutability": "payable",
      "type": "function"
    },
    {
      "inputs": [
        {
          "internalType": "address",
          "name": "",
          "type": "address"
        }
      ],
      "name": "balanceOf",
      "outputs": [
        {
          "internalType": "uint256",
          "name": "",
          "type": "uint256"
        }
      ],
      "stateMutability": "view",
      "type": "function"
    },
    {
      "inputs": [
        {
          "internalType": "uint256",
          "name": "amount",
          "type": "uint256"
        }
      ],
      "name": "burn",
      "outputs": [],
      "stateMutability": "payable",
      "type": "function"
    },
    {
      "inputs": [
        {
          "internalType": "address",
          "name": "from",
          "type": "address"
        },
        {
          "internalType": "uint256",
          "name": "amount",
          "type": "uint256"
        }
      ],
      "name": "burnFrom",
      "outputs": [],
      "stateMutability": "payable",
      "type": "function"
    },
    {
      "inputs": [
        {
          "internalType": "address",
          "name": "from",
          "type": "address"
        },
        {
          "internalType": "uint256",
          "name": "amount",
          "type": "uint256"
        }
      ],
      "name": "burnShares",
      "outputs": [],
      "stateMutability": "payable",
      "type": "function"
    },
    {
      "inputs": [
        {
          "internalType": "address",
          "name": "extension",
          "type": "address"
        },
        {
          "internalType": "uint256",
          "name": "amount",
          "type": "uint256"
        },
        {
          "internalType": "bytes",
          "name": "extensionData",
          "type": "bytes"
        }
      ],
      "name": "callExtension",
      "outputs": [
        {
          "internalType": "bool",
          "name": "mint",
          "type": "bool"
        },
        {
          "internalType": "uint256",
          "name": "amountOut",
          "type": "uint256"
        }
      ],
      "stateMutability": "payable",
      "type": "function"
    },
    {
      "inputs": [
        {
          "internalType": "uint256",
          "name": "proposal",
          "type": "uint256"
        }
      ],
      "name": "cancelProposal",
      "outputs": [],
      "stateMutability": "payable",
      "type": "function"
    },
    {
      "inputs": [
        {
          "internalType": "address",
          "name": "",
          "type": "address"
        },
        {
          "internalType": "uint256",
          "name": "",
          "type": "uint256"
        }
      ],
      "name": "checkpoints",
      "outputs": [
        {
          "internalType": "uint32",
          "name": "fromTimestamp",
          "type": "uint32"
        },
        {
          "internalType": "uint96",
          "name": "votes",
          "type": "uint96"
        }
      ],
      "stateMutability": "view",
      "type": "function"
    },
    {
      "inputs": [],
      "name": "decimals",
      "outputs": [
        {
          "internalType": "uint8",
          "name": "",
          "type": "uint8"
        }
      ],
      "stateMutability": "view",
      "type": "function"
    },
    {
      "inputs": [
        {
          "internalType": "address",
          "name": "delegatee",
          "type": "address"
        }
      ],
      "name": "delegate",
      "outputs": [],
      "stateMutability": "payable",
      "type": "function"
    },
    {
      "inputs": [
        {
          "internalType": "address",
          "name": "delegatee",
          "type": "address"
        },
        {
          "internalType": "uint256",
          "name": "nonce",
          "type": "uint256"
        },
        {
          "internalType": "uint256",
          "name": "deadline",
          "type": "uint256"
        },
        {
          "internalType": "uint8",
          "name": "v",
          "type": "uint8"
        },
        {
          "internalType": "bytes32",
          "name": "r",
          "type": "bytes32"
        },
        {
          "internalType": "bytes32",
          "name": "s",
          "type": "bytes32"
        }
      ],
      "name": "delegateBySig",
      "outputs": [],
      "stateMutability": "payable",
      "type": "function"
    },
    {
      "inputs": [
        {
          "internalType": "address",
          "name": "delegator",
          "type": "address"
        }
      ],
      "name": "delegates",
      "outputs": [
        {
          "internalType": "address",
          "name": "",
          "type": "address"
        }
      ],
      "stateMutability": "view",
      "type": "function"
    },
    {
      "inputs": [],
      "name": "docs",
      "outputs": [
        {
          "internalType": "string",
          "name": "",
          "type": "string"
        }
      ],
      "stateMutability": "view",
      "type": "function"
    },
    {
      "inputs": [
        {
          "internalType": "address",
          "name": "",
          "type": "address"
        }
      ],
      "name": "extensions",
      "outputs": [
        {
          "internalType": "bool",
          "name": "",
          "type": "bool"
        }
      ],
      "stateMutability": "view",
      "type": "function"
    },
    {
      "inputs": [
        {
          "internalType": "address",
          "name": "account",
          "type": "address"
        }
      ],
      "name": "getCurrentVotes",
      "outputs": [
        {
          "internalType": "uint256",
          "name": "",
          "type": "uint256"
        }
      ],
      "stateMutability": "view",
      "type": "function"
    },
    {
      "inputs": [
        {
          "internalType": "address",
          "name": "account",
          "type": "address"
        },
        {
          "internalType": "uint256",
          "name": "timestamp",
          "type": "uint256"
        }
      ],
      "name": "getPriorVotes",
      "outputs": [
        {
          "internalType": "uint96",
          "name": "",
          "type": "uint96"
        }
      ],
      "stateMutability": "view",
      "type": "function"
    },
    {
      "inputs": [
        {
          "internalType": "uint256",
          "name": "proposal",
          "type": "uint256"
        }
      ],
      "name": "getProposalArrays",
      "outputs": [
        {
          "internalType": "address[]",
          "name": "accounts",
          "type": "address[]"
        },
        {
          "internalType": "uint256[]",
          "name": "amounts",
          "type": "uint256[]"
        },
        {
          "internalType": "bytes[]",
          "name": "payloads",
          "type": "bytes[]"
        }
      ],
      "stateMutability": "view",
      "type": "function"
    },
    {
      "inputs": [],
      "name": "gracePeriod",
      "outputs": [
        {
          "internalType": "uint32",
          "name": "",
          "type": "uint32"
        }
      ],
      "stateMutability": "view",
      "type": "function"
    },
    {
      "inputs": [
        {
          "internalType": "string",
          "name": "name_",
          "type": "string"
        },
        {
          "internalType": "string",
          "name": "symbol_",
          "type": "string"
        },
        {
          "internalType": "string",
          "name": "docs_",
          "type": "string"
        },
        {
          "internalType": "bool",
          "name": "paused_",
          "type": "bool"
        },
        {
          "internalType": "address[]",
          "name": "extensions_",
          "type": "address[]"
        },
        {
          "internalType": "bytes[]",
          "name": "extensionsData_",
          "type": "bytes[]"
        },
        {
          "internalType": "address[]",
          "name": "voters_",
          "type": "address[]"
        },
        {
          "internalType": "uint256[]",
          "name": "shares_",
          "type": "uint256[]"
        },
        {
          "internalType": "uint32[16]",
          "name": "govSettings_",
          "type": "uint32[16]"
        }
      ],
      "name": "init",
      "outputs": [],
      "stateMutability": "payable",
      "type": "function"
    },
    {
      "inputs": [
        {
          "internalType": "address",
          "name": "",
          "type": "address"
        }
      ],
      "name": "lastYesVote",
      "outputs": [
        {
          "internalType": "uint256",
          "name": "",
          "type": "uint256"
        }
      ],
      "stateMutability": "view",
      "type": "function"
    },
    {
      "inputs": [
        {
          "internalType": "address",
          "name": "to",
          "type": "address"
        },
        {
          "internalType": "uint256",
          "name": "amount",
          "type": "uint256"
        }
      ],
      "name": "mintShares",
      "outputs": [],
      "stateMutability": "payable",
      "type": "function"
    },
    {
      "inputs": [
        {
          "internalType": "bytes[]",
          "name": "data",
          "type": "bytes[]"
        }
      ],
      "name": "multicall",
      "outputs": [
        {
          "internalType": "bytes[]",
          "name": "results",
          "type": "bytes[]"
        }
      ],
      "stateMutability": "payable",
      "type": "function"
    },
    {
      "inputs": [],
      "name": "name",
      "outputs": [
        {
          "internalType": "string",
          "name": "",
          "type": "string"
        }
      ],
      "stateMutability": "view",
      "type": "function"
    },
    {
      "inputs": [
        {
          "internalType": "address",
          "name": "",
          "type": "address"
        }
      ],
      "name": "nonces",
      "outputs": [
        {
          "internalType": "uint256",
          "name": "",
          "type": "uint256"
        }
      ],
      "stateMutability": "view",
      "type": "function"
    },
    {
      "inputs": [
        {
          "internalType": "address",
          "name": "",
          "type": "address"
        }
      ],
      "name": "numCheckpoints",
      "outputs": [
        {
          "internalType": "uint256",
          "name": "",
          "type": "uint256"
        }
      ],
      "stateMutability": "view",
      "type": "function"
    },
    {
      "inputs": [
        {
          "internalType": "address",
          "name": "",
          "type": "address"
        },
        {
          "internalType": "address",
          "name": "",
          "type": "address"
        },
        {
          "internalType": "uint256[]",
          "name": "",
          "type": "uint256[]"
        },
        {
          "internalType": "uint256[]",
          "name": "",
          "type": "uint256[]"
        },
        {
          "internalType": "bytes",
          "name": "",
          "type": "bytes"
        }
      ],
      "name": "onERC1155BatchReceived",
      "outputs": [
        {
          "internalType": "bytes4",
          "name": "sig",
          "type": "bytes4"
        }
      ],
      "stateMutability": "pure",
      "type": "function"
    },
    {
      "inputs": [
        {
          "internalType": "address",
          "name": "",
          "type": "address"
        },
        {
          "internalType": "address",
          "name": "",
          "type": "address"
        },
        {
          "internalType": "uint256",
          "name": "",
          "type": "uint256"
        },
        {
          "internalType": "uint256",
          "name": "",
          "type": "uint256"
        },
        {
          "internalType": "bytes",
          "name": "",
          "type": "bytes"
        }
      ],
      "name": "onERC1155Received",
      "outputs": [
        {
          "internalType": "bytes4",
          "name": "sig",
          "type": "bytes4"
        }
      ],
      "stateMutability": "pure",
      "type": "function"
    },
    {
      "inputs": [
        {
          "internalType": "address",
          "name": "",
          "type": "address"
        },
        {
          "internalType": "address",
          "name": "",
          "type": "address"
        },
        {
          "internalType": "uint256",
          "name": "",
          "type": "uint256"
        },
        {
          "internalType": "bytes",
          "name": "",
          "type": "bytes"
        }
      ],
      "name": "onERC721Received",
      "outputs": [
        {
          "internalType": "bytes4",
          "name": "sig",
          "type": "bytes4"
        }
      ],
      "stateMutability": "pure",
      "type": "function"
    },
    {
      "inputs": [],
      "name": "paused",
      "outputs": [
        {
          "internalType": "bool",
          "name": "",
          "type": "bool"
        }
      ],
      "stateMutability": "view",
      "type": "function"
    },
    {
      "inputs": [
        {
          "internalType": "address",
          "name": "owner",
          "type": "address"
        },
        {
          "internalType": "address",
          "name": "spender",
          "type": "address"
        },
        {
          "internalType": "uint256",
          "name": "value",
          "type": "uint256"
        },
        {
          "internalType": "uint256",
          "name": "deadline",
          "type": "uint256"
        },
        {
          "internalType": "uint8",
          "name": "v",
          "type": "uint8"
        },
        {
          "internalType": "bytes32",
          "name": "r",
          "type": "bytes32"
        },
        {
          "internalType": "bytes32",
          "name": "s",
          "type": "bytes32"
        }
      ],
      "name": "permit",
      "outputs": [],
      "stateMutability": "payable",
      "type": "function"
    },
    {
      "inputs": [
        {
          "internalType": "uint256",
          "name": "proposal",
          "type": "uint256"
        }
      ],
      "name": "processProposal",
      "outputs": [
        {
          "internalType": "bool",
          "name": "didProposalPass",
          "type": "bool"
        },
        {
          "internalType": "bytes[]",
          "name": "results",
          "type": "bytes[]"
        }
      ],
      "stateMutability": "payable",
      "type": "function"
    },
    {
      "inputs": [],
      "name": "proposalCount",
      "outputs": [
        {
          "internalType": "uint256",
          "name": "",
          "type": "uint256"
        }
      ],
      "stateMutability": "view",
      "type": "function"
    },
    {
      "inputs": [
        {
          "internalType": "uint256",
          "name": "",
          "type": "uint256"
        }
      ],
      "name": "proposalStates",
      "outputs": [
        {
          "internalType": "bool",
          "name": "passed",
          "type": "bool"
        },
        {
          "internalType": "bool",
          "name": "processed",
          "type": "bool"
        }
      ],
      "stateMutability": "view",
      "type": "function"
    },
    {
      "inputs": [
        {
          "internalType": "enum KaliDAO.ProposalType",
          "name": "",
          "type": "uint8"
        }
      ],
      "name": "proposalVoteTypes",
      "outputs": [
        {
          "internalType": "enum KaliDAO.VoteType",
          "name": "",
          "type": "uint8"
        }
      ],
      "stateMutability": "view",
      "type": "function"
    },
    {
      "inputs": [
        {
          "internalType": "uint256",
          "name": "",
          "type": "uint256"
        }
      ],
      "name": "proposals",
      "outputs": [
        {
          "internalType": "enum KaliDAO.ProposalType",
          "name": "proposalType",
          "type": "uint8"
        },
        {
          "internalType": "string",
          "name": "description",
          "type": "string"
        },
        {
          "internalType": "uint256",
          "name": "prevProposal",
          "type": "uint256"
        },
        {
          "internalType": "uint96",
          "name": "yesVotes",
          "type": "uint96"
        },
        {
          "internalType": "uint96",
          "name": "noVotes",
          "type": "uint96"
        },
        {
          "internalType": "uint32",
          "name": "creationTime",
          "type": "uint32"
        },
        {
          "internalType": "address",
          "name": "proposer",
          "type": "address"
        }
      ],
      "stateMutability": "view",
      "type": "function"
    },
    {
      "inputs": [
        {
          "internalType": "enum KaliDAO.ProposalType",
          "name": "proposalType",
          "type": "uint8"
        },
        {
          "internalType": "string",
          "name": "description",
          "type": "string"
        },
        {
          "internalType": "address[]",
          "name": "accounts",
          "type": "address[]"
        },
        {
          "internalType": "uint256[]",
          "name": "amounts",
          "type": "uint256[]"
        },
        {
          "internalType": "bytes[]",
          "name": "payloads",
          "type": "bytes[]"
        }
      ],
      "name": "propose",
      "outputs": [
        {
          "internalType": "uint256",
          "name": "proposal",
          "type": "uint256"
        }
      ],
      "stateMutability": "payable",
      "type": "function"
    },
    {
      "inputs": [],
      "name": "quorum",
      "outputs": [
        {
          "internalType": "uint32",
          "name": "",
          "type": "uint32"
        }
      ],
      "stateMutability": "view",
      "type": "function"
    },
    {
      "inputs": [
        {
          "internalType": "uint256",
          "name": "proposal",
          "type": "uint256"
        }
      ],
      "name": "sponsorProposal",
      "outputs": [],
      "stateMutability": "payable",
      "type": "function"
    },
    {
      "inputs": [],
      "name": "supermajority",
      "outputs": [
        {
          "internalType": "uint32",
          "name": "",
          "type": "uint32"
        }
      ],
      "stateMutability": "view",
      "type": "function"
    },
    {
      "inputs": [],
      "name": "symbol",
      "outputs": [
        {
          "internalType": "string",
          "name": "",
          "type": "string"
        }
      ],
      "stateMutability": "view",
      "type": "function"
    },
    {
      "inputs": [],
      "name": "totalSupply",
      "outputs": [
        {
          "internalType": "uint256",
          "name": "",
          "type": "uint256"
        }
      ],
      "stateMutability": "view",
      "type": "function"
    },
    {
      "inputs": [
        {
          "internalType": "address",
          "name": "to",
          "type": "address"
        },
        {
          "internalType": "uint256",
          "name": "amount",
          "type": "uint256"
        }
      ],
      "name": "transfer",
      "outputs": [
        {
          "internalType": "bool",
          "name": "",
          "type": "bool"
        }
      ],
      "stateMutability": "payable",
      "type": "function"
    },
    {
      "inputs": [
        {
          "internalType": "address",
          "name": "from",
          "type": "address"
        },
        {
          "internalType": "address",
          "name": "to",
          "type": "address"
        },
        {
          "internalType": "uint256",
          "name": "amount",
          "type": "uint256"
        }
      ],
      "name": "transferFrom",
      "outputs": [
        {
          "internalType": "bool",
          "name": "",
          "type": "bool"
        }
      ],
      "stateMutability": "payable",
      "type": "function"
    },
    {
      "inputs": [
        {
          "internalType": "uint256",
          "name": "proposal",
          "type": "uint256"
        },
        {
          "internalType": "bool",
          "name": "approve",
          "type": "bool"
        }
      ],
      "name": "vote",
      "outputs": [],
      "stateMutability": "payable",
      "type": "function"
    },
    {
      "inputs": [
        {
          "internalType": "address",
          "name": "signer",
          "type": "address"
        },
        {
          "internalType": "uint256",
          "name": "proposal",
          "type": "uint256"
        },
        {
          "internalType": "bool",
          "name": "approve",
          "type": "bool"
        },
        {
          "internalType": "uint8",
          "name": "v",
          "type": "uint8"
        },
        {
          "internalType": "bytes32",
          "name": "r",
          "type": "bytes32"
        },
        {
          "internalType": "bytes32",
          "name": "s",
          "type": "bytes32"
        }
      ],
      "name": "voteBySig",
      "outputs": [],
      "stateMutability": "payable",
      "type": "function"
    },
    {
      "inputs": [
        {
          "internalType": "uint256",
          "name": "",
          "type": "uint256"
        },
        {
          "internalType": "address",
          "name": "",
          "type": "address"
        }
      ],
      "name": "voted",
      "outputs": [
        {
          "internalType": "bool",
          "name": "",
          "type": "bool"
        }
      ],
      "stateMutability": "view",
      "type": "function"
    },
    {
      "inputs": [],
      "name": "votingPeriod",
      "outputs": [
        {
          "internalType": "uint32",
          "name": "",
          "type": "uint32"
        }
      ],
      "stateMutability": "view",
      "type": "function"
    },
    {
      "stateMutability": "payable",
      "type": "receive"
    }
  ],
  "bytecode": "0x60806040526001600c5534801561001557600080fd5b50615b3e80620000266000396000f3fe6080604052600436106103435760003560e01c806370a08231116101b0578063b4b5ea57116100ec578063da35c66411610095578063e63bc62d1161006f578063e63bc62d14610ada578063e7a324dc14610afb578063ee7a7c0414610b2f578063f23a6e6114610b4257600080fd5b8063da35c66414610a79578063dd62ed3e14610a8f578063e0a8f6f514610ac757600080fd5b8063c3cda520116100c6578063c3cda52014610a40578063c9d27afe14610a53578063d505accf14610a6657600080fd5b8063b4b5ea57146109a8578063b9a08bd7146109c8578063bc197c81146109f857600080fd5b806395d89b41116101595780639b4a89ce116101335780639b4a89ce1461093d578063a06db7dc14610950578063a9059cbb14610975578063ac9650d81461098857600080fd5b806395d89b41146109025780639746d9401461091757806397b55f811461092a57600080fd5b80637867f7271161018a5780637867f7271461088e57806379cc6790146108c25780637ecebe00146108d557600080fd5b806370a08231146107e757806371cda63b14610814578063782d6fe11461085157600080fd5b80633644e5151161027f5780635b1d1c1f116102285780635c975abb116102025780635c975abb1461072157806366ee13b31461073b5780636a74effc1461078b5780636fcfff45146107ba57600080fd5b80635b1d1c1f146106cc5780635c19a95c146106e15780635c31f220146106f457600080fd5b80635277b4ae116102595780635277b4ae14610646578063528c198a14610681578063587cde1e1461069457600080fd5b80633644e515146105f457806336ceb11a1461060957806342966c681461063357600080fd5b80631703a018116102ec57806323b872dd116102c657806323b872dd14610559578063255c87bf1461056c57806330adf81f14610599578063313ce567146105cd57600080fd5b80631703a018146104f757806318160ddd146105205780631a9f05971461054457600080fd5b8063095ea7b31161031d578063095ea7b3146103df5780630cdfebfa14610402578063150b7a021461048157600080fd5b8063013cf08b1461034f57806302a251a31461038b57806306fdde03146103bd57600080fd5b3661034a57005b600080fd5b34801561035b57600080fd5b5061036f61036a366004614a19565b610b88565b6040516103829796959493929190614aa4565b60405180910390f35b34801561039757600080fd5b506010546103a89063ffffffff1681565b60405163ffffffff9091168152602001610382565b3480156103c957600080fd5b506103d2610c7d565b6040516103829190614b16565b6103f26103ed366004614b45565b610d0b565b6040519015158152602001610382565b34801561040e57600080fd5b5061045861041d366004614b45565b600a60209081526000928352604080842090915290825290205463ffffffff81169064010000000090046bffffffffffffffffffffffff1682565b6040805163ffffffff90931683526bffffffffffffffffffffffff909116602083015201610382565b34801561048d57600080fd5b506104c661049c366004614bb8565b507f150b7a0200000000000000000000000000000000000000000000000000000000949350505050565b6040517fffffffff000000000000000000000000000000000000000000000000000000009091168152602001610382565b34801561050357600080fd5b506010546103a89068010000000000000000900463ffffffff1681565b34801561052c57600080fd5b5061053660025481565b604051908152602001610382565b610557610552366004614c51565b610d78565b005b6103f2610567366004614cb2565b610f41565b34801561057857600080fd5b50610536610587366004614cee565b60166020526000908152604090205481565b3480156105a557600080fd5b506105367f6e71edae12b1b97f4d1f60370fef10105fa2faae0126114a169c64845d6126c981565b3480156105d957600080fd5b506105e2601281565b60405160ff9091168152602001610382565b34801561060057600080fd5b506105366110a4565b61061c610617366004614d09565b6110c3565b604080519215158352602083019190915201610382565b610557610641366004614a19565b611210565b34801561065257600080fd5b506103f2610661366004614d63565b601560209081526000928352604080842090915290825290205460ff1681565b61055761068f366004614b45565b61121d565b3480156106a057600080fd5b506106b46106af366004614cee565b611274565b6040516001600160a01b039091168152602001610382565b3480156106d857600080fd5b506103d26112a4565b6105576106ef366004614cee565b6112b1565b34801561070057600080fd5b506010546103a8906c01000000000000000000000000900463ffffffff1681565b34801561072d57600080fd5b506008546103f29060ff1681565b34801561074757600080fd5b50610774610756366004614a19565b60136020526000908152604090205460ff8082169161010090041682565b604080519215158352901515602083015201610382565b34801561079757600080fd5b506107ab6107a6366004614a19565b6112bb565b60405161038293929190614de4565b3480156107c657600080fd5b506105366107d5366004614cee565b600b6020526000908152604090205481565b3480156107f357600080fd5b50610536610802366004614cee565b60036020526000908152604090205481565b34801561082057600080fd5b5061084461082f366004614e8a565b60146020526000908152604090205460ff1681565b6040516103829190614ea5565b34801561085d57600080fd5b5061087161086c366004614b45565b611472565b6040516bffffffffffffffffffffffff9091168152602001610382565b34801561089a57600080fd5b506105367f39bf2cb78b4fee6e3427925ed40cf1f955458a02ac29c312c7be5fde74d0dd7a81565b6105576108d0366004614b45565b611679565b3480156108e157600080fd5b506105366108f0366004614cee565b60076020526000908152604090205481565b34801561090e57600080fd5b506103d26116e8565b610557610925366004614a19565b6116f5565b61055761093836600461518b565b611888565b61053661094b3660046152da565b6121d4565b34801561095c57600080fd5b506010546103a890640100000000900463ffffffff1681565b6103f2610983366004614b45565b61281e565b61099b6109963660046153b1565b6128e9565b60405161038291906153f3565b3480156109b457600080fd5b506105366109c3366004614cee565b612a59565b3480156109d457600080fd5b506103f26109e3366004614cee565b60116020526000908152604090205460ff1681565b348015610a0457600080fd5b506104c6610a13366004615406565b507fbc197c8100000000000000000000000000000000000000000000000000000000979650505050505050565b610557610a4e3660046154c1565b612ad2565b610557610a613660046154ff565b612cde565b610557610a7436600461552f565b612d1b565b348015610a8557600080fd5b50610536600f5481565b348015610a9b57600080fd5b50610536610aaa366004615599565b600460209081526000928352604080842090915290825290205481565b610557610ad5366004614a19565b612f6a565b610aed610ae8366004614a19565b613106565b6040516103829291906155c3565b348015610b0757600080fd5b506105367f76995fe87be88484696cfd6792aeb71e0b61f81dfa3b641e5adffa38a0d3b8e281565b610557610b3d366004614b45565b613cb5565b348015610b4e57600080fd5b506104c6610b5d3660046155e6565b507ff23a6e610000000000000000000000000000000000000000000000000000000095945050505050565b6012602052600090815260409020805460018201805460ff9092169291610bae9061565e565b80601f0160208091040260200160405190810160405280929190818152602001828054610bda9061565e565b8015610c275780601f10610bfc57610100808354040283529160200191610c27565b820191906000526020600020905b815481529060010190602001808311610c0a57829003601f168201915b5050505060058301546006840154600790940154929390926bffffffffffffffffffffffff80831693506c0100000000000000000000000083041691600160c01b900463ffffffff16906001600160a01b031687565b60008054610c8a9061565e565b80601f0160208091040260200160405190810160405280929190818152602001828054610cb69061565e565b8015610d035780601f10610cd857610100808354040283529160200191610d03565b820191906000526020600020905b815481529060010190602001808311610ce657829003601f168201915b505050505081565b3360008181526004602090815260408083206001600160a01b038716808552925280832085905551919290917f8c5be1e5ebec7d5bd14f71427d1e84f3dd0314c0f7b2291e5b200ac8c7c3b92590610d669086815260200190565b60405180910390a35060015b92915050565b6002600c541415610d9c5760405163558a1e0360e11b815260040160405180910390fd5b6002600c556000610dab6110a4565b604080517f39bf2cb78b4fee6e3427925ed40cf1f955458a02ac29c312c7be5fde74d0dd7a60208201526001600160a01b038a169181019190915260608101889052861515608082015260a00160405160208183030381529060405280519060200120604051602001610e509291907f190100000000000000000000000000000000000000000000000000000000000081526002810192909252602282015260420190565b60408051601f198184030181528282528051602091820120600080855291840180845281905260ff88169284019290925260608301869052608083018590529092509060019060a0016020604051602081039080840390855afa158015610ebb573d6000803e3d6000fd5b5050604051601f1901519150506001600160a01b0381161580610ef05750876001600160a01b0316816001600160a01b031614155b15610f27576040517f8baa579f00000000000000000000000000000000000000000000000000000000815260040160405180910390fd5b610f32888888613cfe565b50506001600c55505050505050565b60085460009060ff1615610f81576040517f9e87fac800000000000000000000000000000000000000000000000000000000815260040160405180910390fd5b6001600160a01b038416600090815260046020908152604080832033845290915290205460001914610fe6576001600160a01b038416600090815260046020908152604080832033845290915281208054849290610fe09084906156af565b90915550505b6001600160a01b0384166000908152600360205260408120805484929061100e9084906156af565b90915550506001600160a01b038316600090815260036020526040902080548301905561104c61103d85611274565b61104685611274565b84613ef5565b826001600160a01b0316846001600160a01b03167fddf252ad1be2c89b69c2b068fc378daa952ba7f163c4a11628f55a4df523b3ef8460405161109191815260200190565b60405180910390a35060015b9392505050565b600060055446146110bc576110b761407e565b905090565b5060065490565b6000806002600c5414156110ea5760405163558a1e0360e11b815260040160405180910390fd5b6002600c556001600160a01b03861660009081526011602052604090205460ff16611141576040517fcb92848a00000000000000000000000000000000000000000000000000000000815260040160405180910390fd5b6040517f36ceb11a0000000000000000000000000000000000000000000000000000000081526001600160a01b038716906336ceb11a90349061118e9033908a908a908a906004016156f1565b604080518083038185885af11580156111ab573d6000803e3d6000fd5b50505050506040513d601f19601f820116820180604052508101906111d09190615724565b909250905081156111f05780156111eb576111eb3382614118565b611200565b80156112005761120033866141a6565b6001600c55909590945092505050565b61121a33826141a6565b50565b3360009081526011602052604090205460ff16611266576040517fcb92848a00000000000000000000000000000000000000000000000000000000815260040160405180910390fd5b6112708282614118565b5050565b6001600160a01b03808216600090815260096020526040812054909116801561129d578061109d565b5090919050565b600d8054610c8a9061565e565b61121a338261422e565b606080606060006012600086815260200190815260200160002090508060020181600301826004018280548060200260200160405190810160405280929190818152602001828054801561133857602002820191906000526020600020905b81546001600160a01b0316815260019091019060200180831161131a575b505050505092508180548060200260200160405190810160405280929190818152602001828054801561138a57602002820191906000526020600020905b815481526020019060010190808311611376575b5050505050915080805480602002602001604051908101604052809291908181526020016000905b8282101561145e5783829060005260206000200180546113d19061565e565b80601f01602080910402602001604051908101604052809291908181526020018280546113fd9061565e565b801561144a5780601f1061141f5761010080835404028352916020019161144a565b820191906000526020600020905b81548152906001019060200180831161142d57829003601f168201915b5050505050815260200190600101906113b2565b50959b949a50919850929650505050505050565b60008142116114ad576040517fb1998e3000000000000000000000000000000000000000000000000000000000815260040160405180910390fd5b6001600160a01b0383166000908152600b6020526040902054806114d5576000915050610d72565b6001600160a01b0384166000908152600a602090815260408083206000198501845290915290205463ffffffff16831061154f576001600160a01b0384166000908152600a60209081526040808320600019909401835292905220546bffffffffffffffffffffffff640100000000909104169050610d72565b6001600160a01b0384166000908152600a6020908152604080832083805290915290205463ffffffff1683101561158a576000915050610d72565b600060001982015b81811115611635576001600160a01b0386166000908152600a6020908152604080832060028686030485038085529083529281902081518083019092525463ffffffff81168083526401000000009091046bffffffffffffffffffffffff16928201929092529087141561161057602001519450610d729350505050565b805163ffffffff168711156116275781935061162e565b6001820392505b5050611592565b506001600160a01b0385166000908152600a6020908152604080832093835292905220546bffffffffffffffffffffffff6401000000009091041691505092915050565b6001600160a01b0382166000908152600460209081526040808320338452909152902054600019146116de576001600160a01b0382166000908152600460209081526040808320338452909152812080548392906116d89084906156af565b90915550505b61127082826141a6565b60018054610c8a9061565e565b6002600c5414156117195760405163558a1e0360e11b815260040160405180910390fd5b6002600c556000818152601260209081526040808320338452600390925290912054611771576040517f291fc44200000000000000000000000000000000000000000000000000000000815260040160405180910390fd5b60078101546001600160a01b03166117b5576040517fc3b4ca4300000000000000000000000000000000000000000000000000000000815260040160405180910390fd5b6006810154600160c01b900463ffffffff16156117fe576040517f68e83fd900000000000000000000000000000000000000000000000000000000815260040160405180910390fd5b600e80546005830155829055611813426142dd565b60068201805463ffffffff92909216600160c01b027fffffffff00000000ffffffffffffffffffffffffffffffffffffffffffffffff909216919091179055604051829033907fb708f3e57d02b42c1c66c9219454b2e519739ad18a0566a9a71a1e537f1f6e5d90600090a350506001600c55565b6002600c5414156118ac5760405163558a1e0360e11b815260040160405180910390fd5b6002600c5585518751146118ec576040517f266c51bb00000000000000000000000000000000000000000000000000000000815260040160405180910390fd5b60105463ffffffff161561192c576040517f5daa87a000000000000000000000000000000000000000000000000000000000815260040160405180910390fd5b805163ffffffff16158061194c575080516301e1338063ffffffff909116115b1561196a5760405163581db23560e11b815260040160405180910390fd5b6301e13380816001602002015163ffffffff16111561199c5760405163581db23560e11b815260040160405180910390fd5b6064816002602002015163ffffffff1611156119e4576040517ffff2d93300000000000000000000000000000000000000000000000000000000815260040160405180910390fd5b6033816003602002015163ffffffff16111580611a0e57506064816003602002015163ffffffff16115b15611a45576040517f6ef10f9000000000000000000000000000000000000000000000000000000000815260040160405180910390fd5b611ab58b8b8a88888080602002602001604051908101604052809392919081815260200183836020028082843760009201919091525050604080516020808c0282810182019093528b82529093508b92508a91829185019084908082843760009201919091525061432192505050565b865115611c175760005b8751811015611c15576001601160008a8481518110611ae057611ae0615752565b60200260200101516001600160a01b03166001600160a01b0316815260200190815260200160002060006101000a81548160ff0219169083151502179055506003878281518110611b3357611b33615752565b6020026020010151511115611c0d576000888281518110611b5657611b56615752565b60200260200101516001600160a01b0316888381518110611b7957611b79615752565b6020026020010151604051611b8e9190615768565b6000604051808303816000865af19150503d8060008114611bcb576040519150601f19603f3d011682016040523d82523d6000602084013e611bd0565b606091505b5050905080611c0b576040517f6f39bd6000000000000000000000000000000000000000000000000000000000815260040160405180910390fd5b505b600101611abf565b505b8851611c2a90600d9060208c0190614781565b5080516010805460208401516040850151606086015163ffffffff9081166c0100000000000000000000000002928116640100000000029581167fffffffffffffffffffffffffffffffffffffffffffffffff000000000000000090941693909317949094177fffffffffffffffffffffffffffffffff0000000000000000ffffffffffffffff1693821668010000000000000000027fffffffffffffffffffffffffffffffff00000000ffffffffffffffffffffffff16939093179290921790556080820151166003811115611d0357611d03614a32565b6000805260146020527f4f26c3876aa9f4b92579780beea1161a61f87ebf1ec6ee865b299e447ecba99c805460ff19166001836003811115611d4757611d47614a32565b021790555060a081015163ffffffff166003811115611d6857611d68614a32565b6001600081905260146020527fb6c61a840592cc84133e4b25bd509abf4659307c57b160799b38490a5aa48f2c8054909160ff1990911690836003811115611db257611db2614a32565b021790555060c081015163ffffffff166003811115611dd357611dd3614a32565b600260005260146020527fa1930aa930426c54c34daad2b9ada7c5d0ef0c96078a3c5bb79f6fa6602c4a7a805460ff19166001836003811115611e1857611e18614a32565b021790555060e081015163ffffffff166003811115611e3957611e39614a32565b6003600081905260146020527f63d87a887046e0430be80fdeb014107d7198c879cbf2cddf39a6df195c86cb388054909160ff19909116906001908490811115611e8557611e85614a32565b021790555061010081015163ffffffff166003811115611ea757611ea7614a32565b600460005260146020527f52102136546d97ed3f65ec1070a32935d3048ea12f310d29c378dc9d6555c0d6805460ff19166001836003811115611eec57611eec614a32565b021790555061012081015163ffffffff166003811115611f0e57611f0e614a32565b600560005260146020527f116126bec5aaa49b347e966c49378cf0c441de9121e306ea3d824584a9615aa2805460ff19166001836003811115611f5357611f53614a32565b021790555061014081015163ffffffff166003811115611f7557611f75614a32565b600660005260146020527fe1f6b6a5fb7e47dad87547d4b0671e7e995a1dae22fbe5b3b5d10e2a77ed7aff805460ff19166001836003811115611fba57611fba614a32565b021790555061016081015163ffffffff166003811115611fdc57611fdc614a32565b600760005260146020527f904977a779b22381a36c6463d4166ef55ee8cb3392c83093cb1750f1a00c9d94805460ff1916600183600381111561202157612021614a32565b021790555061018081015163ffffffff16600381111561204357612043614a32565b600860005260146020527f125fdacc24f94fb724c0c32a4eab75d67204551eb2448dadf875d535a7449726805460ff1916600183600381111561208857612088614a32565b02179055506101a081015163ffffffff1660038111156120aa576120aa614a32565b600960005260146020527ff517404d914a19d455440d961937db67771e4bfb0b4293ff6fd7c75855208c19805460ff191660018360038111156120ef576120ef614a32565b02179055506101c081015163ffffffff16600381111561211157612111614a32565b600a60005260146020527f65f9512343925c57130fd77667cb42fc83560c400ede0c87f3de7c6c27cf09a6805460ff1916600183600381111561215657612156614a32565b02179055506101e081015163ffffffff16600381111561217857612178614a32565b600b60005260146020527fdabe84bb17a8774762b6726edd7eb728da1732e1ab123804fc9345b7300e0a2e805460ff191660018360038111156121bd576121bd614a32565b0217905550506001600c5550505050505050505050565b60006002600c5414156121fa5760405163558a1e0360e11b815260040160405180910390fd5b6002600c55858414158061220e5750838214155b15612245576040517f266c51bb00000000000000000000000000000000000000000000000000000000815260040160405180910390fd5b60038a600b81111561225957612259614a32565b14156122c1578484600081811061227257612272615752565b90506020020135600014806122a357506301e133808585600081811061229a5761229a615752565b90506020020135115b156122c15760405163581db23560e11b815260040160405180910390fd5b60048a600b8111156122d5576122d5614a32565b1415612319576301e13380858560008181106122f3576122f3615752565b9050602002013511156123195760405163581db23560e11b815260040160405180910390fd5b60058a600b81111561232d5761232d614a32565b14156123875760648585600081811061234857612348615752565b905060200201351115612387576040517ffff2d93300000000000000000000000000000000000000000000000000000000815260040160405180910390fd5b60068a600b81111561239b5761239b614a32565b141561241a576033858560008181106123b6576123b6615752565b905060200201351115806123e357506064858560008181106123da576123da615752565b90506020020135115b1561241a576040517f6ef10f9000000000000000000000000000000000000000000000000000000000815260040160405180910390fd5b60078a600b81111561242e5761242e614a32565b14156124b857600b8585600081811061244957612449615752565b905060200201351180612475575060038585600181811061246c5761246c615752565b90506020020135115b80612481575060028414155b156124b8576040517f93d8c8b000000000000000000000000000000000000000000000000000000000815260040160405180910390fd5b336000908152600360205260408120541515806124e457503360009081526011602052604090205460ff165b156124ed575060015b600f805460010190819055604080516101408101909152909250808c600b81111561251a5761251a614a32565b81526020018b8b8080601f0160208091040260200160405190810160405280939291908181526020018383808284376000920191909152505050908252506040805160208b810282810182019093528b82529283019290918c918c91829185019084908082843760009201919091525050509082525060408051602089810282810182019093528982529283019290918a918a9182918501908490808284376000920191909152505050908252506020016125d58587615784565b8152602001826125e65760006125ea565b600e545b8152600060208201819052604082015260600182612609576000612612565b612612426142dd565b63ffffffff16815233602091820152600084815260129091526040902081518154829060ff1916600183600b81111561264d5761264d614a32565b0217905550602082810151805161266a9260018501920190614781565b5060408201518051612686916002840191602090910190614801565b50606082015180516126a2916003840191602090910190614863565b50608082015180516126be91600484019160209091019061489d565b5060a0820151600582015560c082015160068201805460e085015161010086015163ffffffff16600160c01b027fffffffff00000000ffffffffffffffffffffffffffffffffffffffffffffffff6bffffffffffffffffffffffff9283166c01000000000000000000000000027fffffffffffffffff0000000000000000000000000000000000000000000000009094169290951691909117919091179290921691909117905561012090910151600790910180546001600160a01b0390921673ffffffffffffffffffffffffffffffffffffffff1990921691909117905580156127a957600e8290555b8a600b8111156127bb576127bb614a32565b82336001600160a01b03167feaebeb60fa3c5b4aaac8452fe75b188beb61a499d379464587545ede83fbea3e8d8d8d8d8d8d8d8d604051612803989796959493929190615815565b60405180910390a4506001600c559998505050505050505050565b60085460009060ff161561285e576040517f9e87fac800000000000000000000000000000000000000000000000000000000815260040160405180910390fd5b336000908152600360205260408120805484929061287d9084906156af565b90915550506001600160a01b03831660009081526003602052604090208054830190556128ac61103d33611274565b6040518281526001600160a01b0384169033907fddf252ad1be2c89b69c2b068fc378daa952ba7f163c4a11628f55a4df523b3ef90602001610d66565b60608167ffffffffffffffff81111561290457612904614ebf565b60405190808252806020026020018201604052801561293757816020015b60608152602001906001900390816129225790505b50905060005b82811015612a52576000803086868581811061295b5761295b615752565b905060200281019061296d91906158e1565b60405161297b929190615928565b600060405180830381855af49150503d80600081146129b6576040519150601f19603f3d011682016040523d82523d6000602084013e6129bb565b606091505b509150915081612a2a576044815110156129d457600080fd5b600481019050808060200190518101906129ee9190615938565b6040517f08c379a0000000000000000000000000000000000000000000000000000000008152600401612a219190614b16565b60405180910390fd5b80848481518110612a3d57612a3d615752565b6020908102919091010152505060010161293d565b5092915050565b6001600160a01b0381166000908152600b602052604081205480612a7e576000612abd565b6001600160a01b0383166000908152600a602090815260408083206000198501845290915290205464010000000090046bffffffffffffffffffffffff165b6bffffffffffffffffffffffff169392505050565b83421115612b0c576040517f0819bdcd00000000000000000000000000000000000000000000000000000000815260040160405180910390fd5b604080517f76995fe87be88484696cfd6792aeb71e0b61f81dfa3b641e5adffa38a0d3b8e260208201526001600160a01b03881691810191909152606081018690526080810185905260009060a0016040516020818303038152906040528051906020012090506000612b7d6110a4565b6040517f1901000000000000000000000000000000000000000000000000000000000000602082015260228101919091526042810183905260620160408051601f198184030181528282528051602091820120600080855291840180845281905260ff89169284019290925260608301879052608083018690529092509060019060a0016020604051602081039080840390855afa158015612c23573d6000803e3d6000fd5b5050604051601f1901519150506001600160a01b038116612c70576040517fe99d5ac500000000000000000000000000000000000000000000000000000000815260040160405180910390fd5b6001600160a01b03811660009081526007602052604090208054600181019091558814612cc9576040517f756688fe00000000000000000000000000000000000000000000000000000000815260040160405180910390fd5b612cd3818a61422e565b505050505050505050565b6002600c541415612d025760405163558a1e0360e11b815260040160405180910390fd5b6002600c55612d12338383613cfe565b50506001600c55565b83421115612d55576040517f0819bdcd00000000000000000000000000000000000000000000000000000000815260040160405180910390fd5b6000612d5f6110a4565b6001600160a01b0389811660008181526007602090815260409182902080546001810190915582517f6e71edae12b1b97f4d1f60370fef10105fa2faae0126114a169c64845d6126c98184015280840194909452938c166060840152608083018b905260a083019390935260c08083018a90528151808403909101815260e0830190915280519201919091207f19010000000000000000000000000000000000000000000000000000000000006101008301526101028201929092526101228101919091526101420160408051601f198184030181528282528051602091820120600080855291840180845281905260ff88169284019290925260608301869052608083018590529092509060019060a0016020604051602081039080840390855afa158015612e93573d6000803e3d6000fd5b5050604051601f1901519150506001600160a01b0381161580612ec85750886001600160a01b0316816001600160a01b031614155b15612eff576040517f8baa579f00000000000000000000000000000000000000000000000000000000815260040160405180910390fd5b6001600160a01b0390811660009081526004602090815260408083208b8516808552908352928190208a905551898152919350918a16917f8c5be1e5ebec7d5bd14f71427d1e84f3dd0314c0f7b2291e5b200ac8c7c3b925910160405180910390a350505050505050565b6002600c541415612f8e5760405163558a1e0360e11b815260040160405180910390fd5b6002600c55600081815260126020526040902060078101546001600160a01b03163314612fe7576040517f7d1b73b900000000000000000000000000000000000000000000000000000000815260040160405180910390fd5b6006810154600160c01b900463ffffffff1615613030576040517f68e83fd900000000000000000000000000000000000000000000000000000000815260040160405180910390fd5b6000828152601260205260408120805460ff191681559061305460018301826148f6565b613062600283016000614930565b613070600383016000614930565b61307e60048301600061494e565b506000600582018190556006820180547fffffffff000000000000000000000000000000000000000000000000000000001690556007909101805473ffffffffffffffffffffffffffffffffffffffff19169055604051839133917f5d423f6a55211a90b8438786aa7edfa40d3eef381b6aae048b52daf814c164629190a350506001600c55565b600060606002600c54141561312e5760405163558a1e0360e11b815260040160405180910390fd5b6002600c5560008381526012602052604081208054909190601490829060ff16600b81111561315f5761315f614a32565b600b81111561317057613170614a32565b8152602081019190915260400160002054600683015460ff9091169150600160c01b900463ffffffff166131d0576040517fc3b4ca4300000000000000000000000000000000000000000000000000000000815260040160405180910390fd5b6010546006830154600160c01b900463ffffffff90811681831601640100000000909204811691909101164211613233576040517f7f8617a200000000000000000000000000000000000000000000000000000000815260040160405180910390fd5b600a825460ff16600b81111561324b5761324b614a32565b146132ab576005820154600090815260126020526040902060060154600160c01b900463ffffffff16156132ab576040517f8795d9c100000000000000000000000000000000000000000000000000000000815260040160405180910390fd5b60068201546132dd9082906bffffffffffffffffffffffff808216916c010000000000000000000000009004166143f1565b93508315613ba3576000825460ff16600b8111156132fd576132fd614a32565b14156133725760005b60028301548110156133705761336883600201828154811061332a5761332a615752565b6000918252602090912001546003850180546001600160a01b03909216918490811061335857613358615752565b9060005260206000200154614118565b600101613306565b505b6001825460ff16600b81111561338a5761338a614a32565b14156133ff5760005b60028301548110156133fd576133f58360020182815481106133b7576133b7615752565b6000918252602090912001546003850180546001600160a01b0390921691849081106133e5576133e5615752565b90600052602060002001546141a6565b600101613393565b505b6002825460ff16600b81111561341757613417614a32565b141561356a5760005b600283015481101561356857600283015467ffffffffffffffff81111561344957613449614ebf565b60405190808252806020026020018201604052801561347c57816020015b60608152602001906001900390816134675790505b509350600083600201828154811061349657613496615752565b6000918252602090912001546003850180546001600160a01b0390921691849081106134c4576134c4615752565b90600052602060002001548560040184815481106134e4576134e4615752565b906000526020600020016040516134fb9190615a1e565b60006040518083038185875af1925050503d8060008114613538576040519150601f19603f3d011682016040523d82523d6000602084013e61353d565b606091505b509150508085838151811061355457613554615752565b602090810291909101015250600101613420565b505b6003825460ff16600b81111561358257613582614a32565b1415613607578160030160008154811061359e5761359e615752565b906000526020600020015460001461360757816003016000815481106135c6576135c6615752565b600091825260209091200154601080547fffffffffffffffffffffffffffffffffffffffffffffffffffffffff000000001663ffffffff9092169190911790555b6004825460ff16600b81111561361f5761361f614a32565b141561368f578160030160008154811061363b5761363b615752565b906000526020600020015460001461368f578160030160008154811061366357613663615752565b9060005260206000200154601060046101000a81548163ffffffff021916908363ffffffff1602179055505b6005825460ff16600b8111156136a7576136a7614a32565b141561371757816003016000815481106136c3576136c3615752565b906000526020600020015460001461371757816003016000815481106136eb576136eb615752565b9060005260206000200154601060086101000a81548163ffffffff021916908363ffffffff1602179055505b6006825460ff16600b81111561372f5761372f614a32565b141561379f578160030160008154811061374b5761374b615752565b906000526020600020015460001461379f578160030160008154811061377357613773615752565b90600052602060002001546010600c6101000a81548163ffffffff021916908363ffffffff1602179055505b6007825460ff16600b8111156137b7576137b7614a32565b141561387757816003016001815481106137d3576137d3615752565b906000526020600020015460038111156137ef576137ef614a32565b601460008460030160008154811061380957613809615752565b9060005260206000200154600b81111561382557613825614a32565b600b81111561383657613836614a32565b600b81111561384757613847614a32565b81526020810191909152604001600020805460ff1916600183600381111561387157613871614a32565b02179055505b6008825460ff16600b81111561388f5761388f614a32565b141561389d5761389d614532565b6009825460ff16600b8111156138b5576138b5614a32565b1415613a685760005b6002830154811015613a66578260030181815481106138df576138df615752565b9060005260206000200154600014613987576011600084600201838154811061390a5761390a615752565b60009182526020808320909101546001600160a01b0316835282019290925260400181205460028501805460ff90921615926011929091908590811061395257613952615752565b6000918252602080832091909101546001600160a01b031683528201929092526040019020805460ff19169115159190911790555b600383600401828154811061399e5761399e615752565b9060005260206000200180546139b39061565e565b90501115613a5e578260020181815481106139d0576139d0615752565b6000918252602090912001546004840180546001600160a01b039092169163fb0c4441919084908110613a0557613a05615752565b906000526020600020016040518263ffffffff1660e01b8152600401613a2b9190615a2a565b600060405180830381600087803b158015613a4557600080fd5b505af1158015613a59573d6000803e3d6000fd5b505050505b6001016138be565b505b600a825460ff16600b811115613a8057613a80614a32565b1415613b4c576012600083600301600081548110613aa057613aa0615752565b600091825260208083209091015483528201929092526040018120805460ff1916815590613ad160018301826148f6565b613adf600283016000614930565b613aed600383016000614930565b613afb60048301600061494e565b50600060058201556006810180547fffffffff00000000000000000000000000000000000000000000000000000000169055600701805473ffffffffffffffffffffffffffffffffffffffff191690555b600b825460ff16600b811115613b6457613b64614a32565b1415613b895781600101600d908054613b7c9061565e565b613b8792919061496c565b505b6000858152601360205260409020805460ff191660011790555b6000858152601260205260408120805460ff1916815590613bc760018301826148f6565b613bd5600283016000614930565b613be3600383016000614930565b613bf160048301600061494e565b506000600582018190556006820180547fffffffff000000000000000000000000000000000000000000000000000000001690556007909101805473ffffffffffffffffffffffffffffffffffffffff191690558581526013602052604080822080547fffffffffffffffffffffffffffffffffffffffffffffffffffffffffffff00ff16610100179055518515159187917fcc8b74c10cae169918eab7cf3272b0a540854b8a4d12281590885d07fed34f6e9190a350506001600c559092909150565b3360009081526011602052604090205460ff166116de576040517fcb92848a00000000000000000000000000000000000000000000000000000000815260040160405180910390fd5b6000828152601260209081526040808320601583528184206001600160a01b03881685529092529091205460ff1615613d63576040517f7c9a1cf900000000000000000000000000000000000000000000000000000000815260040160405180910390fd5b601054600682015463ffffffff918216600160c01b90910482160116421115613db8576040517f47c8137d00000000000000000000000000000000000000000000000000000000815260040160405180910390fd5b6006810154600090613dd8908690600160c01b900463ffffffff16611472565b90508215613e40576006820180546bffffffffffffffffffffffff8082168401167fffffffffffffffffffffffffffffffffffffffff0000000000000000000000009091161790556001600160a01b0385166000908152601660205260409020849055613e94565b6006820180546bffffffffffffffffffffffff6c0100000000000000000000000080830482168501909116027fffffffffffffffff000000000000000000000000ffffffffffffffffffffffff9091161790555b60008481526015602090815260408083206001600160a01b0389168085529252808320805460ff1916600117905551851515928792917fd356173ae8eeea8691aee4c1be712c314a975a3d43ebc48b08ca54d0dac912289190a45050505050565b816001600160a01b0316836001600160a01b031614158015613f1657508015155b15613fca576001600160a01b03831615613fca576001600160a01b0383166000908152600b60205260408120549081613f50576000613f9c565b6001600160a01b0385166000908152600a6020526040812090613f746001856156af565b815260208101919091526040016000205464010000000090046bffffffffffffffffffffffff165b6bffffffffffffffffffffffff1690506000613fb884836156af565b9050613fc68684848461457f565b5050505b6001600160a01b03821615614079576001600160a01b0382166000908152600b60205260408120549081613fff57600061404b565b6001600160a01b0384166000908152600a60205260408120906140236001856156af565b815260208101919091526040016000205464010000000090046bffffffffffffffffffffffff165b6bffffffffffffffffffffffff16905060006140678483615aaf565b90506140758584848461457f565b5050505b505050565b60007f8b73c3c69bb8fe3d512ecc4cf759cc79239f7b179b0ffacaa9a75d522b39400f60006040516140b09190615a1e565b6040805191829003822060208301939093528101919091527fc89efdaa54c0f20c7adf612882df0950f5a951637e0307cdcb4c672f298b8bc660608201524660808201523060a082015260c00160405160208183030381529060405280519060200120905090565b806002600082825461412a9190615aaf565b90915550506001600160a01b03821660009081526003602052604081208054830190556141609061415a84611274565b83613ef5565b6040518181526001600160a01b038316906000907fddf252ad1be2c89b69c2b068fc378daa952ba7f163c4a11628f55a4df523b3ef906020015b60405180910390a35050565b6001600160a01b038216600090815260036020526040812080548392906141ce9084906156af565b90915550506002805482900390556141f06141e883611274565b600083613ef5565b6040518181526000906001600160a01b038416907fddf252ad1be2c89b69c2b068fc378daa952ba7f163c4a11628f55a4df523b3ef9060200161419a565b600061423983611274565b6001600160a01b038481166000908152600960209081526040808320805473ffffffffffffffffffffffffffffffffffffffff19169488169490941790935560039052205490915061428e9082908490613ef5565b816001600160a01b0316816001600160a01b0316846001600160a01b03167f3134e8a2e6d97e929a7e54011ea5485d7d196dd5f0ba4d4ef95803e8e3fc257f60405160405180910390a4505050565b600063ffffffff82111561431d576040517fec314e4200000000000000000000000000000000000000000000000000000000815260040160405180910390fd5b5090565b805182511461435c576040517f266c51bb00000000000000000000000000000000000000000000000000000000815260040160405180910390fd5b845161436f906000906020880190614781565b508351614383906001906020870190614781565b506008805460ff19168415151790554660055561439e61407e565b60065560005b8251811015614075576143e98382815181106143c2576143c2615752565b60200260200101518383815181106143dc576143dc615752565b6020026020010151614118565b6001016143a4565b6000821580156143ff575081155b1561440c5750600061109d565b600184600381111561442057614420614a32565b148061443d5750600384600381111561443b5761443b614a32565b145b1561448f5760105460025460009160649161446a9168010000000000000000900463ffffffff1690615ac7565b6144749190615ae6565b90508383018181101561448c5760009250505061109d565b50505b60008460038111156144a3576144a3614a32565b14806144c0575060018460038111156144be576144be614a32565b145b156144da57818311156144d55750600161109d565b61109d565b6010546000906064906c01000000000000000000000000900463ffffffff166145038587615aaf565b61450d9190615ac7565b6145179190615ae6565b905080841061452a57600191505061109d565b509392505050565b6008805460ff8082161560ff1990921682179092556040519116151581527f28ef61d7a1c224006e6530d510be74c9c673f4a9896202105e3d4f60511779d19060200160405180910390a1565b82158015906145ba57506001600160a01b0384166000908152600a602090815260408083206000198701845290915290205463ffffffff1642145b15614638576145c881614739565b6001600160a01b0385166000908152600a6020908152604080832060001988018452909152902080546bffffffffffffffffffffffff92909216640100000000027fffffffffffffffffffffffffffffffff000000000000000000000000ffffffff9092169190911790556146ef565b604051806040016040528061464c426142dd565b63ffffffff16815260200161466083614739565b6bffffffffffffffffffffffff9081169091526001600160a01b0386166000818152600a6020908152604080832089845282528083208651815497840151909616640100000000027fffffffffffffffffffffffffffffffff0000000000000000000000000000000090971663ffffffff9096169590951795909517909355908152600b909152206001840190555b60408051838152602081018390526001600160a01b038616917fdec2bacdd2f05b59de34da9b523dff8be42e5e38e818c82fdb0bae774387a724910160405180910390a250505050565b60006bffffffffffffffffffffffff82111561431d576040517f39a21c5600000000000000000000000000000000000000000000000000000000815260040160405180910390fd5b82805461478d9061565e565b90600052602060002090601f0160209004810192826147af57600085556147f5565b82601f106147c857805160ff19168380011785556147f5565b828001600101855582156147f5579182015b828111156147f55782518255916020019190600101906147da565b5061431d9291506149e7565b8280548282559060005260206000209081019282156147f5579160200282015b828111156147f5578251825473ffffffffffffffffffffffffffffffffffffffff19166001600160a01b03909116178255602090920191600190910190614821565b8280548282559060005260206000209081019282156147f557916020028201828111156147f55782518255916020019190600101906147da565b8280548282559060005260206000209081019282156148ea579160200282015b828111156148ea57825180516148da918491602090910190614781565b50916020019190600101906148bd565b5061431d9291506149fc565b5080546149029061565e565b6000825580601f10614912575050565b601f01602090049060005260206000209081019061121a91906149e7565b508054600082559060005260206000209081019061121a91906149e7565b508054600082559060005260206000209081019061121a91906149fc565b8280546149789061565e565b90600052602060002090601f01602090048101928261499a57600085556147f5565b82601f106149ab57805485556147f5565b828001600101855582156147f557600052602060002091601f016020900482015b828111156147f55782548255916001019190600101906149cc565b5b8082111561431d57600081556001016149e8565b8082111561431d576000614a1082826148f6565b506001016149fc565b600060208284031215614a2b57600080fd5b5035919050565b634e487b7160e01b600052602160045260246000fd5b60005b83811015614a63578181015183820152602001614a4b565b83811115614a72576000848401525b50505050565b60008151808452614a90816020860160208601614a48565b601f01601f19169290920160200192915050565b6000600c8910614ab657614ab6614a32565b88825260e06020830152614acd60e0830189614a78565b6040830197909752506bffffffffffffffffffffffff948516606082015292909316608083015263ffffffff1660a08201526001600160a01b0390911660c09091015292915050565b60208152600061109d6020830184614a78565b80356001600160a01b0381168114614b4057600080fd5b919050565b60008060408385031215614b5857600080fd5b614b6183614b29565b946020939093013593505050565b60008083601f840112614b8157600080fd5b50813567ffffffffffffffff811115614b9957600080fd5b602083019150836020828501011115614bb157600080fd5b9250929050565b600080600080600060808688031215614bd057600080fd5b614bd986614b29565b9450614be760208701614b29565b935060408601359250606086013567ffffffffffffffff811115614c0a57600080fd5b614c1688828901614b6f565b969995985093965092949392505050565b801515811461121a57600080fd5b8035614b4081614c27565b803560ff81168114614b4057600080fd5b60008060008060008060c08789031215614c6a57600080fd5b614c7387614b29565b9550602087013594506040870135614c8a81614c27565b9350614c9860608801614c40565b92506080870135915060a087013590509295509295509295565b600080600060608486031215614cc757600080fd5b614cd084614b29565b9250614cde60208501614b29565b9150604084013590509250925092565b600060208284031215614d0057600080fd5b61109d82614b29565b60008060008060608587031215614d1f57600080fd5b614d2885614b29565b935060208501359250604085013567ffffffffffffffff811115614d4b57600080fd5b614d5787828801614b6f565b95989497509550505050565b60008060408385031215614d7657600080fd5b82359150614d8660208401614b29565b90509250929050565b600081518084526020808501808196508360051b8101915082860160005b85811015614dd7578284038952614dc5848351614a78565b98850198935090840190600101614dad565b5091979650505050505050565b606080825284519082018190526000906020906080840190828801845b82811015614e265781516001600160a01b031684529284019290840190600101614e01565b5050508381038285015285518082528683019183019060005b81811015614e5b57835183529284019291840191600101614e3f565b50508481036040860152614e6f8187614d8f565b98975050505050505050565b8035600c8110614b4057600080fd5b600060208284031215614e9c57600080fd5b61109d82614e7b565b6020810160048310614eb957614eb9614a32565b91905290565b634e487b7160e01b600052604160045260246000fd5b604051601f8201601f1916810167ffffffffffffffff81118282101715614efe57614efe614ebf565b604052919050565b600067ffffffffffffffff821115614f2057614f20614ebf565b50601f01601f191660200190565b6000614f41614f3c84614f06565b614ed5565b9050828152838383011115614f5557600080fd5b828260208301376000602084830101529392505050565b600082601f830112614f7d57600080fd5b61109d83833560208501614f2e565b600067ffffffffffffffff821115614fa657614fa6614ebf565b5060051b60200190565b600082601f830112614fc157600080fd5b81356020614fd1614f3c83614f8c565b82815260059290921b84018101918181019086841115614ff057600080fd5b8286015b848110156150125761500581614b29565b8352918301918301614ff4565b509695505050505050565b600061502b614f3c84614f8c565b8381529050602080820190600585901b84018681111561504a57600080fd5b845b8181101561509a57803567ffffffffffffffff81111561506c5760008081fd5b8601601f8101891361507e5760008081fd5b61508c898235868401614f2e565b85525092820192820161504c565b505050509392505050565b600082601f8301126150b657600080fd5b61109d8383356020850161501d565b60008083601f8401126150d757600080fd5b50813567ffffffffffffffff8111156150ef57600080fd5b6020830191508360208260051b8501011115614bb157600080fd5b600082601f83011261511b57600080fd5b60405161020080820182811067ffffffffffffffff8211171561514057615140614ebf565b6040528301818582111561515357600080fd5b845b8281101561518057803563ffffffff811681146151725760008081fd5b825260209182019101615155565b509195945050505050565b60008060008060008060008060008060006103008c8e0312156151ad57600080fd5b67ffffffffffffffff808d3511156151c457600080fd5b6151d18e8e358f01614f6c565b9b508060208e013511156151e457600080fd5b6151f48e60208f01358f01614f6c565b9a508060408e0135111561520757600080fd5b6152178e60408f01358f01614f6c565b995061522560608e01614c35565b98508060808e0135111561523857600080fd5b6152488e60808f01358f01614fb0565b97508060a08e0135111561525b57600080fd5b61526b8e60a08f01358f016150a5565b96508060c08e0135111561527e57600080fd5b61528e8e60c08f01358f016150c5565b909650945060e08d01358110156152a457600080fd5b506152b58d60e08e01358e016150c5565b90935091506152c88d6101008e0161510a565b90509295989b509295989b9093969950565b600080600080600080600080600060a08a8c0312156152f857600080fd5b6153018a614e7b565b985060208a013567ffffffffffffffff8082111561531e57600080fd5b61532a8d838e01614b6f565b909a50985060408c013591508082111561534357600080fd5b61534f8d838e016150c5565b909850965060608c013591508082111561536857600080fd5b6153748d838e016150c5565b909650945060808c013591508082111561538d57600080fd5b5061539a8c828d016150c5565b915080935050809150509295985092959850929598565b600080602083850312156153c457600080fd5b823567ffffffffffffffff8111156153db57600080fd5b6153e7858286016150c5565b90969095509350505050565b60208152600061109d6020830184614d8f565b60008060008060008060008060a0898b03121561542257600080fd5b61542b89614b29565b975061543960208a01614b29565b9650604089013567ffffffffffffffff8082111561545657600080fd5b6154628c838d016150c5565b909850965060608b013591508082111561547b57600080fd5b6154878c838d016150c5565b909650945060808b01359150808211156154a057600080fd5b506154ad8b828c01614b6f565b999c989b5096995094979396929594505050565b60008060008060008060c087890312156154da57600080fd5b6154e387614b29565b95506020870135945060408701359350614c9860608801614c40565b6000806040838503121561551257600080fd5b82359150602083013561552481614c27565b809150509250929050565b600080600080600080600060e0888a03121561554a57600080fd5b61555388614b29565b965061556160208901614b29565b9550604088013594506060880135935061557d60808901614c40565b925060a0880135915060c0880135905092959891949750929550565b600080604083850312156155ac57600080fd5b6155b583614b29565b9150614d8660208401614b29565b82151581526040602082015260006155de6040830184614d8f565b949350505050565b60008060008060008060a087890312156155ff57600080fd5b61560887614b29565b955061561660208801614b29565b94506040870135935060608701359250608087013567ffffffffffffffff81111561564057600080fd5b61564c89828a01614b6f565b979a9699509497509295939492505050565b600181811c9082168061567257607f821691505b6020821081141561569357634e487b7160e01b600052602260045260246000fd5b50919050565b634e487b7160e01b600052601160045260246000fd5b6000828210156156c1576156c1615699565b500390565b818352818160208501375060006020828401015260006020601f19601f840116840101905092915050565b6001600160a01b038516815283602082015260606040820152600061571a6060830184866156c6565b9695505050505050565b6000806040838503121561573757600080fd5b825161574281614c27565b6020939093015192949293505050565b634e487b7160e01b600052603260045260246000fd5b6000825161577a818460208701614a48565b9190910192915050565b600061109d36848461501d565b81835260006020808501808196508560051b810191508460005b87811015614dd75782840389528135601e198836030181126157cc57600080fd5b8701803567ffffffffffffffff8111156157e557600080fd5b8036038913156157f457600080fd5b61580186828985016156c6565b9a87019a95505050908401906001016157ab565b608081526000615829608083018a8c6156c6565b8281036020848101919091528882528991810160005b8a81101561586b576001600160a01b0361585885614b29565b168252928201929082019060010161583f565b5084810360408601528781527f07ffffffffffffffffffffffffffffffffffffffffffffffffffffffffffffff8811156158a457600080fd5b8760051b92508289838301376000920181810192835284810382016060860152916158d0818789615791565b9d9c50505050505050505050505050565b6000808335601e198436030181126158f857600080fd5b83018035915067ffffffffffffffff82111561591357600080fd5b602001915036819003821315614bb157600080fd5b8183823760009101908152919050565b60006020828403121561594a57600080fd5b815167ffffffffffffffff81111561596157600080fd5b8201601f8101841361597257600080fd5b8051615980614f3c82614f06565b81815285602083850101111561599557600080fd5b6159a6826020830160208601614a48565b95945050505050565b600081546159bc8161565e565b600182811680156159d457600181146159e557615a14565b60ff19841687528287019450615a14565b8560005260208060002060005b85811015615a0b5781548a8201529084019082016159f2565b50505082870194505b5050505092915050565b600061109d82846159af565b6000602080835260008454615a3e8161565e565b80848701526040600180841660008114615a5f5760018114615a7357615aa1565b60ff198516838a0152606089019550615aa1565b896000528660002060005b85811015615a995781548b8201860152908301908801615a7e565b8a0184019650505b509398975050505050505050565b60008219821115615ac257615ac2615699565b500190565b6000816000190483118215151615615ae157615ae1615699565b500290565b600082615b0357634e487b7160e01b600052601260045260246000fd5b50049056fea26469706673582212208a25e2f322d88951a6f892e842f852e5d471f05f8d6aa44d63379281600e6b0764736f6c634300080b0033",
  "linkReferences": {},
  "deployedLinkReferences": {}
}