{
  "_format": "hh-sol-artifact-1",
  "contractName": "KaliDAOcrowdsale",
  "sourceName": "contracts/extensions/crowdsale/KaliDAOcrowdsale.sol",
  "abi": [
    {
      "inputs": [
        {
          "internalType": "contract IKaliAccessManager",
          "name": "accessManager_",
          "type": "address"
        },
        {
          "internalType": "address",
          "name": "wETH_",
          "type": "address"
        }
      ],
      "stateMutability": "nonpayable",
      "type": "constructor"
    },
    {
      "inputs": [],
      "name": "ETHtransferFailed",
      "type": "error"
    },
    {
      "inputs": [],
      "name": "NotListed",
      "type": "error"
    },
    {
      "inputs": [],
      "name": "NullMultiplier",
      "type": "error"
    },
    {
      "inputs": [],
      "name": "PurchaseLimit",
      "type": "error"
    },
    {
      "inputs": [],
      "name": "Reentrancy",
      "type": "error"
    },
    {
      "inputs": [],
      "name": "SaleEnded",
      "type": "error"
    },
    {
      "inputs": [],
      "name": "TransferFailed",
      "type": "error"
    },
    {
      "inputs": [],
      "name": "TransferFromFailed",
      "type": "error"
    },
    {
      "anonymous": false,
      "inputs": [
        {
          "indexed": true,
          "internalType": "address",
          "name": "dao",
          "type": "address"
        },
        {
          "indexed": true,
          "internalType": "address",
          "name": "purchaser",
          "type": "address"
        },
        {
          "indexed": false,
          "internalType": "uint256",
          "name": "amountOut",
          "type": "uint256"
        }
      ],
      "name": "ExtensionCalled",
      "type": "event"
    },
    {
      "anonymous": false,
      "inputs": [
        {
          "indexed": true,
          "internalType": "address",
          "name": "dao",
          "type": "address"
        },
        {
          "indexed": false,
          "internalType": "uint256",
          "name": "listId",
          "type": "uint256"
        },
        {
          "indexed": false,
          "internalType": "address",
          "name": "purchaseToken",
          "type": "address"
        },
        {
          "indexed": false,
          "internalType": "uint8",
          "name": "purchaseMultiplier",
          "type": "uint8"
        },
        {
          "indexed": false,
          "internalType": "uint96",
          "name": "purchaseLimit",
          "type": "uint96"
        },
        {
          "indexed": false,
          "internalType": "uint32",
          "name": "saleEnds",
          "type": "uint32"
        },
        {
          "indexed": false,
          "internalType": "string",
          "name": "details",
          "type": "string"
        }
      ],
      "name": "ExtensionSet",
      "type": "event"
    },
    {
      "inputs": [
        {
          "internalType": "address",
          "name": "dao",
          "type": "address"
        },
        {
          "internalType": "uint256",
          "name": "amount",
          "type": "uint256"
        }
      ],
      "name": "callExtension",
      "outputs": [
        {
          "internalType": "uint256",
          "name": "amountOut",
          "type": "uint256"
        }
      ],
      "stateMutability": "payable",
      "type": "function"
    },
    {
      "inputs": [
        {
          "internalType": "address",
          "name": "",
          "type": "address"
        }
      ],
      "name": "crowdsales",
      "outputs": [
        {
          "internalType": "uint256",
          "name": "listId",
          "type": "uint256"
        },
        {
          "internalType": "address",
          "name": "purchaseToken",
          "type": "address"
        },
        {
          "internalType": "uint8",
          "name": "purchaseMultiplier",
          "type": "uint8"
        },
        {
          "internalType": "uint96",
          "name": "purchaseLimit",
          "type": "uint96"
        },
        {
          "internalType": "uint96",
          "name": "amountPurchased",
          "type": "uint96"
        },
        {
          "internalType": "uint32",
          "name": "saleEnds",
          "type": "uint32"
        },
        {
          "internalType": "string",
          "name": "details",
          "type": "string"
        }
      ],
      "stateMutability": "view",
      "type": "function"
    },
    {
      "inputs": [
        {
          "internalType": "uint256",
          "name": "listId",
          "type": "uint256"
        },
        {
          "internalType": "bytes32[]",
          "name": "merkleProof",
          "type": "bytes32[]"
        }
      ],
      "name": "joinList",
      "outputs": [],
      "stateMutability": "nonpayable",
      "type": "function"
    },
    {
      "inputs": [
        {
          "internalType": "bytes[]",
          "name": "data",
          "type": "bytes[]"
        }
      ],
      "name": "multicall",
      "outputs": [
        {
          "internalType": "bytes[]",
          "name": "results",
          "type": "bytes[]"
        }
      ],
      "stateMutability": "payable",
      "type": "function"
    },
    {
      "inputs": [
        {
          "internalType": "bytes",
          "name": "extensionData",
          "type": "bytes"
        }
      ],
      "name": "setExtension",
      "outputs": [],
      "stateMutability": "nonpayable",
      "type": "function"
    },
    {
      "inputs": [
        {
          "internalType": "contract IERC20Permit",
          "name": "token",
          "type": "address"
        },
        {
          "internalType": "uint256",
          "name": "value",
          "type": "uint256"
        },
        {
          "internalType": "uint256",
          "name": "deadline",
          "type": "uint256"
        },
        {
          "internalType": "uint8",
          "name": "v",
          "type": "uint8"
        },
        {
          "internalType": "bytes32",
          "name": "r",
          "type": "bytes32"
        },
        {
          "internalType": "bytes32",
          "name": "s",
          "type": "bytes32"
        }
      ],
      "name": "setPermit",
      "outputs": [],
      "stateMutability": "nonpayable",
      "type": "function"
    }
  ],
  "bytecode": "0x60c060405260016000553480156200001657600080fd5b50604051620018943803806200189483398101604081905262000039916200006a565b6001600160a01b039182166080521660a052620000a9565b6001600160a01b03811681146200006757600080fd5b50565b600080604083850312156200007e57600080fd5b82516200008b8162000051565b60208401519092506200009e8162000051565b809150509250929050565b60805160a0516117b7620000dd60003960008181610531015261056401526000818161023e015261078501526117b76000f3fe6080604052600436106100655760003560e01c8063d829b17d11610043578063d829b17d146100d2578063dd1e2e0f146100f2578063fb0c44411461012557600080fd5b80631015f46e1461006a57806344dc7b4614610090578063ac9650d8146100b2575b600080fd5b61007d610078366004611005565b610145565b6040519081526020015b60405180910390f35b34801561009c57600080fd5b506100b06100ab36600461107d565b610755565b005b6100c56100c03660046110c9565b6107f7565b6040516100879190611163565b3480156100de57600080fd5b506100b06100ed3660046111f9565b610967565b3480156100fe57600080fd5b5061011261010d366004611253565b610a0c565b6040516100879796959493929190611277565b34801561013157600080fd5b506100b06101403660046112df565b610b2b565b600060026000541415610184576040517fab143c0600000000000000000000000000000000000000000000000000000000815260040160405180910390fd5b600260008181556001600160a01b0385168152600160205260409020908101547801000000000000000000000000000000000000000000000000900463ffffffff164211156101ff576040517f0bd8a3eb00000000000000000000000000000000000000000000000000000000815260040160405180910390fd5b8054156102e95780546040517f29c93b7f00000000000000000000000000000000000000000000000000000000815260048101919091523360248201527f00000000000000000000000000000000000000000000000000000000000000006001600160a01b0316906329c93b7f906044016020604051808303816000875af115801561028f573d6000803e3d6000fd5b505050506040513d601f19601f820116820180604052508101906102b39190611351565b6102e9576040517f665c1c5700000000000000000000000000000000000000000000000000000000815260040160405180910390fd5b60018101546001600160a01b03166104765760018101546103259074010000000000000000000000000000000000000000900460ff1634611389565b60028201549092506bffffffffffffffffffffffff8082169161035a9185916c010000000000000000000000009004166113c6565b1115610392576040517f64aa3de500000000000000000000000000000000000000000000000000000000815260040160405180910390fd5b6103a56001600160a01b03851634610d93565b8181600201600c8282829054906101000a90046bffffffffffffffffffffffff166103d091906113de565b82546bffffffffffffffffffffffff9182166101009390930a9283029190920219909116179055506040517f528c198a000000000000000000000000000000000000000000000000000000008152336004820152602481018390526001600160a01b0385169063528c198a90604401600060405180830381600087803b15801561045957600080fd5b505af115801561046d573d6000803e3d6000fd5b50505050610709565b60018101546001600160a01b031661dead141561058b5760018101546104b79074010000000000000000000000000000000000000000900460ff1634611389565b60028201549092506bffffffffffffffffffffffff808216916104ec9185916c010000000000000000000000009004166113c6565b1115610524576040517f64aa3de500000000000000000000000000000000000000000000000000000000815260040160405180910390fd5b6105576001600160a01b037f00000000000000000000000000000000000000000000000000000000000000001634610d93565b6103a56001600160a01b037f0000000000000000000000000000000000000000000000000000000000000000168534610ddd565b60018101546105a5906001600160a01b0316338686610e6d565b60018101546105cf9074010000000000000000000000000000000000000000900460ff1684611389565b60028201549092506bffffffffffffffffffffffff808216916106049185916c010000000000000000000000009004166113c6565b111561063c576040517f64aa3de500000000000000000000000000000000000000000000000000000000815260040160405180910390fd5b8181600201600c8282829054906101000a90046bffffffffffffffffffffffff1661066791906113de565b82546bffffffffffffffffffffffff9182166101009390930a9283029190920219909116179055506040517f528c198a000000000000000000000000000000000000000000000000000000008152336004820152602481018390526001600160a01b0385169063528c198a90604401600060405180830381600087803b1580156106f057600080fd5b505af1158015610704573d6000803e3d6000fd5b505050505b60405182815233906001600160a01b038616907fe29845e5b466b9faae3f6ea1e46159fd4c7668593a558dfb5a8692e63f5197479060200160405180910390a350600160005592915050565b6040517f1ebd602f0000000000000000000000000000000000000000000000000000000081526001600160a01b037f00000000000000000000000000000000000000000000000000000000000000001690631ebd602f906107c090869033908790879060040161140e565b600060405180830381600087803b1580156107da57600080fd5b505af11580156107ee573d6000803e3d6000fd5b50505050505050565b60608167ffffffffffffffff8111156108125761081261147a565b60405190808252806020026020018201604052801561084557816020015b60608152602001906001900390816108305790505b50905060005b82811015610960576000803086868581811061086957610869611490565b905060200281019061087b91906114a6565b60405161088992919061150b565b600060405180830381855af49150503d80600081146108c4576040519150601f19603f3d011682016040523d82523d6000602084013e6108c9565b606091505b509150915081610938576044815110156108e257600080fd5b600481019050808060200190518101906108fc9190611574565b6040517f08c379a000000000000000000000000000000000000000000000000000000000815260040161092f91906115f0565b60405180910390fd5b8084848151811061094b5761094b611490565b6020908102919091010152505060010161084b565b5092915050565b6040517fd505accf000000000000000000000000000000000000000000000000000000008152336004820152306024820152604481018690526064810185905260ff8416608482015260a4810183905260c481018290526001600160a01b0387169063d505accf9060e401600060405180830381600087803b1580156109ec57600080fd5b505af1158015610a00573d6000803e3d6000fd5b50505050505050505050565b600160208190526000918252604090912080549181015460028201546003830180546001600160a01b038416947401000000000000000000000000000000000000000090940460ff16936bffffffffffffffffffffffff808516946c01000000000000000000000000810490911693780100000000000000000000000000000000000000000000000090910463ffffffff1692610aa890611603565b80601f0160208091040260200160405190810160405280929190818152602001828054610ad490611603565b8015610b215780601f10610af657610100808354040283529160200191610b21565b820191906000526020600020905b815481529060010190602001808311610b0457829003601f168201915b5050505050905087565b60026000541415610b68576040517fab143c0600000000000000000000000000000000000000000000000000000000815260040160405180910390fd5b600260009081558080808080610b808789018961163e565b9550955095509550955095508360ff1660001415610bca576040517f4b5746c000000000000000000000000000000000000000000000000000000000815260040160405180910390fd5b6040805160e0810182528781526001600160a01b03808816602080840191825260ff808a168587019081526bffffffffffffffffffffffff808b166060880190815260006080890181815263ffffffff808e1660a08c0190815260c08c018e81523385526001808b529d9094208c51815599519c8a018054975190981674010000000000000000000000000000000000000000027fffffffffffffffffffffff0000000000000000000000000000000000000000009097169c909a169b909b179490941790945551600286018054935197519099167801000000000000000000000000000000000000000000000000027fffffffff00000000ffffffffffffffffffffffffffffffffffffffffffffffff9783166c01000000000000000000000000027fffffffffffffffff00000000000000000000000000000000000000000000000090941691909216179190911794909416939093179094559051805192939192610d3d9260038501920190610f54565b50506040513391507f3f2cc5a7a893f6f829545cabc460229e17e4328d2044ee1f66cfe7a45dce97ad90610d7c90899089908990899089908990611724565b60405180910390a250506001600055505050505050565b600080600080600085875af1905080610dd8576040517f23c133f200000000000000000000000000000000000000000000000000000000815260040160405180910390fd5b505050565b60006040517fa9059cbb0000000000000000000000000000000000000000000000000000000081526001600160a01b03841660048201528260248201526000806044836000895af1915050610e3181610f0d565b610e67576040517f90b8ec1800000000000000000000000000000000000000000000000000000000815260040160405180910390fd5b50505050565b60006040517f23b872dd0000000000000000000000000000000000000000000000000000000081526001600160a01b03851660048201526001600160a01b038416602482015282604482015260008060648360008a5af1915050610ed081610f0d565b610f06576040517f7939f42400000000000000000000000000000000000000000000000000000000815260040160405180910390fd5b5050505050565b60003d82610f1f57806000803e806000fd5b8060208114610f37578015610f485760009250610f4d565b816000803e60005115159250610f4d565b600192505b5050919050565b828054610f6090611603565b90600052602060002090601f016020900481019282610f825760008555610fc8565b82601f10610f9b57805160ff1916838001178555610fc8565b82800160010185558215610fc8579182015b82811115610fc8578251825591602001919060010190610fad565b50610fd4929150610fd8565b5090565b5b80821115610fd45760008155600101610fd9565b6001600160a01b038116811461100257600080fd5b50565b6000806040838503121561101857600080fd5b823561102381610fed565b946020939093013593505050565b60008083601f84011261104357600080fd5b50813567ffffffffffffffff81111561105b57600080fd5b6020830191508360208260051b850101111561107657600080fd5b9250929050565b60008060006040848603121561109257600080fd5b83359250602084013567ffffffffffffffff8111156110b057600080fd5b6110bc86828701611031565b9497909650939450505050565b600080602083850312156110dc57600080fd5b823567ffffffffffffffff8111156110f357600080fd5b6110ff85828601611031565b90969095509350505050565b60005b8381101561112657818101518382015260200161110e565b83811115610e675750506000910152565b6000815180845261114f81602086016020860161110b565b601f01601f19169290920160200192915050565b6000602080830181845280855180835260408601915060408160051b870101925083870160005b828110156111d6577fffffffffffffffffffffffffffffffffffffffffffffffffffffffffffffffc08886030184526111c4858351611137565b9450928501929085019060010161118a565b5092979650505050505050565b803560ff811681146111f457600080fd5b919050565b60008060008060008060c0878903121561121257600080fd5b863561121d81610fed565b95506020870135945060408701359350611239606088016111e3565b92506080870135915060a087013590509295509295509295565b60006020828403121561126557600080fd5b813561127081610fed565b9392505050565b8781526001600160a01b038716602082015260ff8616604082015260006bffffffffffffffffffffffff808716606084015280861660808401525063ffffffff841660a083015260e060c08301526112d260e0830184611137565b9998505050505050505050565b600080602083850312156112f257600080fd5b823567ffffffffffffffff8082111561130a57600080fd5b818501915085601f83011261131e57600080fd5b81358181111561132d57600080fd5b86602082850101111561133f57600080fd5b60209290920196919550909350505050565b60006020828403121561136357600080fd5b8151801515811461127057600080fd5b634e487b7160e01b600052601160045260246000fd5b6000817fffffffffffffffffffffffffffffffffffffffffffffffffffffffffffffffff04831182151516156113c1576113c1611373565b500290565b600082198211156113d9576113d9611373565b500190565b60006bffffffffffffffffffffffff80831681851680830382111561140557611405611373565b01949350505050565b8481526001600160a01b03841660208201526060604082015281606082015260007f07ffffffffffffffffffffffffffffffffffffffffffffffffffffffffffffff83111561145c57600080fd5b8260051b808560808501376000920160800191825250949350505050565b634e487b7160e01b600052604160045260246000fd5b634e487b7160e01b600052603260045260246000fd5b60008083357fffffffffffffffffffffffffffffffffffffffffffffffffffffffffffffffe18436030181126114db57600080fd5b83018035915067ffffffffffffffff8211156114f657600080fd5b60200191503681900382131561107657600080fd5b8183823760009101908152919050565b604051601f8201601f1916810167ffffffffffffffff811182821017156115445761154461147a565b604052919050565b600067ffffffffffffffff8211156115665761156661147a565b50601f01601f191660200190565b60006020828403121561158657600080fd5b815167ffffffffffffffff81111561159d57600080fd5b8201601f810184136115ae57600080fd5b80516115c16115bc8261154c565b61151b565b8181528560208385010111156115d657600080fd5b6115e782602083016020860161110b565b95945050505050565b6020815260006112706020830184611137565b600181811c9082168061161757607f821691505b6020821081141561163857634e487b7160e01b600052602260045260246000fd5b50919050565b60008060008060008060c0878903121561165757600080fd5b86359550602087013561166981610fed565b9450611677604088016111e3565b935060608701356bffffffffffffffffffffffff8116811461169857600080fd5b9250608087013563ffffffff811681146116b157600080fd5b915060a087013567ffffffffffffffff8111156116cd57600080fd5b8701601f810189136116de57600080fd5b80356116ec6115bc8261154c565b8181528a602083850101111561170157600080fd5b816020840160208301376000602083830101528093505050509295509295509295565b8681526001600160a01b038616602082015260ff851660408201526bffffffffffffffffffffffff8416606082015263ffffffff8316608082015260c060a0820152600061177560c0830184611137565b9897505050505050505056fea26469706673582212201083ce9d08ec3bc1f6def5c8c110078f539d84e0543cddaad56ee2d301705d0e64736f6c634300080b0033",
  "linkReferences": {},
  "deployedLinkReferences": {}
}