{
  "_format": "hh-sol-artifact-1",
  "contractName": "KaliDAOlinearCurve",
  "sourceName": "contracts/extensions/crowdsale/KaliDAOlinearCurve.sol",
  "abi": [
    {
      "inputs": [
        {
          "internalType": "contract IKaliAccessManager",
          "name": "accessManager_",
          "type": "address"
        }
      ],
      "stateMutability": "nonpayable",
      "type": "constructor"
    },
    {
      "inputs": [],
      "name": "ETHtransferFailed",
      "type": "error"
    },
    {
      "inputs": [],
      "name": "NotListed",
      "type": "error"
    },
    {
      "inputs": [],
      "name": "NotPrice",
      "type": "error"
    },
    {
      "inputs": [],
      "name": "PurchaseLimit",
      "type": "error"
    },
    {
      "inputs": [],
      "name": "Reentrancy",
      "type": "error"
    },
    {
      "inputs": [],
      "name": "SaleEnded",
      "type": "error"
    },
    {
      "anonymous": false,
      "inputs": [
        {
          "indexed": true,
          "internalType": "address",
          "name": "dao",
          "type": "address"
        },
        {
          "indexed": true,
          "internalType": "address",
          "name": "member",
          "type": "address"
        },
        {
          "indexed": true,
          "internalType": "uint256",
          "name": "amountOut",
          "type": "uint256"
        }
      ],
      "name": "ExtensionCalled",
      "type": "event"
    },
    {
      "anonymous": false,
      "inputs": [
        {
          "indexed": true,
          "internalType": "uint256",
          "name": "listId",
          "type": "uint256"
        },
        {
          "indexed": false,
          "internalType": "uint256",
          "name": "startingPrice",
          "type": "uint256"
        },
        {
          "indexed": false,
          "internalType": "uint96",
          "name": "purchaseLimit",
          "type": "uint96"
        },
        {
          "indexed": false,
          "internalType": "uint96",
          "name": "blockSize",
          "type": "uint96"
        },
        {
          "indexed": false,
          "internalType": "uint96",
          "name": "blockPriceIncrement",
          "type": "uint96"
        },
        {
          "indexed": false,
          "internalType": "uint32",
          "name": "saleEnds",
          "type": "uint32"
        }
      ],
      "name": "ExtensionSet",
      "type": "event"
    },
    {
      "inputs": [],
      "name": "accessManager",
      "outputs": [
        {
          "internalType": "contract IKaliAccessManager",
          "name": "",
          "type": "address"
        }
      ],
      "stateMutability": "view",
      "type": "function"
    },
    {
      "inputs": [
        {
          "internalType": "address",
          "name": "account",
          "type": "address"
        },
        {
          "internalType": "uint256",
          "name": "amount",
          "type": "uint256"
        },
        {
          "internalType": "bytes",
          "name": "",
          "type": "bytes"
        }
      ],
      "name": "callExtension",
      "outputs": [
        {
          "internalType": "bool",
          "name": "mint",
          "type": "bool"
        },
        {
          "internalType": "uint256",
          "name": "amountOut",
          "type": "uint256"
        }
      ],
      "stateMutability": "payable",
      "type": "function"
    },
    {
      "inputs": [
        {
          "internalType": "address",
          "name": "",
          "type": "address"
        }
      ],
      "name": "crowdsales",
      "outputs": [
        {
          "internalType": "uint256",
          "name": "listId",
          "type": "uint256"
        },
        {
          "internalType": "uint256",
          "name": "startingPrice",
          "type": "uint256"
        },
        {
          "internalType": "uint96",
          "name": "purchaseLimit",
          "type": "uint96"
        },
        {
          "internalType": "uint96",
          "name": "amountPurchased",
          "type": "uint96"
        },
        {
          "internalType": "uint96",
          "name": "blockSize",
          "type": "uint96"
        },
        {
          "internalType": "uint96",
          "name": "blockPriceIncrement",
          "type": "uint96"
        },
        {
          "internalType": "uint32",
          "name": "saleEnds",
          "type": "uint32"
        }
      ],
      "stateMutability": "view",
      "type": "function"
    },
    {
      "inputs": [
        {
          "components": [
            {
              "internalType": "uint256",
              "name": "listId",
              "type": "uint256"
            },
            {
              "internalType": "uint256",
              "name": "startingPrice",
              "type": "uint256"
            },
            {
              "internalType": "uint96",
              "name": "purchaseLimit",
              "type": "uint96"
            },
            {
              "internalType": "uint96",
              "name": "amountPurchased",
              "type": "uint96"
            },
            {
              "internalType": "uint96",
              "name": "blockSize",
              "type": "uint96"
            },
            {
              "internalType": "uint96",
              "name": "blockPriceIncrement",
              "type": "uint96"
            },
            {
              "internalType": "uint32",
              "name": "saleEnds",
              "type": "uint32"
            }
          ],
          "internalType": "struct KaliDAOlinearCurve.Crowdsale",
          "name": "sale",
          "type": "tuple"
        },
        {
          "internalType": "uint256",
          "name": "amount",
          "type": "uint256"
        }
      ],
      "name": "estimatePrice",
      "outputs": [
        {
          "internalType": "uint256",
          "name": "",
          "type": "uint256"
        }
      ],
      "stateMutability": "view",
      "type": "function"
    },
    {
      "inputs": [
        {
          "internalType": "bytes",
          "name": "extensionData",
          "type": "bytes"
        }
      ],
      "name": "setExtension",
      "outputs": [],
      "stateMutability": "nonpayable",
      "type": "function"
    }
  ],
  "bytecode": "0x60a0604052600160005534801561001557600080fd5b50604051610f59380380610f5983398101604081905261003491610045565b6001600160a01b0316608052610075565b60006020828403121561005757600080fd5b81516001600160a01b038116811461006e57600080fd5b9392505050565b608051610ec2610097600039600081816101d101526103210152610ec26000f3fe60806040526004361061005a5760003560e01c8063dd1e2e0f11610043578063dd1e2e0f146100bc578063fb0c44411461019d578063fdcb6068146101bf57600080fd5b806336ceb11a1461005f5780637cc3cccf1461008e575b600080fd5b61007261006d366004610afa565b610218565b6040805192151583526020830191909152015b60405180910390f35b34801561009a57600080fd5b506100ae6100a9366004610b84565b6105da565b604051908152602001610085565b3480156100c857600080fd5b5061014f6100d7366004610c68565b6001602081905260009182526040909120805491810154600282015460039092015490916bffffffffffffffffffffffff808216926c01000000000000000000000000928390048216928282169290820416907801000000000000000000000000000000000000000000000000900463ffffffff1687565b6040805197885260208801969096526bffffffffffffffffffffffff948516958701959095529183166060860152821660808501521660a083015263ffffffff1660c082015260e001610085565b3480156101a957600080fd5b506101bd6101b8366004610c8a565b61082e565b005b3480156101cb57600080fd5b506101f37f000000000000000000000000000000000000000000000000000000000000000081565b60405173ffffffffffffffffffffffffffffffffffffffff9091168152602001610085565b60008060026000541415610258576040517fab143c0600000000000000000000000000000000000000000000000000000000815260040160405180910390fd5b6002600090815533815260016020526040902060038101547801000000000000000000000000000000000000000000000000900463ffffffff164211156102cb576040517f0bd8a3eb00000000000000000000000000000000000000000000000000000000815260040160405180910390fd5b8054156103c45780546040517f29c93b7f000000000000000000000000000000000000000000000000000000008152600481019190915273ffffffffffffffffffffffffffffffffffffffff88811660248301527f000000000000000000000000000000000000000000000000000000000000000016906329c93b7f906044016020604051808303816000875af115801561036a573d6000803e3d6000fd5b505050506040513d601f19601f8201168201806040525081019061038e9190610ccc565b6103c4576040517f665c1c5700000000000000000000000000000000000000000000000000000000815260040160405180910390fd5b6040805160e081018252825481526001830154602082015260028301546bffffffffffffffffffffffff808216938301939093526c0100000000000000000000000090819004831660608301526003840154808416608084015290810490921660a0820152780100000000000000000000000000000000000000000000000090910463ffffffff1660c082015260009061045e90886105da565b9050803414610499576040517f5da1a52600000000000000000000000000000000000000000000000000000000815260040160405180910390fd5b60028201548793506bffffffffffffffffffffffff808216916104ce9186916c01000000000000000000000000900416610d1d565b1115610506576040517f64aa3de500000000000000000000000000000000000000000000000000000000815260040160405180910390fd5b6105103334610a3e565b8282600201600c8282829054906101000a90046bffffffffffffffffffffffff1661053b9190610d35565b92506101000a8154816bffffffffffffffffffffffff02191690836bffffffffffffffffffffffff16021790555060019350828873ffffffffffffffffffffffffffffffffffffffff163373ffffffffffffffffffffffffffffffffffffffff167fe29845e5b466b9faae3f6ea1e46159fd4c7668593a558dfb5a8692e63f51974760405160405180910390a450506001600055909590945092505050565b6000803373ffffffffffffffffffffffffffffffffffffffff166318160ddd6040518163ffffffff1660e01b8152600401602060405180830381865afa158015610628573d6000803e3d6000fd5b505050506040513d601f19601f8201168201806040525081019061064c9190610d65565b9050600084608001516bffffffffffffffffffffffff168261066e9190610dad565b905060008186608001516bffffffffffffffffffffffff166106909190610dc1565b60208701516080880151919250906000906106b9906bffffffffffffffffffffffff1686610dd8565b905060005b818110156106f75760a08901516106e3906bffffffffffffffffffffffff1684610d1d565b9250806106ef81610dec565b9150506106be565b5060008388116107125761070b8389610e07565b9050610822565b61071c8385610e07565b6107269082610d1d565b90508860a001516bffffffffffffffffffffffff16836107469190610d1d565b92506000610754858a610dc1565b905060008a608001516bffffffffffffffffffffffff16826107769190610dad565b905060008b608001516bffffffffffffffffffffffff16836107989190610dd8565b905060005b818110156108005760808d01516107c2906bffffffffffffffffffffffff1688610e07565b6107cc9086610d1d565b94508c60a001516bffffffffffffffffffffffff16876107ec9190610d1d565b9650806107f881610dec565b91505061079d565b50811561081e576108118683610e07565b61081b9085610d1d565b93505b5050505b98975050505050505050565b6002600054141561086b576040517fab143c0600000000000000000000000000000000000000000000000000000000815260040160405180910390fd5b60026000908155808080808061088387890189610e26565b6040805160e08101825287815260208082018881526bffffffffffffffffffffffff808916848601908152600060608601818152838b1660808801908152848b1660a0890190815263ffffffff808c1660c08b019081523386526001998a9052948b902099518a559651978901979097559251600288018054925186166c010000000000000000000000009081027fffffffffffffffff00000000000000000000000000000000000000000000000094851693881693909317929092179055925160039097018054965192519095167801000000000000000000000000000000000000000000000000027fffffffff00000000ffffffffffffffffffffffffffffffffffffffffffffffff92851690930295169590921694909417929092179190911691909117905551959b5093995091975095509350915086907f3b6b5eac1d282a831924839ffb73f973d52aaa88173543cbcbe8628bf2fc1d4b90610a2790889088908890889088909485526bffffffffffffffffffffffff93841660208601529183166040850152909116606083015263ffffffff16608082015260a00190565b60405180910390a250506001600055505050505050565b600080600080600085875af1905080610a83576040517f23c133f200000000000000000000000000000000000000000000000000000000815260040160405180910390fd5b505050565b803573ffffffffffffffffffffffffffffffffffffffff81168114610aac57600080fd5b919050565b60008083601f840112610ac357600080fd5b50813567ffffffffffffffff811115610adb57600080fd5b602083019150836020828501011115610af357600080fd5b9250929050565b60008060008060608587031215610b1057600080fd5b610b1985610a88565b935060208501359250604085013567ffffffffffffffff811115610b3c57600080fd5b610b4887828801610ab1565b95989497509550505050565b80356bffffffffffffffffffffffff81168114610aac57600080fd5b803563ffffffff81168114610aac57600080fd5b600080828403610100811215610b9957600080fd5b60e0811215610ba757600080fd5b5060405160e0810181811067ffffffffffffffff82111715610bf2577f4e487b7100000000000000000000000000000000000000000000000000000000600052604160045260246000fd5b80604052508335815260208401356020820152610c1160408501610b54565b6040820152610c2260608501610b54565b6060820152610c3360808501610b54565b6080820152610c4460a08501610b54565b60a0820152610c5560c08501610b70565b60c08201529460e0939093013593505050565b600060208284031215610c7a57600080fd5b610c8382610a88565b9392505050565b60008060208385031215610c9d57600080fd5b823567ffffffffffffffff811115610cb457600080fd5b610cc085828601610ab1565b90969095509350505050565b600060208284031215610cde57600080fd5b81518015158114610c8357600080fd5b7f4e487b7100000000000000000000000000000000000000000000000000000000600052601160045260246000fd5b60008219821115610d3057610d30610cee565b500190565b60006bffffffffffffffffffffffff808316818516808303821115610d5c57610d5c610cee565b01949350505050565b600060208284031215610d7757600080fd5b5051919050565b7f4e487b7100000000000000000000000000000000000000000000000000000000600052601260045260246000fd5b600082610dbc57610dbc610d7e565b500690565b600082821015610dd357610dd3610cee565b500390565b600082610de757610de7610d7e565b500490565b6000600019821415610e0057610e00610cee565b5060010190565b6000816000190483118215151615610e2157610e21610cee565b500290565b60008060008060008060c08789031215610e3f57600080fd5b8635955060208701359450610e5660408801610b54565b9350610e6460608801610b54565b9250610e7260808801610b54565b9150610e8060a08801610b70565b9050929550929550929556fea26469706673582212200b2bf99827f65cecd70a55bcb7a6164be4e217588769ea09010a6ae845e29e1564736f6c634300080b0033",
  "linkReferences": {},
  "deployedLinkReferences": {}
}