{
  "_format": "hh-sol-artifact-1",
  "contractName": "KaliDAOredemption",
  "sourceName": "contracts/extensions/redemption/KaliDAOredemption.sol",
  "abi": [
    {
      "inputs": [],
      "name": "NotStarted",
      "type": "error"
    },
    {
      "inputs": [],
      "name": "NullTokens",
      "type": "error"
    },
    {
      "inputs": [],
      "name": "Reentrancy",
      "type": "error"
    },
    {
      "inputs": [],
      "name": "TransferFromFailed",
      "type": "error"
    },
    {
      "anonymous": false,
      "inputs": [
        {
          "indexed": true,
          "internalType": "address",
          "name": "dao",
          "type": "address"
        },
        {
          "indexed": true,
          "internalType": "address",
          "name": "member",
          "type": "address"
        },
        {
          "indexed": true,
          "internalType": "uint256",
          "name": "amountBurned",
          "type": "uint256"
        }
      ],
      "name": "ExtensionCalled",
      "type": "event"
    },
    {
      "anonymous": false,
      "inputs": [
        {
          "indexed": true,
          "internalType": "address",
          "name": "dao",
          "type": "address"
        },
        {
          "indexed": false,
          "internalType": "address[]",
          "name": "tokens",
          "type": "address[]"
        },
        {
          "indexed": true,
          "internalType": "uint256",
          "name": "redemptionStart",
          "type": "uint256"
        }
      ],
      "name": "ExtensionSet",
      "type": "event"
    },
    {
      "anonymous": false,
      "inputs": [
        {
          "indexed": true,
          "internalType": "address",
          "name": "dao",
          "type": "address"
        },
        {
          "indexed": false,
          "internalType": "address[]",
          "name": "tokens",
          "type": "address[]"
        }
      ],
      "name": "TokensAdded",
      "type": "event"
    },
    {
      "anonymous": false,
      "inputs": [
        {
          "indexed": true,
          "internalType": "address",
          "name": "dao",
          "type": "address"
        },
        {
          "indexed": false,
          "internalType": "uint256[]",
          "name": "tokenIndex",
          "type": "uint256[]"
        }
      ],
      "name": "TokensRemoved",
      "type": "event"
    },
    {
      "inputs": [
        {
          "internalType": "address[]",
          "name": "tokens",
          "type": "address[]"
        }
      ],
      "name": "addTokens",
      "outputs": [],
      "stateMutability": "nonpayable",
      "type": "function"
    },
    {
      "inputs": [
        {
          "internalType": "address",
          "name": "account",
          "type": "address"
        },
        {
          "internalType": "uint256",
          "name": "amount",
          "type": "uint256"
        },
        {
          "internalType": "bytes",
          "name": "",
          "type": "bytes"
        }
      ],
      "name": "callExtension",
      "outputs": [
        {
          "internalType": "bool",
          "name": "mint",
          "type": "bool"
        },
        {
          "internalType": "uint256",
          "name": "amountOut",
          "type": "uint256"
        }
      ],
      "stateMutability": "nonpayable",
      "type": "function"
    },
    {
      "inputs": [
        {
          "internalType": "address",
          "name": "dao",
          "type": "address"
        }
      ],
      "name": "getRedeemables",
      "outputs": [
        {
          "internalType": "address[]",
          "name": "tokens",
          "type": "address[]"
        }
      ],
      "stateMutability": "view",
      "type": "function"
    },
    {
      "inputs": [
        {
          "internalType": "address",
          "name": "",
          "type": "address"
        },
        {
          "internalType": "uint256",
          "name": "",
          "type": "uint256"
        }
      ],
      "name": "redeemables",
      "outputs": [
        {
          "internalType": "address",
          "name": "",
          "type": "address"
        }
      ],
      "stateMutability": "view",
      "type": "function"
    },
    {
      "inputs": [
        {
          "internalType": "address",
          "name": "",
          "type": "address"
        }
      ],
      "name": "redemptionStarts",
      "outputs": [
        {
          "internalType": "uint256",
          "name": "",
          "type": "uint256"
        }
      ],
      "stateMutability": "view",
      "type": "function"
    },
    {
      "inputs": [
        {
          "internalType": "uint256[]",
          "name": "tokenIndex",
          "type": "uint256[]"
        }
      ],
      "name": "removeTokens",
      "outputs": [],
      "stateMutability": "nonpayable",
      "type": "function"
    },
    {
      "inputs": [
        {
          "internalType": "bytes",
          "name": "extensionData",
          "type": "bytes"
        }
      ],
      "name": "setExtension",
      "outputs": [],
      "stateMutability": "nonpayable",
      "type": "function"
    }
  ],
  "bytecode": "0x6080604052600160005534801561001557600080fd5b50610e77806100256000396000f3fe608060405234801561001057600080fd5b506004361061007d5760003560e01c80638340c3d01161005b5780638340c3d0146100f4578063ee67177314610114578063fb0c44411461013f578063ff59bcd01461015257600080fd5b80632e91974d1461008257806336ceb11a146100b55780634ae05c7d146100df575b600080fd5b6100a26100903660046109da565b60026020526000908152604090205481565b6040519081526020015b60405180910390f35b6100c86100c3366004610a45565b610165565b6040805192151583526020830191909152016100ac565b6100f26100ed366004610ae4565b6103c3565b005b6101076101023660046109da565b6104ca565b6040516100ac9190610b26565b610127610122366004610b73565b610540565b6040516001600160a01b0390911681526020016100ac565b6100f261014d366004610b9d565b610578565b6100f2610160366004610ae4565b610702565b6000806002600054141561018c5760405163558a1e0360e11b815260040160405180910390fd5b6002600081815533815260209190915260409020544210156101da576040517f6f312cbd00000000000000000000000000000000000000000000000000000000815260040160405180910390fd5b60005b33600090815260016020526040902054811015610374576000336001600160a01b03166318160ddd6040518163ffffffff1660e01b8152600401602060405180830381865afa158015610234573d6000803e3d6000fd5b505050506040513d601f19601f820116820180604052508101906102589190610bd3565b33600090815260016020526040902080548490811061027957610279610bec565b6000918252602090912001546040517f70a082310000000000000000000000000000000000000000000000000000000081523360048201526001600160a01b03909116906370a0823190602401602060405180830381865afa1580156102e3573d6000803e3d6000fd5b505050506040513d601f19601f820116820180604052508101906103079190610bd3565b6103119089610c18565b61031b9190610c37565b9050801561036b57336000818152600160205260409020805461036b92918b918591908790811061034e5761034e610bec565b6000918252602090912001546001600160a01b031692919061089d565b506001016101dd565b505060405160009150849081906001600160a01b0388169033907fe29845e5b466b9faae3f6ea1e46159fd4c7668593a558dfb5a8692e63f519747908690a46001600055909590945092505050565b600260005414156103e75760405163558a1e0360e11b815260040160405180910390fd5b600260009081555b8181101561047d5733600090815260016020526040902083838381811061041857610418610bec565b905060200201602081019061042d91906109da565b815460018082018455600093845260209093200180547fffffffffffffffffffffffff0000000000000000000000000000000000000000166001600160a01b0392909216919091179055016103ef565b50336001600160a01b03167fb52c246adab8357fbbc9838f7af811e08bc8bb86a74dbd08e45db2e1686b329b83836040516104b9929190610c59565b60405180910390a250506001600055565b6001600160a01b03811660009081526001602090815260409182902080548351818402810184019094528084526060939283018282801561053457602002820191906000526020600020905b81546001600160a01b03168152600190910190602001808311610516575b50505050509050919050565b6001602052816000526040600020818154811061055c57600080fd5b6000918252602090912001546001600160a01b03169150829050565b6002600054141561059c5760405163558a1e0360e11b815260040160405180910390fd5b60026000908155806105b083850185610cbb565b915091508151600014156105f0576040517f4f80688a00000000000000000000000000000000000000000000000000000000815260040160405180910390fd5b336000908152600160205260409020541561061d5733600090815260016020526040812061061d91610984565b60005b82518110156106a957336000908152600160205260409020835184908390811061064c5761064c610bec565b60209081029190910181015182546001808201855560009485529290932090920180547fffffffffffffffffffffffff0000000000000000000000000000000000000000166001600160a01b039093169290921790915501610620565b503360008181526002602052604090819020839055518291907fa546622bd13400b0d21ccee86e917b2eae9cbcc4e8234d3b62336b7c61abf40e906106ef908690610b26565b60405180910390a3505060016000555050565b600260005414156107265760405163558a1e0360e11b815260040160405180910390fd5b600260009081555b81811015610861573360009081526001602081905260409091208054909161075591610da4565b8154811061076557610765610bec565b6000918252602080832090910154338352600190915260409091206001600160a01b039091169084848481811061079e5761079e610bec565b90506020020135815481106107b5576107b5610bec565b600091825260208083209190910180547fffffffffffffffffffffffff0000000000000000000000000000000000000000166001600160a01b03949094169390931790925533815260019091526040902080548061081557610815610dbb565b600082815260209020810160001990810180547fffffffffffffffffffffffff00000000000000000000000000000000000000001690550190558061085981610dd1565b91505061072e565b50336001600160a01b03167f025c12f84fa7176f6165c553455c9b2b0a454d3c31dea47a6af67e08734d5e4d83836040516104b9929190610dec565b60006040517f23b872dd0000000000000000000000000000000000000000000000000000000081526001600160a01b03851660048201526001600160a01b038416602482015282604482015260008060648360008a5af19150506109008161093d565b610936576040517f7939f42400000000000000000000000000000000000000000000000000000000815260040160405180910390fd5b5050505050565b60003d8261094f57806000803e806000fd5b8060208114610967578015610978576000925061097d565b816000803e6000511515925061097d565b600192505b5050919050565b50805460008255906000526020600020908101906109a291906109a5565b50565b5b808211156109ba57600081556001016109a6565b5090565b80356001600160a01b03811681146109d557600080fd5b919050565b6000602082840312156109ec57600080fd5b6109f5826109be565b9392505050565b60008083601f840112610a0e57600080fd5b50813567ffffffffffffffff811115610a2657600080fd5b602083019150836020828501011115610a3e57600080fd5b9250929050565b60008060008060608587031215610a5b57600080fd5b610a64856109be565b935060208501359250604085013567ffffffffffffffff811115610a8757600080fd5b610a93878288016109fc565b95989497509550505050565b60008083601f840112610ab157600080fd5b50813567ffffffffffffffff811115610ac957600080fd5b6020830191508360208260051b8501011115610a3e57600080fd5b60008060208385031215610af757600080fd5b823567ffffffffffffffff811115610b0e57600080fd5b610b1a85828601610a9f565b90969095509350505050565b6020808252825182820181905260009190848201906040850190845b81811015610b675783516001600160a01b031683529284019291840191600101610b42565b50909695505050505050565b60008060408385031215610b8657600080fd5b610b8f836109be565b946020939093013593505050565b60008060208385031215610bb057600080fd5b823567ffffffffffffffff811115610bc757600080fd5b610b1a858286016109fc565b600060208284031215610be557600080fd5b5051919050565b634e487b7160e01b600052603260045260246000fd5b634e487b7160e01b600052601160045260246000fd5b6000816000190483118215151615610c3257610c32610c02565b500290565b600082610c5457634e487b7160e01b600052601260045260246000fd5b500490565b60208082528181018390526000908460408401835b86811015610c9a576001600160a01b03610c87846109be565b1682529183019190830190600101610c6e565b509695505050505050565b634e487b7160e01b600052604160045260246000fd5b60008060408385031215610cce57600080fd5b823567ffffffffffffffff80821115610ce657600080fd5b818501915085601f830112610cfa57600080fd5b8135602082821115610d0e57610d0e610ca5565b8160051b6040517fffffffffffffffffffffffffffffffffffffffffffffffffffffffffffffffe0603f83011681018181108682111715610d5157610d51610ca5565b604052928352818301935084810182019289841115610d6f57600080fd5b948201945b83861015610d9457610d85866109be565b85529482019493820193610d74565b9997909101359750505050505050565b600082821015610db657610db6610c02565b500390565b634e487b7160e01b600052603160045260246000fd5b6000600019821415610de557610de5610c02565b5060010190565b6020815281602082015260007f07ffffffffffffffffffffffffffffffffffffffffffffffffffffffffffffff831115610e2557600080fd5b8260051b8085604085013760009201604001918252509291505056fea2646970667358221220e4ec1af236d402f882176f9168fe85e2052031e3a7a4f8d4c58490fdd9975e1c64736f6c634300080b0033",
  "linkReferences": {},
  "deployedLinkReferences": {}
}