{
  "_format": "hh-sol-artifact-1",
  "contractName": "KaliDAOfactory",
  "sourceName": "contracts/KaliDAOfactory.sol",
  "abi": [
    {
      "inputs": [
        {
          "internalType": "address payable",
          "name": "kaliMaster_",
          "type": "address"
        },
        {
          "internalType": "contract IRicardianLLC",
          "name": "ricardianLLC_",
          "type": "address"
        }
      ],
      "stateMutability": "nonpayable",
      "type": "constructor"
    },
    {
      "inputs": [],
      "name": "NullDeploy",
      "type": "error"
    },
    {
      "anonymous": false,
      "inputs": [
        {
          "indexed": true,
          "internalType": "contract KaliDAO",
          "name": "kaliDAO",
          "type": "address"
        },
        {
          "indexed": false,
          "internalType": "string",
          "name": "name",
          "type": "string"
        },
        {
          "indexed": false,
          "internalType": "string",
          "name": "symbol",
          "type": "string"
        },
        {
          "indexed": false,
          "internalType": "string",
          "name": "docs",
          "type": "string"
        },
        {
          "indexed": false,
          "internalType": "bool",
          "name": "paused",
          "type": "bool"
        },
        {
          "indexed": false,
          "internalType": "address[]",
          "name": "extensions",
          "type": "address[]"
        },
        {
          "indexed": false,
          "internalType": "bytes[]",
          "name": "extensionsData",
          "type": "bytes[]"
        },
        {
          "indexed": false,
          "internalType": "address[]",
          "name": "voters",
          "type": "address[]"
        },
        {
          "indexed": false,
          "internalType": "uint256[]",
          "name": "shares",
          "type": "uint256[]"
        },
        {
          "indexed": false,
          "internalType": "uint32[16]",
          "name": "govSettings",
          "type": "uint32[16]"
        }
      ],
      "name": "DAOdeployed",
      "type": "event"
    },
    {
      "inputs": [
        {
          "internalType": "string",
          "name": "name_",
          "type": "string"
        },
        {
          "internalType": "string",
          "name": "symbol_",
          "type": "string"
        },
        {
          "internalType": "string",
          "name": "docs_",
          "type": "string"
        },
        {
          "internalType": "bool",
          "name": "paused_",
          "type": "bool"
        },
        {
          "internalType": "address[]",
          "name": "extensions_",
          "type": "address[]"
        },
        {
          "internalType": "bytes[]",
          "name": "extensionsData_",
          "type": "bytes[]"
        },
        {
          "internalType": "address[]",
          "name": "voters_",
          "type": "address[]"
        },
        {
          "internalType": "uint256[]",
          "name": "shares_",
          "type": "uint256[]"
        },
        {
          "internalType": "uint32[16]",
          "name": "govSettings_",
          "type": "uint32[16]"
        }
      ],
      "name": "deployKaliDAO",
      "outputs": [
        {
          "internalType": "contract KaliDAO",
          "name": "kaliDAO",
          "type": "address"
        }
      ],
      "stateMutability": "payable",
      "type": "function"
    },
    {
      "inputs": [
        {
          "internalType": "bytes[]",
          "name": "data",
          "type": "bytes[]"
        }
      ],
      "name": "multicall",
      "outputs": [
        {
          "internalType": "bytes[]",
          "name": "results",
          "type": "bytes[]"
        }
      ],
      "stateMutability": "payable",
      "type": "function"
    }
  ],
  "bytecode": "0x60c060405234801561001057600080fd5b50604051610e55380380610e5583398101604081905261002f9161005e565b6001600160a01b039182166080521660a052610098565b6001600160a01b038116811461005b57600080fd5b50565b6000806040838503121561007157600080fd5b825161007c81610046565b602084015190925061008d81610046565b809150509250929050565b60805160a051610d996100bc60003960006101a20152600060920152610d996000f3fe6080604052600436106100295760003560e01c806309ef16021461002e578063ac9650d81461006b575b600080fd5b61004161003c366004610823565b61008b565b60405173ffffffffffffffffffffffffffffffffffffffff90911681526020015b60405180910390f35b61007e610079366004610972565b610273565b6040516100629190610a65565b60006100b77f00000000000000000000000000000000000000000000000000000000000000008d6103e3565b6040517f97b55f8100000000000000000000000000000000000000000000000000000000815290915073ffffffffffffffffffffffffffffffffffffffff8216906397b55f8190610120908f908f908f908f908f908f908f908f908f908f908f90600401610b44565b600060405180830381600087803b15801561013a57600080fd5b505af115801561014e573d6000803e3d6000fd5b50508b518c925015159050610201576040517f6f0a5e7100000000000000000000000000000000000000000000000000000000815273ffffffffffffffffffffffffffffffffffffffff83811660048301527f00000000000000000000000000000000000000000000000000000000000000001690636f0a5e719034906024016000604051808303818588803b1580156101e757600080fd5b505af11580156101fb573d6000803e3d6000fd5b50505050505b8173ffffffffffffffffffffffffffffffffffffffff167f0712ea2ebe8ee974f78171c5f86c898cc0e2858fb69ed676083f8c60ee84ab128e8e8e8e8e8e8e8e8e8e8e60405161025b9b9a99989796959493929190610b44565b60405180910390a2509b9a5050505050505050505050565b60608167ffffffffffffffff81111561028e5761028e61050a565b6040519080825280602002602001820160405280156102c157816020015b60608152602001906001900390816102ac5790505b50905060005b828110156103dc57600080308686858181106102e5576102e5610c35565b90506020028101906102f79190610c64565b604051610305929190610cc9565b600060405180830381855af49150503d8060008114610340576040519150601f19603f3d011682016040523d82523d6000602084013e610345565b606091505b5091509150816103b45760448151101561035e57600080fd5b600481019050808060200190518101906103789190610cd9565b6040517f08c379a00000000000000000000000000000000000000000000000000000000081526004016103ab9190610d50565b60405180910390fd5b808484815181106103c7576103c7610c35565b602090810291909101015250506001016102c7565b5092915050565b6040517f3d602d80600a3d3981f30000000000000000000000000000000000000000000060208201527f363d3d373d3d3d363d7300000000000000000000000000000000000000000000602a8201527fffffffffffffffffffffffffffffffffffffffff000000000000000000000000606084901b1660348201527f5af43d82803e903d91602b57fd5bf30000000000000000000000000000000000604882015260009081906057016040516020818303038152906040529050600083805190602001209050808251602084016000f5925073ffffffffffffffffffffffffffffffffffffffff8316610502576040517f8b1f004000000000000000000000000000000000000000000000000000000000815260040160405180910390fd5b505092915050565b7f4e487b7100000000000000000000000000000000000000000000000000000000600052604160045260246000fd5b604051601f8201601f1916810167ffffffffffffffff811182821017156105625761056261050a565b604052919050565b600067ffffffffffffffff8211156105845761058461050a565b50601f01601f191660200190565b60006105a56105a08461056a565b610539565b90508281528383830111156105b957600080fd5b828260208301376000602084830101529392505050565b600082601f8301126105e157600080fd5b6105f083833560208501610592565b9392505050565b8035801515811461060757600080fd5b919050565b600067ffffffffffffffff8211156106265761062661050a565b5060051b60200190565b803573ffffffffffffffffffffffffffffffffffffffff8116811461060757600080fd5b600082601f83011261066557600080fd5b813560206106756105a08361060c565b82815260059290921b8401810191818101908684111561069457600080fd5b8286015b848110156106b6576106a981610630565b8352918301918301610698565b509695505050505050565b600082601f8301126106d257600080fd5b813560206106e26105a08361060c565b82815260059290921b8401810191818101908684111561070157600080fd5b8286015b848110156106b657803567ffffffffffffffff8111156107255760008081fd5b8701603f810189136107375760008081fd5b610748898683013560408401610592565b845250918301918301610705565b60008083601f84011261076857600080fd5b50813567ffffffffffffffff81111561078057600080fd5b6020830191508360208260051b850101111561079b57600080fd5b9250929050565b600082601f8301126107b357600080fd5b60405161020080820182811067ffffffffffffffff821117156107d8576107d861050a565b604052830181858211156107eb57600080fd5b845b8281101561081857803563ffffffff8116811461080a5760008081fd5b8252602091820191016107ed565b509195945050505050565b60008060008060008060008060008060006103008c8e03121561084557600080fd5b67ffffffffffffffff808d35111561085c57600080fd5b6108698e8e358f016105d0565b9b508060208e0135111561087c57600080fd5b61088c8e60208f01358f016105d0565b9a508060408e0135111561089f57600080fd5b6108af8e60408f01358f016105d0565b99506108bd60608e016105f7565b98508060808e013511156108d057600080fd5b6108e08e60808f01358f01610654565b97508060a08e013511156108f357600080fd5b6109038e60a08f01358f016106c1565b96508060c08e0135111561091657600080fd5b6109268e60c08f01358f01610756565b909650945060e08d013581101561093c57600080fd5b5061094d8d60e08e01358e01610756565b90935091506109608d6101008e016107a2565b90509295989b509295989b9093969950565b6000806020838503121561098557600080fd5b823567ffffffffffffffff81111561099c57600080fd5b6109a885828601610756565b90969095509350505050565b60005b838110156109cf5781810151838201526020016109b7565b838111156109de576000848401525b50505050565b600081518084526109fc8160208601602086016109b4565b601f01601f19169290920160200192915050565b600081518084526020808501808196508360051b8101915082860160005b85811015610a58578284038952610a468483516109e4565b98850198935090840190600101610a2e565b5091979650505050505050565b6020815260006105f06020830184610a10565b8183526000602080850194508260005b85811015610ac15773ffffffffffffffffffffffffffffffffffffffff610aae83610630565b1687529582019590820190600101610a88565b509495945050505050565b81835260007f07ffffffffffffffffffffffffffffffffffffffffffffffffffffffffffffff831115610afe57600080fd5b8260051b8083602087013760009401602001938452509192915050565b8060005b60108110156109de57815163ffffffff16845260209384019390910190600101610b1f565b6000610300808352610b588184018f6109e4565b9050602083820381850152610b6d828f6109e4565b91508382036040850152610b81828e6109e4565b8c1515606086015284810360808601528b51808252828d0193509082019060005b81811015610bd457845173ffffffffffffffffffffffffffffffffffffffff1683529383019391830191600101610ba2565b505084810360a0860152610be8818c610a10565b9250505082810360c0840152610bff81888a610a78565b905082810360e0840152610c14818688610acc565b915050610c25610100830184610b1b565b9c9b505050505050505050505050565b7f4e487b7100000000000000000000000000000000000000000000000000000000600052603260045260246000fd5b60008083357fffffffffffffffffffffffffffffffffffffffffffffffffffffffffffffffe1843603018112610c9957600080fd5b83018035915067ffffffffffffffff821115610cb457600080fd5b60200191503681900382131561079b57600080fd5b8183823760009101908152919050565b600060208284031215610ceb57600080fd5b815167ffffffffffffffff811115610d0257600080fd5b8201601f81018413610d1357600080fd5b8051610d216105a08261056a565b818152856020838501011115610d3657600080fd5b610d478260208301602086016109b4565b95945050505050565b6020815260006105f060208301846109e456fea2646970667358221220f2f5b708462c278ee65a722c30f8bdf4880ba8286cf8c73dddfe431ff015375f64736f6c634300080b0033",
  "linkReferences": {},
  "deployedLinkReferences": {}
}